:10000000007C002055280000812800008128000085
:10001000812800008128000081280000812800003C
:10002000812800008128000081280000812800002C
:10003000812800008128000081280000812800001C
:1000400059100000A17B00008128000049770000C2
:100050000D7C0000AD7B0000C57B0000A57B00008F
:10006000B9090000550A00005D100000C12400001D
:1000700081280000812800008128000081280000DC
:1000800081280000790A00008128000081280000F2
:1000900081280000812800008128000081280000BC
:1000A000812800008128000081280000117C0000C8
:1000B000A97B00006D0E0000517C0000812800002B
:1000C000596600008128000010B5054C237833B92B
:1000D000044B13B10448AFF300800123237010BD1B
:1000E000380700200000000054BC000008B5034B96
:1000F0001BB103490348AFF3008008BD00000000B6
:100100003C07002054BC0000154B002B08BF134BCC
:100110009D46A3F5803A00218B460F461348144AAA
:10012000121A08F01DF80F4B002B00D098470E4B09
:10013000002B00D098470020002104000D000D483E
:10014000002802D00C48AFF3008007F0B9FF200070
:10015000290000F0B3F807F07BFF00BF00000800A3
:10016000007C002000000000000000003807002094
:100170004C2A0020000000000000000008B502F03A
:1001800099F801210248BDE8084000F0FBBF00BF1C
:1001900000250A00024B034880221A6008F0DEBBEB
:1001A000FCA000463899000008B50B4B1B7813B132
:1001B000012B0BD008BD094808F0D0FB08492522C7
:1001C0004FF6FF70BDE8084003F054BA054808F048
:1001D000C5FB25220449F3E7F1010020FF99000047
:1001E00080010020059A0000A50100207047000052
:1001F000014B01221A7070477408002013B5084C97
:1002000000F010FD204600F0EDFC002300934FF4B9
:100210007A72044B2068012100F062FD02B010BD2B
:1002200070080020A901000073B507F037FF154CD6
:10023000154D164E8DF807009DF80700431EDBB2E2
:10024000FD2B01D902B070BD01230A28238001D003
:1002500008F014FB01220DF10701284600F06AFAAC
:10026000002809DD304608F0F1FA094B1B781BB96C
:10027000084B186803F0A5FB07F010FF8DF8070086
:10028000DAE700BFD02000205C0800200A9A0000B6
:100290000E24002078080020054B1870054B1B78B1
:1002A000014623B1044B0022186803F09CBB704741
:1002B000BA280020800800207808002083B54C4B25
:1002C000DC6C01A8240E01F06FFD8E2C1CD849496E
:1002D000D1F8B00040F00403C1F8B030464B4FF005
:1002E00050121A601A631A66C3F89020C3F8C0202F
:1002F000C3F8F020C1F8B0003E4AD36A23F07F0370
:1003000043F02003D36201E08F2CF5D99DF805302E
:100310003A4CDFF83081012B01BF394A136843F0B2
:1003200004031360374B00251D60FFF727FF0420EF
:1003300001F06CFF4FF4006602F092FB4FF480571F
:1003400003F036FA1A20FFF7A7FF03F0C1F8266082
:100350002D48276008F002FB2C492D4808F076FA5A
:100360002C4B2D481D7008F0F9FA2C482C4B0068D6
:100370002C4D012242F2107103F015FB2A4808F0BF
:1003800065FA2A4808F0EAFA294B2A492A484FF424
:10039000807200F0C3F92F602E60FFF72FFF274E09
:1003A0003746FFF741FF30784FF4805301280CBFE8
:1003B0002B602360B8F8003001339BB2B3F5FA7FAD
:1003C00006D8A8F8003003F0C5F902F067FCE8E7AA
:1003D0001B4A1388013300219BB2A8F80010138038
:1003E00000B13970B3F5C87F84BF00231380EAE7FA
:1003F000B081E00F00400E4000A000403CA000444F
:1004000064310E40B40AC6434D9900007099000053
:10041000809900000E240020A29900007808002096
:10042000950100003CA00046E4990000E799000017
:1004300000000020590700205C0800205807002019
:100440005607002054070020002070477047000026
:10045000B0F5007F38B517D801F0A8F90C4A002391
:100460004FF4017404FB03F18D18895831B901224E
:100470002A601C4601F09EF9204638BD01330A2B44
:10048000F0D14FF0FF34F5E74FF0FF34F4E700BF51
:1004900084080020431C10B504460FD009280DD84D
:1004A00001F084F94FF40173054A6343D4580CB149
:1004B00004339C1801F07EF9204610BD0024FBE7B0
:1004C0008408002038B5044601F070F9054620463E
:1004D000FFF7E0FF30B14FF40170054A6043135855
:1004E000013B13502846BDE8384001F063B900BF16
:1004F0008408002038B5044601F058F90546204626
:10050000FFF7C8FF30B14FF40170054A604313583C
:10051000013313502846BDE8384001F04BB900BF05
:10052000840800200A2938B504460D4609D838B198
:1005300001F03CF90023A580236001F03BF9012084
:1005400038BD0020FCE7F8B50F460446A0B101F025
:100550002DF96688A5882388AE420ED2334493FBDA
:10056000F5F205FB12339BB20233013644F82370D7
:10057000668001F01FF90120F8BD9A1C013344F890
:10058000227093FBF5F205FB12332380F1E770B57F
:100590000446B0B101F00AF9638883B12288A688C5
:1005A000911C013254F8215092FBF6F1013B06FBFD
:1005B00011222280638001F0FDF8284670BD1D469F
:1005C000F9E70546F9E710B5044648B101F0EEF841
:1005D0006488B4FA84F4640901F0ECF8204610BD94
:1005E0000124FBE773B504460D461646A2B107F099
:1005F00029FD0022026001A9204608F05BFB07F0FC
:1006000021FD0368BBB9204608F0A3FA019B1B1B20
:100610001B1A584258410FE007F014FD01A906606B
:100620003246204608F0D6FBED000121A9400139F1
:1006300030EA0103E3D0002002B070BD19B90146D1
:10064000064808F003B9012902D114210448F8E74B
:10065000022902D1034808F081B970471A9E0000B0
:10066000379E0000659E00002DE9F84300260446F1
:100670000546374685B92248224DDFF89880DFF8D5
:10068000989008F06BF9204808F068F90CB12268DE
:10069000A2B90120BDE8F88328680028EBD008F053
:1006A00058FA8046686808B108F053FA4745B8BF61
:1006B00047468642B8BF06461035DBE7A368E3B17C
:1006C0007942404608F0C2F86268A2B111780F4B37
:1006D000002908BF1A467142484608F0B7F8E16899
:1006E00021B10B7813B10A4808F0B0F80A2008F0DD
:1006F000C5F81034CAE7054AEDE711462846F3E786
:100700009D9E0000159F0000BA9E00008EA0000074
:10071000EFA10000119F0000109F000040B139B10F
:1007200001600021C0E902120361017108467047AF
:10073000012070472DE9F04F16469FB0044600286F
:1007400000F01381002900F010818568E368A81883
:10075000984280F00E812068284407F0DDFCA268F2
:1007600000233244A26002930093A268AA420BD8ED
:10077000009B2BB12068D21AA260C11807F0D7FCE9
:1007800002981FB0BDE8F08F23685A195B5D04938F
:100790000A2B01D00D2B2AD100231370009B9D4200
:1007A00013D0236905932668009B1E44711E3346AF
:1007B00011F8012FEAB91A70784909AA304608F0F1
:1007C000FAF98146002840F0CE80049B0A2B05D11F
:1007D00023790D2B02D1009B9D4203D0029B013354
:1007E0005BB202936B1C00939DF8103023710135AE
:1007F000BBE7082A03D19E42DAD2013BD8E71A7040
:100800000133D5E74BF82A900AF1010ABAF1140F27
:1008100004D101213046FFF711FFD6E709AA5F494D
:10082000002008F0C8F981467BE0039B012B00F013
:100830009880023B0693039A019B13444FF00108F2
:100840004FF02E0B0793C24518D1069B9A4540F3F3
:100850008880BB680AA9504698474FF001083B685A
:100860001BB9059B002B40F08C80B8F1000FACD178
:10087000B9F1000FA9D000214846CCE7039B08F14D
:10088000FF329A4210DB079B13F8012C2A2A68D109
:10089000BBF1750F26D010D8BBF1620F1FD0BBF192
:1008A000730F5ED101220FE0019B03EB080212F8E7
:1008B000012C2A2A18BF9346EAE7BBF1760F05D030
:1008C000BBF1770F4DD10022042101E0002202216B
:1008D0000AAB53F82800FFF785FE002841D008F145
:1008E0000108B0E700220121F2E71037002F43D0C2
:1008F000D7F80080B8F1000FB1D0BB68002BF4D05E
:100900004146484608F0F0F80028EED10DF1780B8A
:1009100009AA22494BF8508D08F04DF94FF0010A11
:100920008146B9F1000F7FF46DAF7B680193002B16
:100930008FD01B49184608F002F9002889D0019889
:1009400008F007F92A210390019808F0EBF8039BBF
:1009500000283FF46FAF019A013B134498423FF4E3
:1009600064AF022156E7059FC0E74FF0FF330293C3
:1009700006E76FF00103FAE7059B002B3FF47BAF1E
:10098000B8460849304608F0AFF800287FF46DAF4C
:100990000598FFF769FE804667E700BF219F0000CA
:1009A000259F0000279F00000022114608F012BA80
:1009B0000022114608F07EB92DE9F843174E326E39
:1009C000F36E12EA030800D5FEE7154CDFF85490E9
:1009D0000127002518EA070F16D02368B7669BB1D8
:1009E000A16862680131A16028469847637B012BAA
:1009F0000AD148B909EB4513197B1A7F60F341010D
:100A000060F3410219731A770135082D4FEA470741
:100A100004F11004DED1BDE8F88300BF00200E40D1
:100A2000AC1C00202C1D002070B5094E0446012589
:100A300004B970BD94FAA4F0B0FA80F005FA00F39E
:100A400024EA030456F82030002BF1D09847EFE752
:100A50002C1E0020074BD3F82804D3F81C24104088
:100A600020F42A5020F02A004004400CC3F824044B
:100A7000FFF7DABF00A00040074BD3F82804D3F8F3
:100A80001C24104020F4AA4020F055000004000C63
:100A9000C3F82404FFF7C8BF00A000402DE9F84FB9
:100AA000284C4FF0000A04F1A00580464FF00009E1
:100AB0004FF0010B237F84F81DA06BB1D4E9002314
:100AC000994508BF9045104619460AD2B2EB080076
:100AD00063EB0901C4E900012834AC42EAD1BDE866
:100AE000F88FE37F33B92377A369002BF4D084F820
:100AF0001DB0F1E7D4E90267B8EB000069EB010132
:100B000032463B4607F000F9B01A67EB0301236950
:100B10006269002BC4E900010BDD1344F32B636110
:100B2000E2D9461C41F10007F43BC4E90067636168
:100B3000DAE7D31AF32B6361D6D910F1FF3641F10E
:100B4000FF37F1E7801E002038B5074C0025637F92
:100B50001BB1A369216A284698470135042D04F189
:100B60002804F4D138BD00BF801E0020F0B5194E16
:100B700000214FF0FF324FF0FF337418257F3DB155
:100B8000D4E900459D4208BF94423CBF22462B4613
:100B90002831A029F1D1104900240C705C1C08BF39
:100BA000B2F1FF3F0C4614D000279F420B496FF073
:100BB000640608BF9642086038BF324608490425DB
:100BC00002440D6201234A6523704B6A43F004031B
:100BD0004B62F0BD801E0020741E0020701E00209D
:100BE0000020044070B5054600F0E7FD0A490023E7
:100BF000282606FB0312947F14B935B9074C07E089
:100C00000133042BF5D1064C02E0012191772B60D2
:100C100000F0D7FD204670BD801E0020041000F0BB
:100C2000011000F0204B70B51C78002C3AD1012542
:100C300029461E481D701E4E00F0A4FA03211D48CF
:100C400000F0C2FC032329461B48337100F09AFAD6
:100C5000304601F075F81949284601F057F8184B4D
:100C600018485A6A22F4FF6222F007025A6240F2E0
:100C7000FF721A62144A9C604FF00051C2F8801152
:100C800011605A6A2A435A622146A02207F068FA84
:100C90000E4B1C700E4B1C700E4B1C600E4B1C60E0
:100CA0000E4B1C60002070BD751E002000050A0060
:100CB000CB01002005002200A0091400D40100206F
:100CC00000200440801E002000E100E06C1E002097
:100CD000741E0020781E0020201F0020241F0020EA
:100CE00003282DE9F74F0746894693461E4600F232
:100CF000AA8000F062FD554A282404FB07248046A0
:100D0000A17F924629B900F05CFD514803B0BDE8CF
:100D1000F08FBBF1000F08D116B10C993846B047DF
:100D2000404600F04EFD0020F0E74A4A4FF4004CE8
:100D30004FF47A6000219568A6614FF4FA520023BF
:100D4000ECFB0B0106F0E0FFB9F1010F02460B4688
:100D5000C4E9022309D14FF47A7303FB0BFBF4239C
:100D600003FB10B323617A236361282303FB07A3EA
:100D700001304FF0010241F10001C3E900011A778F
:100D80000C9A83F81F901A62334B1B78002BC7D143
:100D9000324C236801331EBF236801332360304B7C
:100DA00001931A78E2B92F4B2A4E1D600423336257
:100DB00000236FF064028B4208BF824238BF1046A6
:100DC00028447065736A019A43F004037362012337
:100DD00013702368002BA3D02368013B23609FE797
:100DE0002368012BF5D1282303FB07A30026DFF896
:100DF0006490DFF870B01E77D9F8242022F0040246
:100E0000C9F82420DBF80000281AFFF747FEFFF797
:100E10009BFE26B9282202FB07A201201077284654
:100E2000FFF7A4FE0F4BD9F808501868D9F85420E2
:100E3000019BA5EB000C121A187801360028C8D0C7
:100E40009445D9D8C5E7084860E700BF801E002058
:100E5000031000F0002004406C1E0020781E0020CB
:100E6000741E0020701E0020021000F02DE9F047D3
:100E70001E4C00F0A2FC656AA269154025F005022F
:100E800022626A07804622D5194EA768DFF868906B
:100E9000DFF868A001223270636A23F00403636202
:100EA000D9F80000381AFFF7F9FDFFF74DFE384674
:100EB000FFF75CFED9F80020A768636DB91A9B1A8A
:100EC0009AF800200AB19942E6D800233370EB0764
:100ED00006D5064B01221A62064A136801331360D5
:100EE0004046BDE8F04700F06CBC00BF0020044065
:100EF0006C1E0020201F0020701E0020741E002089
:100F00002E49F0B500220B682D4D104654592CB1D6
:100F10001E68AC18002E3AD1234601200832302A30
:100F2000F4D100B10B600968264B0A68002A35D05D
:100F3000DA6922F0FF02DA61D8690A790243DA61DC
:100F40001A6B42F0804220491A63204D0B68002240
:100F50001046545924B11E68AC181EBB234601200C
:100F60000832302AF5D100B10B600968154B0A68C8
:100F7000FAB1DA6922F47F42DA61DA69097942EA80
:100F80000122DA611A6B42F000421A63F0BD1E7949
:100F90002779B74284BF23460120BFE71A6B22F0AE
:100FA0008042D0E71E792779B7423CBF2346012013
:100FB000D6E71A6B22F00042E7E700BF2C1F0020A3
:100FC000341F002000300E40301F0020641F00201E
:100FD000074B186AC0B26FF00403C00090FBF3F037
:100FE000044B1B68184400F3070040B2704700BF71
:100FF00000300E40281F002010B5144C226B616A8F
:101000000A4010D5124B1B681A682AB100211960DA
:101010005960FFF7DDFF90474FF00043E362BDE802
:101020001040FFF76DBF5300F9D50A4B1B681A68D3
:1010300032B1002119605960FFF7CAFF01219047C2
:10104000024B4FF08042DA62E9E700BF00300E4009
:10105000301F00202C1F0020FFF7CEBF044BDA68A2
:10106000D20604D510225A61024B01221A70704731
:1010700000800140941F00200C4B984210D90C4B6B
:10108000984210D9022201230A490B600A49D1F87B
:10109000003123F0807343EA0263C1F800317047E6
:1010A00000221346F0E70122FBE700BF0048E801F9
:1010B0000090D0034000C84300400E400A490B4B4B
:1010C00088425A680BD90A4988420AD902F040710D
:1010D0005A6822F0407242EA01625A607047002169
:1010E000F6E70121F4E700BF40787D0100000E40E3
:1010F000005A620238B5064C41F67133256C236400
:1011000000F05EFFFFF7DAFF0DB10023236438BD66
:1011100000000E40044BD3F84421D20703D4D3F887
:1011200040211042FBD1704700400E400C4AD2F8DB
:101130009030516A0B4B21F0300141F0100110B595
:101140005162146BC0F3C31103310F2903EA040386
:1011500028BF0F21034343EA0173136310BD00BF8F
:1011600000400E4000F8FF0F38B5054C41F67133D2
:10117000256C2364FFF7A2FF0DB10023236438BD63
:1011800000000E40C0F30322013A38B50546092A93
:1011900013D8DFE802F023131212051619121C20CF
:1011A000104C0020C5F3043508B1FFF7B3FF04F17C
:1011B000047405EBC404A400216038BD00200A4C6F
:1011C000F0E70120094CEDE71020094CEAE74FF465
:1011D0008030084CE6E70020074CE3E70020074C8E
:1011E000E0E700BFB0400E40C0400E40E0400E407F
:1011F000E8400E40F0400E4050410E4000400E408E
:1012000000F00F000138072848D8DFE800F0040F8D
:101210001947232D4735244BD3F8943003F00703A7
:10122000023B022B3CD8214AD05C70471E4BD3F8BE
:10123000803003F00703013B032B33D81C4AF3E74C
:10124000194BD3F8843003F00703013B032B29D853
:10125000184AE9E7144BD3F8883003F00703013B41
:10126000032B1FD8144ADFE70F4B1B6F13F0010F3E
:1012700014BF0920072070470B4BD3F85C3103F0F3
:101280003003202B06D0302B06D0102B0CBF0720AC
:1012900001207047042070470820704700207047E5
:1012A000052070470120704700400E402C9F000031
:1012B0002F9F0000339F00002F9F000008B50146BC
:1012C000FFF79EFF1B4B994211D01B4B994212D046
:1012D0001A4B994204D11A4BD3F8800000F0070052
:1012E0000138032824D8DFE800F00A0E1612144B48
:1012F000D3F88400F2E7124BD3F88800EEE7BDE89C
:10130000084000F0CFBEBDE8084000F0D1BEBDE807
:10131000084000F0CABE00F07BFE094BD3F8003154
:10132000C3F300635A1C01239340B0FBF3F008BDE4
:101330000020FCE703001E000500220002001C0044
:1013400000400E4000F47810B0F5801F08B577D04B
:1013500016D8B0F5802F2DD005D868B1B0F5003F74
:1013600033D0002008BDB0F5402F34D0B0F5602F49
:1013700052D0B0F5202FF4D1BDE8084000F024BED3
:10138000B0F5E01F2FD00AD8B0F5B01F30D0B0F5BF
:10139000C01F38D0B0F5A01FE3D1304824E0B0F52D
:1013A000081FFAD0B0F5401F3DD0B0F5F01FD8D1DE
:1013B0002B4819E000F008FE2A4BD3F80C31C3F398
:1013C00008230133B0FBF3F0CCE700F0FDFD254B23
:1013D000D3F80831F3E700F0F7FD224BD3F81431CE
:1013E000C3F30423EDE72048BDE80840FFF766BFDC
:1013F0001D48FFF763FF1B4BD3F8202102F00F02BB
:1014000001239340DEE71648FFF758FF154BD3F84A
:10141000282102F00302F3E71448FFF7F1FE072842
:101420000ED00928A7E71248FFF7EAFE072807D0E1
:10143000082808D0042894D1BDE8084000F0FABD7F
:101440000C4B18688EE700F0BFFD064BD3F8003157
:10145000C3F3042303FB000084E700BF0500220060
:1014600003001E0000400E4002001C0006000E009B
:10147000B8003000DC0100200E4B5A6A12F0300F29
:1014800004D0202913D0302900D011B94FF44002E4
:1014900000E0094AD3F8901032EA0101FAD1520271
:1014A00046BFD3F8A000C0F38020012070474FF45E
:1014B0000002EFE700400E40FF03E10702280AD1D7
:1014C00029B1064B4FF48060C3F8A800596612B1E9
:1014D0000220FFF7D1BF0120704700BF00400E403F
:1014E000F8B504284ED8DFE800F00A031161660061
:1014F000802640250623072400294ED046E04FF4DD
:1015000000764FF4807508230924F5E7002942D0BE
:101510002B4C636A13F0300F35D1636ADB0705D5B6
:10152000636A23F0300343F010036362042502234F
:101530000324234E3566234E33449B001F68002F3F
:10154000FCD0FAB13444A4002368002BFCD002285C
:1015500018D1B9B11A4E716A11F0010118D00122E7
:101560002021FFF7ABFFD6F89C700122002102205A
:10157000FFF7B6FFC7F30A00FFF7D8FD356623680B
:10158000002BFCD0F8BD0425022303240021D0E762
:10159000FFF772FFE7E708260223094A1666094AA1
:1015A0001A4492001368002BFCD1EBE701250226B8
:1015B00000232C46A0E720261025042305249BE7C2
:1015C00000400E408004F21000F00F00013810B50A
:1015D000072842D8DFE800F00F043D413B5B41663D
:1015E000494C0139092938D8DFE801F04F383F3735
:1015F000374637373735023903292ED8DFE801F06F
:101600002402181E0120032401221146FFF768FF5F
:10161000FFF770FD3D4B3E485C67FFF793FEFFF719
:101620002BFD00F0F5FC0021BDE81040FFF79CBD4C
:101630003848FFF721FD02200446E5E73548FFF76B
:101640001BFD01240320DFE700200424DCE7324CEB
:10165000C7E7324CC5E70423236010BD01221146C1
:101660000020FFF73DFF0223F6E701221146104656
:10167000FFF736FF0123EFE700F0CAFCFFF7FCFCA1
:10168000274B01221A600323E6E70023E4E707293A
:1016900004D00929E1D11D4B012201E01B4B00229E
:1016A0001A67DAE701390729D7D801A353F821F0DF
:1016B000031700005B1600005B160000F516000023
:1016C0005B1600005B160000E7160000D116000054
:1016D00003220E49D1F85C3123F0300343EA0213B0
:1016E000C1F85C31B9E7012211460420FFF7F8FE8A
:1016F0000122EEE7012211460220FFF7F1FE02224D
:10170000E7E70022E5E700BF80400E4000400E40C2
:1017100000050A000148E80188400E4084400E4060
:101720000016C84310B504461120FFF769FD0122D9
:1017300000210220FFF7D4FE1A4A217C536A23F0CD
:101740000103022908BF43F001035362164B2178BD
:101750001960936AE17A23F007030B439362A1882F
:10176000637A43EAC123D362136BA07A217A03F030
:101770007F630343E08843EAC02343EAC113033194
:101780000F2928BF0F2143EA01731363A37B617BF9
:101790001B0143EA0133E17B0B43217B43EA014315
:1017A000536310BD00400E40A004C843EFF3108007
:1017B00072B6704700B962B67047EFF3108072B628
:1017C0007047FFF7F7BF00001848194BC26C1B8821
:1017D000C2F303222833013202EB820103EB5303ED
:1017E000B3FBF1F3C16C013B072B21F0EE6128BF85
:1017F000072341F4801141EA0363C3640D4BB3F93D
:101800000030002B10DB2833510801EB420203EBC0
:101810005303B3FBF2F3026D072B28BF072322F01B
:10182000700242EA03130365704700BF00300E40A8
:10183000981F00209A1F0020134B9A6FD207FCD4E8
:101840001B6C13F003031EBF104A01211160834279
:1018500003D108B90D4B1860704723B9012802BFA6
:101860000B4B02221A70084A1146936FDB07FCD417
:10187000136C23F00303034313648B6FDB07FCD467
:10188000003018BF0120E5E700300E40B40AC6431F
:101890009C1F0020A0F5E163B3F5966F2DE9F0479A
:1018A00003D900210846BDE8F0875F4C5F4BD4F8B0
:1018B0006851DB6CB0F5E16F1FBF4FEA156AC5F3E5
:1018C00007484FF496694FF4E16701BFC5F3072A53
:1018D0005FFA85F84FF416794FF49667B0F5E16634
:1018E000C3F3017C18BF012646EA0C2E40F2011317
:1018F0009E455BD0BEF5817F09D2BEF1010F1BD0A2
:101900005DD3BEF5807F5DD000252B4619E040F207
:1019100001239E4550D005D8BEF5007FF4D1D4F800
:1019200070310BE0BEF5407F4FD040F201339E4551
:10193000EAD1D4F878313BE0D4F87431C3F3072509
:10194000DBB2C71BAAEB080E07FB0EFEBEFBF9FEBF
:10195000C644D645A5D8A5EB030807FB08F7B7FB97
:10196000F9F73B44AB424FF000079AD882B1DFF859
:10197000BC80D8F85C5025F4FE4525F00205B0F592
:10198000E16F45EA0E2518BF02273D43C8F85C50B9
:10199000002946D0226DD2B2032A19D8B0F5E16FE2
:1019A000D4F87C211FD0C2F307221DE0D4F8743193
:1019B0001D0EC3F30743C4E7D4F87831BEE7D4F86B
:1019C0006C31BBE7D4F86C31F2E7D4F87031EFE753
:1019D000BCF1020FD4F880211ED0BCF1030F1ED041
:1019E000BCF1010FDFD0D2B2120312F4702F7FF4DA
:1019F00058AF0E4CE06E20F470400243E266626E17
:101A000022F4FF72E72B22F0010228BFE7233243C2
:101A100042EA4303636645E7C2F30742E4E7120E76
:101A2000E2E701213EE700BFB081E00F00300E4049
:101A3000194B1A6FD96CC90702F0070214D5012A95
:101A400012D9132823D9143813288CBF1023082344
:101A50001148013BC26C190322F47F4241EA03237F
:101A60001343C364FFF7B0BEDB6CD90706D4012A69
:101A700004D809280BD90A380928E6E7064BDB6C9D
:101A800013F00103E4D0012A03D82728DDE704235B
:101A9000DEE70023DCE700BF00300E40054A064BBE
:101AA0001B68136F23F007031843044B1067188853
:101AB000FFF7BEBF00300E408009C643961F0020CE
:101AC000534B37B502229A639B6B03F00F0393428B
:101AD000054603D00024204603B030BD4D4BD3F85B
:101AE0006C3101331DD04C4B1A68043B1B681A60E3
:101AF0004A4B1A68043B1B681A60494B1A68043B3E
:101B00001B681A60474B1A68043B1B681A60464BF7
:101B10001A68043B1B681A60444B1A68043B1B6834
:101B20001A60E988B5F90C004A2965D9B1F5FA7F40
:101B300064D340F6C313994294BF4FF000514FF065
:101B40004051334CE36C23F0405323F00103002851
:101B5000A8BF43F001030B43E364E36E43F08073DB
:101B6000E366334B186800B10420FFF797FF236E3C
:101B700023F0C0432366E36C43F0060301A8E3644B
:101B800000F012F99DF80500012812D19DF80430EB
:101B9000022B0ED827490B785BB9274A136843F00C
:101BA00001031360236E254A1A40254B1343236615
:101BB0000870244B29891980234BB5F90C201A8011
:101BC000224BA8881880FFF733FFAB7BCBB1012BEA
:101BD0001BD0012211466888FFF75CFE04460028EE
:101BE0003FF478AFAB7A1A4A6878003318BF012304
:101BF0001360FFF721FE6EE70021A2E74FF080514E
:101C00009FE7034B134A9A65E3E7014B124AFAE751
:101C100000300E40B081E00F3C80E00F4480E00FC8
:101C20004C80E00F5480E00F5C80E00F6480E00F98
:101C30008009C6439C1F002044300E40000F0EF068
:101C4000B4C0400B981F00209A1F0020961F002050
:101C50009407C64377402057372110B7F0B54AB1F3
:101C600030261E4C012546438D4034440BB304F10D
:101C7000C06425603024444304F18044072904F5FE
:101C8000204419D865688E000F27B74025EA07055C
:101C900002FA06F63543656052B9012202FA01F1F3
:101CA000302250430D4A0244A3B102F1C0621160D8
:101CB000F0BD04F18064DCE701F18045083DA668D1
:101CC000AD000F27AF4026EA070602FA05F53543B7
:101CD000A560E1E702F18062E9E700BF0CA00040E7
:101CE000044B41F671321A649A6822F001029A603C
:101CF000704700BF00000E40034B9A6822F00102BB
:101D00009A6000221A64704700000E408B784A786F
:101D10009B0143EA82030A781343CA7843EA021319
:101D20000A7943EAC2234A7943EA02338A790430C2
:101D300043EA42430001014A135070470020044027
:101D4000427801790378002A827870B514BF04269E
:101D50000026002AC27814BF10250025002A4279E7
:101D60004FEA023242EA012242EA0302837914BFB7
:101D700020240024002BC37942EA034343EA0603EC
:101D8000027A43EA050314BF4FF4004100212343C4
:101D9000002A14BF4FF4003200220B431343014AC0
:101DA000136070BD002004400B4A536911699B0009
:101DB00003F03C03C1F381110B438370136903F0FB
:101DC0003F0343709369D26903F0F003C2F3031237
:101DD00013430370704700BFD0FF0FE070B5054696
:101DE00016461C4619B91448FFF7ACFA0146202CD8
:101DF00008D001D8ECB170BD402C18D0602CFAD1BD
:101E0000042200E0082206FB02F35A0802EB41120A
:101E1000B2FBF3F2094B203A03EAC2022B6823F02B
:101E200060032B602B681C432C606A61E3E7062289
:101E3000E9E71022E7E700BF40410500F8FF7F0017
:101E400038B50546144619B90548FFF77BFA01462F
:101E500001396400B1FBF4F10902696138BD00BFCA
:101E600040410500CB435B0003F00A03C360C1603F
:101E70007047000040F6AA63C36041F205020023E8
:101E8000036042600A4A83604361C3648264094A12
:101E900043679042836702F58062C36701D0904236
:101EA00000D103659042836508BFC365704700BFDA
:101EB000F9FF01000000014038B505460C46FFF768
:101EC000D9FF8B7C1BB1036843F080430360E37C44
:101ED0001BB1237D43F08003AB65228A637B1343F0
:101EE000E28913436B60D4E90112237B2846FFF794
:101EF00075FF637D1BB12B6843F480332B60A37D9A
:101F0000E27D1B07120502F4E00203F0E0431343F5
:101F10002B666B6F23F030036B676A6F237E13436E
:101F20006B672378EB6038BD38B50C460546FFF784
:101F3000A1FF0A8A897B0368002942F0010214BFCD
:101F40004FF48061002113430B43227D036003683B
:101F5000002A14BF4FF00052002213430360A37CF9
:101F60001BB1E37C43F080038365237B43F4805300
:101F70006B60D4E901122846FFF762FF637B0BB167
:101F80001023EB60637D1BB12B6843F480332B601F
:101F9000A37DE27D1B07120503F0E04302F4E0029B
:101FA00013432B662378EB6038BD03691B06FCD511
:101FB000C069C0B2704703695B06FCD541637047D6
:101FC0000048704700F049020D4AD2F8943003F0FF
:101FD0000703032B11D0042B03D0022B0BD1094B89
:101FE00000E0094B1868D2F80031C3F30423013331
:101FF000B0FBF3F07047054BF4E74FF40040F2E715
:1020000000400E40E4010020EC010020E801002027
:1020100008B5FFF7D9FF054BD3F80831C3F3082300
:102020000133B0FBF3F0024B186008BD00400E40D6
:10203000E0010020014B1868704700BFE401002058
:10204000054B1860054BD3F8943003F00703022BBF
:1020500001D1FFF7DDBF7047E401002000400E40D2
:102060000D4AD2F8883043F47003C2F888300B4B25
:102070005A6D42F400525A651A6C22F003021A6437
:10208000074A136823F00103136052F8143C23F04D
:10209000805342F8143C704700ED00E000300E40E1
:1020A00074300E404FF4004070474FF47A70704720
:1020B000014B1868704700BFEC0100207FB5094B49
:1020C0006A4603F11006154618685968144603C499
:1020D0000833B3422246F7D12846FFF7F1FC04B09B
:1020E00070BD00BF389F000070B51A4B86B001AAC2
:1020F00003F11006154618685968144603C40833DE
:10210000B3422246F7D11B88238028464FF096130E
:102110000293FFF707FB1048FFF792FF01221146D9
:102120000220FFF7DDF904211120FFF74DFA00220C
:1021300011460320FFF7D4F903210848FFF744FABA
:1021400003210748FFF740FA03210648FFF73CFA4E
:1021500006B070BD489F000000F0490202001C005C
:1021600003001E000500220013B51C4BDC6C01A807
:10217000240EFFF719FE8E2C1CD81949D1F8B00097
:1021800040F00403C1F8B030164B4FF050121A6003
:102190001A631A66C3F89020C3F8C020C3F8F02071
:1021A000C1F8B0000E4AD36A23F07F0343F0200346
:1021B000D36201E08F2CF5D99DF80530012B01BFCA
:1021C000094A136843F004031360084B00221A60A5
:1021D000FFF774FFFFF788FF02B010BDB081E00F7A
:1021E00000400E4000A0004064310E40B40AC643D7
:1021F00008B501210448FEF7C5FF00F009F8BDE865
:10220000084000F085B900BF00250A000020704793
:1022100008B501210D48FEF7B5FF01210C48FEF776
:10222000B1FF0422114600230520FFF717FD052109
:10223000084600230422FFF711FD00230422062193
:102240000520FFF70BFD002008BD00BF4041050041
:1022500000250A0002280DD8084B03EBC00213F832
:102260003030516801228A4030215943044B00200C
:102270005A5070474FF0FF30704700BF5C9F00001E
:102280000CA0004402280DD8084B03EBC00213F841
:102290003030516801228A4030215943044B0020DC
:1022A0005A5070474FF0FF30704700BF5C9F0000EE
:1022B0000CA0004608B500F013F808BD82B000EB92
:1022C00040000021CDE90001DDE9002312F1FF30DB
:1022D00043F1FF311343CDE90001F5D102B070475E
:1022E000F0B58BB0FFF740FFFFF782FF14220DEB34
:1022F0000200002105F034FF434B0693012502261E
:102300001722052305A94FF0FF308DF814608DF8D2
:102310001C208DF81D308DF822208DF823308DF88B
:10232000245001F0DBFD394B0FCB01AC84E80F00EA
:10233000204600F0B1F9364B3648D3F8903003F41C
:102340008073002B0CBF2F460027294614BF34464C
:102350000324FEF717FF2A4629463846FFF7C0F840
:1023600021462D482D4FFFF72FF921462C48FFF726
:102370002BF921462B482C4CFFF726F929462B48F0
:10238000FEF700FF29462A48FEF7FCFE20462949B1
:10239000FFF7CAFD0B23636703F10B23A3673046E6
:1023A000002304220621FFF759FC32463046002361
:1023B0000721FFF753FC3046002304220821FFF7D2
:1023C0004DFC04222B4611460020FFF747FC102548
:1023D00042F21070FFF772FF174E3D60AB212046AE
:1023E000FFF7E9FD2046FFF7E0FD35601E20FFF70F
:1023F00065FFB92120463D60FFF7DDFD2046FFF770
:10240000D4FD35600BB0F0BD006A1800749F000069
:1024100000400E4000050A0002001C000CA0004411
:1024200003001E0005002200000401404041050099
:102430000032040024A000000CA0004600207047D9
:10244000FEE74FF400534B600020704701207047B7
:10245000012070474FF0FF30704700207047F8B5FB
:102460000E468F180D46BD42A5EB060405D1002C83
:1024700008BF4FF0FF342046F8BD00F0ADF8431C14
:10248000F5D005F8010BEEE7044B1968024609B9CF
:1024900003491960186802441A607047A01F0020A1
:1024A000502A002070B50E4615460C46A31B9D42CF
:1024B00001DC284670BD14F8010B00F0BFF8F5E709
:1024C0000F4803691B0670B514D50E4D2B68072BFA
:1024D00011DC0D4C2668FFF768FD0C4B98552368FE
:1024E000013323602B6801332B602368082B01D153
:1024F0000023236070BDC36C23F00403C364F9E7B9
:1025000000000140B01F0020B81F0020A61F0020BF
:1025100030B5012189B02848284DFEF733FE01214E
:102520002748FEF72FFE0123194604220020FFF75B
:1025300095FB0023012219461846FFF78FFB0FCDAC
:1025400001AC0FC495E8070084E8070001211D488D
:102550001D4CFEF717FE08A9002501F81C5D20465A
:10256000FFF7AAFC03236367A26F22F4F85222F05C
:102570001F0242F48F7242F001020423A267A36497
:10258000124B4FF40061C3F88011E26C42F0040278
:10259000E264204619600521FFF764FC0C4B1868C3
:1025A00002222B462946806806F0F0F9094B0122E9
:1025B0001A7009B030BD00BF404105003CA00000CA
:1025C00000250A00002204000000014000E100E0B4
:1025D00058030020A51F0020134B1B7810B50BB922
:1025E000FFF796FFFFF7E9F8104B1A68002A18DD8D
:1025F0000F4A104C1168645C116801311160116858
:10260000082904BF002111601A68013A1A600A4AB9
:10261000D36C43F00403E4B2D364FFF7D2F820464E
:1026200010BD4FF0FF34F8E7A51F0020B01F0020B9
:10263000B41F0020A61F00200000014038B50E4B3B
:102640001B7804460BB9FFF763FF0C4D2A782AB1BB
:102650000A2C03D10D210A48FFF7ADFC214608489A
:10266000FFF7A9FC2B782BB10D2C03D10A210448CC
:10267000FFF7A1FC204638BDA51F0020A41F0020A5
:102680000000014010B9024B18687047014BFBE78E
:10269000C01F0020C81F0020064B027B1A70064B8B
:1026A00002681A60054B42681A60054B82681A601E
:1026B00000207047BC1F0020C01F0020C81F002042
:1026C000C41F002047F6FF739A4270B50D461446AA
:1026D00058D02D4B1B682BB12C4B1B6813B12C4BC6
:1026E0001B6813B92A2101F0E1FB2846FFF7CAFF56
:1026F000012D0ED1264B1968062331F91320A24271
:1027000018B202DC0130C0B270BD013BF5D11846F1
:10271000F8E7B0F90010A14203DB1E49A142B8BF9F
:1027200021462822A1F1C80393FBF2F31A4A446818
:1027300015785B421BB29D42DCBF05F1FF331BB233
:102740004FF47A7604EBC3020133508852681BB20F
:1027500011FB002020EAE0709D4200F5FA70B0FB0A
:10276000F6F203DD34F833009042EBD203F100536C
:10277000013B34F83300904228BF1046002808BFC0
:102780000120C0E7FF20BFE7C01F0020C81F0020B6
:10279000C41F0020C880FFFFBC1F0020284B1B68FF
:1027A00070B50D4614462BB1264B1B6813B1264B52
:1027B0001B6813B92A2101F079FB012D0BD1072CDD
:1027C00005D82CB9204B1B6833F9140070BD0724C1
:1027D000601EC4B2F6E78CB32846FFF753FF012C06
:1027E00002D8B0F90200F1E7002D14BFF823FC2352
:1027F0009C4202DBB0F90000E8E7144B426819780C
:102800000139C9B20023A5B2D8B281424FEAC30050
:1028100004D9161801333689AE42F5D213184FF495
:102820007A705A68B3F902106043801A022291FB51
:10283000F2F2104490FBF1F000B2C7E70448C5E79C
:10284000C01F0020C81F0020C41F0020BC1F002084
:102850000CFEFFFF064880470649074A074B9A428D
:10286000BEBF51F8040B42F8040BF8E7FDF74CFC2F
:102870006120000060BC0000000000203407002040
:10288000FEE700BF2DE9F04F85B0CDE9012300241C
:1028900080460E468A4627464FF07B0B96B9019933
:1028A000404806F0ADFA002C79DA61423E4805F066
:1028B000CDFF029B13B13D4806F050F8204605B00D
:1028C000BDE8F08F2C21504606F02CF9064690B357
:1028D000A0EB0A09334BC7F5807209F103018A4264
:1028E00003EB070555D32A46534600241946013405
:1028F000B9F1000F04D008780A2803F101031FD0B2
:1029000082F800B028194A4605F006FC04EB0903DA
:102910005C1C4FF07D0905F8039000232B553A21EC
:10292000284606F0FFF8824678B9B8F1000F1FD1AB
:102930006FF00B04B3E7504606F00BF98146C9E788
:1029400002F8010B09F1FF39D0E7431C3A21184680
:10295000039306F0E7F8F8B9B8F1010F039B0DD126
:10296000AAEB0502A41A22461946681C05F0DFFBF3
:10297000002C94DB274406F1010A8FE7B8F1020F1F
:1029800001BFAAEB05048AF800908AF8010001341F
:10299000EEE76FF00A0482E76FF00C047FE7002493
:1029A00087E700BFCC1F00206FA0000089A00000B7
:1029B00010B504467B2005F061FF1CB1214602489A
:1029C00005F044FF012010BD84A000000EB433B513
:1029D00005AB53F8045B0193FFF7EAFF044630B9F7
:1029E0000024204602B0BDE8304003B07047012308
:1029F000019A29460020FFF745FF0028F1D0EFE7B4
:102A00000CB473B506AB044653F8046B01937B20FA
:102A10000D4605F033FF1CB121460D4805F016FFA9
:102A20000C4805F013FF0199304606F0E9F97D20C6
:102A300005F024FF2946084805F008FF074805F07F
:102A40008DFF012002B0BDE8704002B0704700BFAA
:102A500084A0000058A0000060A0000089A0000031
:102A60004FF07E634FF6FF729B882F482DE9F047A9
:102A70009342DFF8ECA0DFF8EC902C4D2C4CDFF803
:102A8000E8802C4F2C4E08BF0023AAF800302B4BB7
:102A900014221A804FF07E631B7AFF2B08BF03239A
:102AA00089F8003028232B70102323704FF07E63A9
:102AB000DA7AFF2A08BF032288F800205B7AFF2B0E
:102AC00008BF28233B704FF07E639B7AFF2B08BF23
:102AD0000023337005F042FF4FF07E6318481968F9
:102AE00005F0B4FEBAF80010164805F0AFFE99F8EC
:102AF0000010154805F0AAFE2978144805F0A6FE36
:102B00002178134805F0A2FE98F80010114805F04E
:102B10009DFE3978104805F099FE31780F48BDE8E0
:102B2000F04705F093BE00BF8BA00000B628002040
:102B3000BA280020B1280020B7280020B82800209B
:102B40008FA00000A8A00000BCA00000D3A000003F
:102B5000ECA0000005A100001DA1000036A10000AE
:102B6000B4280020B2280020B028002010B54FF073
:102B70007E64ADF5007D23680093184B1B88ADF88B
:102B80000430174B1B788DF80630164B1B788DF8E8
:102B90000730154B1B788DF80830144B1B788DF8D7
:102BA0000930134B1B788DF80A30124B1B788DF8C7
:102BB0000B30FFF795F8204606F0B6FE80226946F6
:102BC000204606F0B5FE10B10B4805F03FFEFFF7BA
:102BD00093F84FF6FF700DF5007D10BDB42800206E
:102BE000B6280020BA280020B2280020B1280020F2
:102BF000B7280020B02800204FA10000014B187812
:102C0000704700BFCC20002070B50A4D06460FCD9E
:102C100090B001AC0FC40FCD0FC40FCD0FC495E819
:102C2000070084E8070010AB03EB860656F83C0C5F
:102C300010B070BD68A10000114B10B51C7884B9AC
:102C400078B101241C700F4B18700F4B19704AB9E2
:102C50000E4B1B7813F0020F0D4B18BF1A460D4B8D
:102C60001A6010BD0C4B02F11000194652F8044BCB
:102C700043F8044B8242F9D1064B1960F1E700BFDB
:102C8000CF200020CD200020F0010020CA0100202C
:102C9000F3A10000CC280020BC280020654B1A7846
:102CA0002DE9F341002A4AD000221A70624B634A90
:102CB000634E1B7810783778624A002B14BF0446A5
:102CC0000024874215680DD1A3B1002D37D02046CE
:102CD000FFF79AFF5C490246284602B0BDE8F04182
:102CE000FFF774BE002F40F08A80002B00F09D801B
:102CF0000DB913E085B12046FFF786FF80463846C0
:102D0000FFF782FF074601F0ECF83B460090424691
:102D10004E492846FFF75AFE33789BB94C4B18684A
:102D200000F04FFE012C44D122464A4B1978484B03
:102D3000186800F050FE484B32781A70347002B0B8
:102D4000BDE8F0815A1E012A04D8414B186800F0F2
:102D500045FEE7E7042B05D13D4B0021186800F044
:102D600045FEDFE70A2B11D84FF4CD62DA40D2439B
:102D700012F0010514D00C2BD0D00D2BD2D1344B36
:102D800000220121186800F005FECBE70B2BF2D1E1
:102D90002F4800231A461946006800F0FFFDC1E7DE
:102DA0002B4B186800F00DFE2C4B1D60FDF71EFA32
:102DB000B8E7022C01D10022B7E7042C05D1244B3F
:102DC0000121186800F012FEB5E7032C01D0052C94
:102DD00002D1FDF70DFAAEE7062C01D00A2C03D183
:102DE0001E4B01221A60F4E7E31F012BA3D8194BF5
:102DF0001978174B0022186800F0F5FD9BE7002DAD
:102E00009DD0174C174A002B18BF1446FFF7FCFE45
:102E100006463846FFF7F8FE2346CDE90060124A21
:102E200001212846FFF7ECFD89E7002D87D00C4CE7
:102E3000ECE700BFCF200020F0010020CD200020D3
:102E4000CC200020CC280020B3A10000BEA10000AF
:102E500078080020BA280020CE200020D4200020AE
:102E6000ABA10000A4A10000DDA1000070B50546E3
:102E70000C46FFF7C3FEA8420CBF0126002609D06E
:102E800044B12846FFF7C0FE034A034616212046F8
:102E9000FFF7B6FD304670BD6FA2000070B5044666
:102EA0000D461646FFF7FAFE294632462046FFF742
:102EB000C3FEFFF7F3FE002D4FF0000114BF2046C4
:102EC0000846BDE87040FFF7D1BF0000BFF34F8F49
:102ED0000549064BCA6802F4E0621343CB60BFF3B6
:102EE0004F8F00BFFDE700BF00ED00E00400FA05D2
:102EF0000B46034A034912881868FFF767BD00BFF5
:102F0000B4280020D0A2000010B548680C46FDF798
:102F10004BFD031E06DA2068064A1121BDE8104069
:102F2000FFF76EBD00F0A8FC21460120BDE810406F
:102F3000FFF7DEBF80A300000B4B10B518680C46EE
:102F400000F0CEFEC30706D52068084A1221BDE86E
:102F50001040FFF755BD064B20681A780549BDE8BB
:102F60001040FFF733BD00BF780800209BA200008F
:102F7000BA280020C5A2000070B548680C46FDF7CD
:102F800013FD0C4B054681B2186800F063FD38B1A3
:102F90002B462068084A1121BDE87040FFF730BD7C
:102FA000284600F073FC21460120BDE87040FFF781
:102FB000C3BF00BF7808002051A300000B4B10B521
:102FC00018680C4600F08CFEC30706D52068084A36
:102FD0001221BDE81040FFF713BD064B20681A7898
:102FE0000549BDE81040FFF7F1BC00BF7C08002098
:102FF00096A20000B7280020C0A2000070B5486863
:103000000C46FDF7D1FC0C4B054681B2186800F068
:1030100021FD38B12B462068084A1121BDE87040D7
:10302000FFF7EEBC284600F047FC21460120BDE832
:103030007040FFF7C3BF00BF7C08002066A30000FC
:1030400070B5084C0D68206800F0AFFE0646206899
:1030500000F0D3FE3246034603492846BDE87040DF
:10306000FFF7B4BC78080020DAA200002DE9F04197
:103070001A4C4F6826680D465EB938460C68FDF755
:1030800093FC174A034611212046BDE8F041FFF7A3
:10309000B7BC02281ADD1349A86805F050FDA8B98D
:1030A0003846FDF781FCC1B2304600F07BFE206857
:1030B00000F07BFE0646206800F09FFE3246034685
:1030C00009492868BDE8F041FFF780BC3846FDF7A4
:1030D0006FFC01B2304600F07CFEE8E77808002083
:1030E00095A30000C7A30000DAA2000070B5084C49
:1030F0000D68206800F059FE0646206800F07DFE4D
:103100003246034603492846BDE87040FFF75EBCDF
:103110007C080020DAA200002DE9F0411C4C4F6829
:1031200026680D465EB938460C68FDF73DFC194A25
:10313000034611212046BDE8F041FFF761BC02289B
:103140001DDD1549A86805F0FAFCC0B93846FDF741
:103150002BFCC1B2304600F025FE206800F025FEB1
:103160000646206800F049FE044600F0BBFB2346FB
:10317000324628680949BDE8F041FFF727BC3846C8
:10318000FDF716FC01B2304600F023FEE5E700BF74
:103190007C080020CBA30000C7A30000DAA2000037
:1031A0000B46034A034912781868FFF70FBC00BFAB
:1031B000B228002003A4000038B548680D46FDF78A
:1031C000F3FB0928044602DCC0B200F095FB22465E
:1031D00028680249BDE83840FFF7F8BBFFA30000AC
:1031E0000B46034A034912781868FFF7EFBB00BF8C
:1031F000B028002024A4000038B548680D46FDF72B
:10320000D3FB0928044602DCC0B200F07FFB224653
:1032100028680249BDE83840FFF7D8BB20A4000069
:10322000014B00221A707047F1010020014B01226E
:103230001A707047F1010020014B02221A7070478A
:10324000F101002038B548680C46FDF7ADFB064B90
:10325000054602221A7000F063FB2A4620680349E3
:10326000BDE83840FFF7B2BB0E240020F1A20000F9
:1032700073B548680D46FDF797FB0446FFF7BEFCA3
:103280000E2808D13CB12A4A28681D2102B0BDE8A9
:103290007040FFF7B5BBFFF7B1FC04280AD1254EFB
:1032A000306800F075FB8CB901282DD82E68224CAF
:1032B000224D1FE0FFF7A2FC0E28F0D02968002065
:1032C000FFF7D4FD0028EAD102B070BD10F0020271
:1032D0002AD11B4B3068197800F085FB194B01226D
:1032E0001A70164A144B2E68002C0BBF15461D464B
:1032F0001C46144600F0F5FD234600902A4612496C
:103300003046FFF763FBDFE722460121306800F01B
:1033100041FB0C4B1C70FFF771FC0E28C6D12246F6
:103320002146FFF7BBFDDCE72E68044C024DE1E7C8
:1033300011A3000078080020B6A1000008A3000037
:10334000BA280020800800203BA3000010B5486880
:103350000C46FDF729FBC1B20031226818BF0121DC
:103360000120BDE81040FFF767BC0000014805F0F0
:10337000F5BA00BF02A5000070B51B4B06461878D1
:103380000130FDF765F80446FDF784F8B8B1204632
:10339000FDF7B0F821461548154DFDF7D4F8154B4B
:1033A0002A781B789A420FD21348144B00680122E6
:1033B00044F6206100F0F7FA2B7801332B70204699
:1033C000BDE87040FDF77EB80D4B1B78022BF6D19F
:1033D0000C4B19680C4B4FF47A7041430122304674
:1033E00000F0E1FAEBE700BFD028002050290020D0
:1033F000D3200020B02800207C0800207933000072
:103400000E240020200300202D36000038B5154B77
:1034100018780130FDF71CF80446FDF73BF8D8B1E9
:103420002046FDF767F821460F48104DFDF78BF851
:103430000F4B2A781B78013B9A420DDA0D4B198805
:103440000D4B4FF47A7041430C480122006800F0A4
:10345000AAFA2B7801332B702046BDE83840FDF7DF
:1034600031B800BFD028002050290020D2200020F1
:10347000B2280020B82800200D3400007808002071
:10348000F8B51646002302F00802134302D00D4897
:1034900005F064FA06F400220023134305D000204F
:1034A000FEF7F0FE084B00221A7006F000740025AB
:1034B00054EA050304D00548BDE8F84005F04EBACB
:1034C000F8BD00BFC4A4000074080020E8A40000F8
:1034D00008B50A210848FDF725F800B9FEE70A21DA
:1034E0000648FDF71FF800B9FEE70A210448FDF77A
:1034F00019F800B9FEE708BD50290020B0290020C6
:10350000802900202DE9F74F174683468A463B481D
:103510003B4E114605F09AF907F10E090020FEF71F
:1035200099FE0022484632700192FCF791FF8046D6
:10353000FCF7B0FF0446002849D0412343706FF0E8
:10354000770383701223C3714FF0FF3303722D4B47
:103550002D491D680988818101351D601968019A0E
:10356000C0F80350B1F1807F28BF1A6007F10D0346
:103570004272A0F80AB03A4600F80E3B514604F0F9
:10358000CBFD2246002312F8011B4B40111B89453D
:10359000F9DC45EA03654A462146C4F803501B4856
:1035A00004F0BAFD4046FCF7A5FF41461848FCF779
:1035B000CAFF184B1B7883B11748184B00680122CB
:1035C00044F6206100F0EFF9337801333370404660
:1035D00003B0BDE8F04FFCF775BF114B1B78022B11
:1035E000F5D1104B1968104B4FF47A7041430A48DB
:1035F0000122006800F0D7F9E9E700BF3FA500000D
:10360000D3200020D4200020B4280020D02800207F
:1036100050290020B02800207C08002079330000C9
:103620000E240020200300202D36000010B50E4B84
:103630000E481C680323B4FBF3F303EB4303E41AC3
:1036400096B0214605F002F95122094901A804F07B
:1036500063FD1B2201AB02FB04314FF6FF70FFF745
:1036600051FF16B010BD00BFD420002025A50000DA
:1036700042A400002DE9F84F92462C4B2C4D0AF144
:103680000C07012281464FF0000B384688461A701D
:1036900085F800B0FCF7DCFE0646FCF7FBFE0446AE
:1036A00000283ED0412343706FF077038370752369
:1036B0000371242343711F4B1F4A1868128822810B
:1036C00001301860E0701A68A4F80690B2F1807FAB
:1036D000204628BFC3F800B00AF10B0300F80A3BEC
:1036E0005246414604F018FD3A462146134804F07C
:1036F00013FD3046FCF7FEFE31461148FCF723FF70
:10370000104B1B786BB1104B1988104B4FF47A702B
:1037100041430F480122006800F045F92B7801333E
:103720002B703046BDE8F84FFCF7CCBE7408002083
:10373000D2200020D4200020B4280020D02800204F
:1037400050290020B2280020B82800200D340000A5
:103750007808002073B51248FCF735FF0446E0B93D
:103760000F48FCF714FF0646FCF794FE014670B1C3
:1037700003780C4D01331A46286800F079FB0A4B98
:10378000286819780094094B224600F021F9304648
:1037900002B0BDE87040FCF795BE02B070BD00BF3E
:1037A0005029002078080020BA2800209CA400009E
:1037B0001FB52448244C05F0D1F82449244800F0D2
:1037C000D7F8206000B9FEE74FF0011100F045FB8B
:1037D000206800F0EDFB30B11E4B1F4A40F29131E2
:1037E0001E4804F011FC1E49206800F0AFFB20B118
:1037F0001C4B194A40F29231F2E71B4B18680290B9
:103800009B882068ADF80C3002A900F0D1FA20B1F5
:10381000164B114A40F2A931E2E7FC21206800F082
:10382000C1FA134A20680023CDE900234FF0FF328C
:103830004FF0FF3300F090FA0E49206800F015FBBE
:1038400004B010BD6AA50000780800206D330000A8
:10385000F40100208EA500005AA50000D5A50000A7
:10386000A8A40000E8A5000094A4000036A600006B
:103870000A00180238A60000034B80B218804FF0EF
:103880007E639880FFF772B9B428002010B54FF01E
:103890007E63074CC0B22070D871FFF767F9054B03
:1038A000217818680022BDE8104000F09CB800BFE5
:1038B000BA2800207808002010B54FF07E63074C2E
:1038C000C0B220709872FFF751F9054B2178186843
:1038D0000022BDE8104000F086B800BFB7280020E5
:1038E0007C080020034BC0B218704FF07E63587202
:1038F000FFF73CB9B1280020034B18704FF07E63EE
:103900001872FFF733B900BFB2280020034B1870BC
:103910004FF07E63D872FFF729B900BFB0280020AE
:10392000054B4FF47A71186041430448044B00681A
:10393000012200F038B800BF2003002078080020E2
:103940002D3600000220704700207047012070478C
:1039500000207047034B1868034B002808BF184627
:10396000704700BFDC2000203CA60000002070470C
:1039700038B5064B04460D46186000F051F829464C
:103980002046BDE8384000F041B800BFD8200020F4
:1039900000F086BC0846114600F052B808461146B1
:1039A0001A4600F0FBBD70B506460D4611461A4694
:1039B000FFF7D0FF046833462846A446BDE87040B0
:1039C000604710B5FFF7C6FFBDE810408368184791
:1039D0000C3000F083BF0C3000F0CEB908B500F019
:1039E00043FE002008BD0C3000F0B9B908B5084608
:1039F00001F040F9002008BD7047431E012B03D998
:103A0000031F5842584170470120704710B50446C3
:103A100001F062F900280CBF2046002010BD000014
:103A200010B5044600F00AFC034A236B002B08BFC4
:103A30001346024A136010BDF93900002403002028
:103A400010B50C4600F00CFC1CB100F029FC01285C
:103A5000FBD110BD406B70B5C468002318259C4293
:103A600001D1012070BD826805FB0322D6898E42F8
:103A700002D8128A8A4201D20133F0E70020F1E72E
:103A800073B50D4B0E4669461D68044600F0E4FD13
:103A9000B6F9122047F6FF739A420BD09DF800103A
:103AA00024792846FEF70EFEA04234BF00200120F4
:103AB00002B070BD0120FBE7D82000202DE9F04FB7
:103AC0006B4F8BB03B680393D0E90A964388019310
:103AD000039B0025B3428DF81E50044688468DF89E
:103AE0001F5003D113B1019B994252D0B9F1000F7D
:103AF00000F0BA80D9F80820002A00F0B580D9F883
:103B00000C20002A00F0B0805A4A049213680293F5
:103B10004FF0000A18224FF0010BD9F80C10514554
:103B200015D9D9F8085002FB0A55E989414535D81D
:103B3000298A414532D32946204605928DF81FB087
:103B4000FFF79EFF059A40B38DF81EB02E4608A9D8
:103B5000204600F081FD204600F084FD9DF81E20E7
:103B6000A4F10C0B8246E2B12179204600F048FD19
:103B7000049B1A68002A5CD04A4533D1396889B35E
:103B8000B1422FD1019B984518D1E662A4F802807A
:103B9000002528460BB0BDE8F08F2E460AF1010A39
:103BA000BBE79DF81F20002A60D09DF82010B6F9D1
:103BB00012205846FEF786FD0146D6E7002332461E
:103BC0004146204600F066FD05460028DDD05146FE
:103BD000204600F015FD00233A680199204600F0C8
:103BE00059FDD6E7116821B3D9F80000884220D1E9
:103BF0005168204600F0E0FF0546E8B931682046EC
:103C000000F0DAFF0546B8B9049BE662C3F80090FD
:103C1000A4F8028001233246414620463E6000F06F
:103C200039FD054640B9144B31461B685846984744
:103C3000AFE7D9F80010DCE7049B1A46029B13603B
:103C4000039B3B60029B1BB11968204600F0B4FF48
:103C50005146204600F0D4FC3B68002B99D01968EF
:103C6000204600F0A9FFB6E7032592E7012590E77B
:103C7000E4200020E020002024030020F8B50F1CE1
:103C800018BF012706460D4638461F21002400F0C4
:103C900017F938461F21B562F46200F011F9E8689F
:103CA00023464FF6FF711827DAB2824209D30C4639
:103CB000094B0022214630461A60FFF7FFFE2046DE
:103CC000F8BDAC6807FB0242D4898C4202D2002CBA
:103CD000EED021460133E7E7E0200020408870471E
:103CE000806A704738B50A78054610460C46FFF7DB
:103CF00084FE88B149780846FFF77FFE60B10A4329
:103D0000520709D400F0CCFA430707D421462846CD
:103D1000BDE8384000F050BC012038BD0220FCE76F
:103D200038B5054608780C46FFF767FE80B14A783B
:103D30001046FFF762FE58B1042A09D000F0B0FA2D
:103D4000830707D421462846BDE8384000F044BC2C
:103D5000012038BD0220FCE70C3000F043BA38B532
:103D600004460D46FFF7AAFE28B929462046BDE8BD
:103D7000384000F0C5BA38BD012A38B515460FD80D
:103D8000FFF79CFE044630B901210846FFF758FEB4
:103D90001DB900F070FC204638BD00F073FCFAE756
:103DA0000124F8E70C3000F037BC0C3000F05ABCAE
:103DB00038B500F10C040D462046002100F02CFC23
:103DC00029462046BDE8384000F014BC0C3000F015
:103DD00043BC73B504460E46694600F10C05FFF777
:103DE000F5FF32469DF800102046FEF76BFC0146B9
:103DF000284600F011FC02B070BD37B500F10C058B
:103E000069460446FFF7E2FF284600F02BFC9DF8C8
:103E1000001002462046FEF7C1FC03B030BD38B5A5
:103E200004460D46FDF7C2FC00232561E360BDE8B2
:103E30003840FDF7BFBC38B505460C46FDF7B6FC6B
:103E40002969EB680C402343EB60FDF7B3FC0020CD
:103E50000CB9002138BD0421FCE708B501F00111BF
:103E60000C30FFF7DCFF002008BD0C3000F066BE10
:103E70000C3000F0FDBD0C3000F014BE07B502AAF6
:103E80004FF4007322F8023D0749FFF7F4FFBDF835
:103E90000630B3F5007F05D1022808BF002003B02B
:103EA0005DF804FB0120FAE7E8200020024B1960CE
:103EB000024B1860FEE700BF280300202C030020FF
:103EC00008B528B9034B1960034B1868FFF7EEFFDC
:103ED00008BD00BF28030020D8200020084600F0BD
:103EE000AABF00F0EFBE2DE9F0438BB006460D46A9
:103EF0001822002104A804F033F94FF0FF33CDE974
:103F00000133039305B901AD002405F106082046ED
:103F100005F10C09A0B9E7B23A4635F8141030465D
:103F200000F0A2FF60B93A4638F81410304600F0AD
:103F3000AFFF28B93A4609EBC401304600F0BDFF97
:103F40000134032CE6D10BB0BDE8F0837FB500F15E
:103F50000C050E460B7E4A7E897E284600F0D4FF73
:103F600006F10C0207CA01AB83E807001946284690
:103F700000F036FF311D284600F0EFFF044670B90F
:103F8000284600F0D3FF044648B90849284600F007
:103F9000EFFE044618B9284600F09EFF044631683B
:103FA0002846FFF7A0FF204604B070BD64A60000BD
:103FB0000C3000F045BF704738B1044B6FF0FF0282
:103FC0001A6003F1007310401860704718700844BD
:103FD000037899072DE9304804461AD5C26AC2B160
:103FE0006FF34103037053691B685A1C04D01846D1
:103FF000BDE8304801F024BAD0E914234FF0000B9B
:1040000003F0040C5BEA0C0305D1037843F00203D0
:104010000370BDE830884FF48031FFF70CFFD4E91E
:10402000142302EA000B03EA010C5BEA0C03F0D054
:1040300004495A46A4F10C0009686346BDE83048BB
:10404000084700BF300300202DE9F34781468A4628
:1040500062A1D1E90001524B17461E6800EA09022D
:1040600001EA0A03134367D009F40020002150EA53
:1040700001024C4B18BF4C4AD3F8903018BF136064
:1040800009F48010002150EA01021CBF474A136066
:1040900009F080520023134309D0454B1B6903F0FC
:1040A0007F43B3F1007F02BF424B02221A6009F046
:1040B000C0520023134305D03F490868FFF77CFF37
:1040C00000230B6009F001020023134324D04FF0BA
:1040D00000080022002300210120CDE9008802F021
:1040E000D7FF012002F0AEF8414670820120FFF7B1
:1040F000A7FC336A314913F0800F14BF304A314AAC
:104100004FF4001313600868FFF756FF00230B609D
:10411000337B43F00803337300220AF00403134394
:104120000AD0012106F10C00FFF785FE2AF00405F4
:1041300049EA000945EA010AD6E9172309EA02001B
:104140000AEA03010C46034623438046894614D0FD
:104150001D4B0246196830464B468847124A4FF0BD
:10416000FF331360114A08F008040025136054EA75
:1041700005031EBF154B00221A60FB070DD514491D
:10418000144A0868136800211160134A0121117054
:104190001BB102B0BDE8F047184702B0BDE8F08798
:1041A000D8200020005008403803002034030020AD
:1041B000E42900200040084600230020F8220020C7
:1041C000186008461860084430030020E8220020E8
:1041D0000C230020082300200423002001001818CD
:1041E000040000002DE9F34BDDE90A67D0E91489EA
:1041F000044689EA070188EA060001EA030C00EA9E
:10420000020B8CEA09018BEA0800C4E9140122F0D0
:10421000010006EA0008002507EA0309194648F0EC
:10422000C05249F00403CDE9005502F031FF2046A9
:10423000FFF7CEFE284602B0BDE8F08B034A0368C4
:10424000002B08BF1346024A13607047B73F0000B7
:1042500030030020014B0020996070477C0F002143
:1042600010B5032810D8DFE800F017021013002261
:1042700011460124204603F0ADF92CB10749086826
:10428000FFF79AFE00230B6010BD00220121F0E72A
:10429000012211461446EDE70022FAE70023002030
:1042A0000F4B5B68C3F30363013B0B2B0DD8DFE8B7
:1042B00003F014140614140C14080A080808032048
:1042C00070470420704705207047064BDB6813F0E9
:1042D000060F14BF0420012070470220704700BF62
:1042E0000040084000500840044BD3F8883013F0D9
:1042F000A00F0CBF01200020704700BF0040084005
:1043000008B5002003F03CF8002008BD0138C0B219
:1043100002289CBF0F4B53F820200F4B4FF06051E9
:10432000196003F1007388BF00221A604FF4001275
:104330001A600A4A136F23F0060343F0040313675D
:10434000074B4FF0805119600423C2F884300020DD
:10435000704700BF6CA600001860084400000840C9
:10436000944008460E4B06221A600E4B0022C3F8FA
:1043700084200D4B4FF080521A60436913F0800F78
:1043800018BF0A490A4B4FF4001214BF0A601A60A2
:104390004FF400121A604FF060521A60002070470C
:1043A0007000084400000840944008441860084623
:1043B00018600844022310B1024A13607047024A91
:1043C000FBE700BF440008464400084438B51446E3
:1043D000426982EA04030B4053400A070D464361D9
:1043E00006D514F0080F14BF264A274A0823136085
:1043F000EB0706D514F0010F14BF224A224A01230D
:10440000136068070CD502F0D3FF14F0040F14BF3B
:104410001E4A1F4A4FF4007313601E4B04221A6099
:10442000A90703D5C4F34000FFF7C4FFEA0606D589
:1044300014F0100F184B14BF00221B22DA642B0655
:104440001AD514F0800F4FF4001317D0134A1360DD
:10445000FDF7ACF9124B5B68C3F30363032B06D182
:10446000104A536823F0F00343F0E00353600A4B13
:1044700001225A62FDF79EF9002038BD0A4A1360F6
:10448000FAE700BF44000846440008441C600846A0
:104490001C60084488400844000008401860084632
:1044A000004008407C0F002118600844022001F001
:1044B0009BBB000013B5012300240022CDE900348A
:1044C00000231046194602F0E3FD022001F020FB14
:1044D000014B1C6002B010BD0823002002292DE909
:1044E000F74380460E461546994603D1FFF7E2FF93
:1044F000002026E0154CFDF759F9226807460AB15D
:10450000AA4221D1124A25600123C2F8009000225C
:10451000CDE9003300231046194602F0B9FD0D4BDA
:1045200000221A70B21A18BF01224146022001F07F
:104530007DFB05463846FDF73DF9002DD8D12560B5
:10454000012003B0BDE8F0830025F3E70823002035
:104550000C23002004230020044BDB6D5B055ABFB5
:10456000034B1878012000F001007047005008400C
:1045700004230020022001F0DBBA026B12B11368A1
:10458000022B02D80C38FBF75FBF536A126AD8B20D
:104590005043C3F30723B0FBF3F070471FB501236B
:1045A0008DF80C0001A8CDE901218DF80D3002F045
:1045B00065F805B05DF804FB10B506480C78036992
:1045C0009AB24B781B0643EA04431343036100206D
:1045D00010BD00BFE4290020054803691A0C0B78C0
:1045E000120413434A7843EA022303610020704710
:1045F000E42900200B4600F13401184601F054B9BB
:1046000008B590F86830032B04D0084600F096FFF8
:10461000002008BD0220FCE770B590F86830032B3D
:1046200005460E4614D02971C16A99B1FFF728FAE0
:1046300048B9E8622846FFF751FB01462846FFF7D4
:104640003DFA002070BD31462846FFF7D9FFF8E754
:104650000220F7E70846F5E708B5084600F05EFFD8
:10466000002008BD00F064BF08B501F0EBFEBDE816
:10467000084001F00BBF08B501F058FEBDE8084046
:1046800001F07EBE08B501F051FEBDE8084001F022
:10469000AFBE00002DE9F0479846C369012B0746DD
:1046A0000E46924648D001F043FD054602F07CF8E4
:1046B0000446FFF7F5FD012803D001210846FFF766
:1046C000BFF9BAF80C30DAF80490F61A280BDAF8C9
:1046D0000830C0EB8040B0FBF4F4E409A34284BF8F
:1046E000B3FBF4F40134B6B283BFB3FBF4F41A1B8A
:1046F00006FB02991C463F2E81BFB2099B0103FBBA
:10470000029906F03F0602F043F8484506D02146DC
:10471000484602F007F990B102200EE002F03EF8A0
:10472000A042F4D1B8F1000FF1D13846FFF750FCA8
:104730000121F0B202F078F90020BDE8F08702F024
:1047400043F818B1024802F08FF9EEE70148FAE7A2
:10475000C0CF6A00E06735004A0108B5202103F0A8
:104760007FFA003018BF012008BD202103F08ABA6B
:1047700008B5084601F042FA024B4042D8600020DA
:1047800008BD00BFE429002070B516460C46FDF7B1
:104790000DF8104B02221A600F4B05465868C0F303
:1047A0000360C21F022A01D90C2803D1D3F8883034
:1047B0009B030CD42046314600F0D8FC0446074B3E
:1047C000022228461A60FCF7F5FF204670BD03243C
:1047D000F5E700BF8840084600400840884008448C
:1047E000CA00082103F03CBA0A024FF4807103F0BA
:1047F00037BA00004FF4807310B9024A1360704753
:10480000014AFBE7884008468840084470B50446E2
:104810001646FFF769FD00284AD02046FFF74EF9FB
:104820000546002842D1244B4FF440621A6016F02E
:10483000020204D1214B22491B789B020B60214BC1
:104840004FF44061196022B91C4B1F4A5B789B02F0
:10485000136002F0ADFD16F0040F14BF1B4A1C4A92
:104860004FF4806313601B4B04221A602046FFF74D
:104870007CFF18B106F00100FFF7BCFF204600F0F6
:10488000DCFA98B12046FFF770FF78B14FF40011C1
:10489000204603F0F7F900280CBF03210421002073
:1048A00000F036FC431C05D00B4B9860284670BDC9
:1048B0000225FBE70325F9E7A0000844EC220020CD
:1048C000A0000846A4000844A40008461C6008464E
:1048D0001C60084488400844E42900202DE9F04F7A
:1048E00085B080461D46FFF791FF0646002877D128
:1048F000574F584BBA691A60574C002D00F09480FE
:1049000095F90310E88801F0CFFCBB692360AB7810
:1049100095F800B06A78002B66D003F1FF395A454C
:104920005FFA89F938BF5A464FF0010AA888039206
:104930002F8801F063F9DFF828C1484B039A84B24D
:104940004FF60401002F68D1DCF8582092B28A4259
:1049500008BF4FF605021A800022B4F5807FD3B25B
:1049600002F1010244D8082B3D4946D1FF23B4F59A
:10497000807F8B653ED14FF48074394B4FF4000239
:104980005A6508229346364B1CB1013CFF2C28BFC8
:10499000FF24DC620023CDE900935946534608F119
:1049A000340001F0D7F91FB92E4B4FF480121A6072
:1049B0002D4BAA681A602D4B20221A60012001F0AD
:1049C000F9F9FCF7F3FE054601F0CCF8264B1C681C
:1049D00074BB01F0D9F802F0B7FC2846FCF7EAFEF8
:1049E000304605B0BDE8F08FB346B146B2469DE70C
:1049F0006408B2E70134A4B2BFE701225BB19A4078
:104A0000B4F5807F8A65B6D080B2013B184100F0D2
:104A100001000444EFE78A65AFE7188888421CBFAD
:104A2000CCF858001980AEE72068FFF7C5FAC2E756
:104A3000042001F07DF810B1042001F069F8012292
:104A40002146042001F0F2F80028C2D10126C4E773
:104A50000070084000230020FC2200203C030020BE
:104A6000005008404C500846F0220020884008467C
:104A7000B3FA83F308461146D3F1190210B50FD4E7
:104A8000062A1346A8BF0623DAB2931D01249C40D0
:104A9000A4B2A14228BF214600F0B8FA204610BDBA
:104AA0000022F2E708461188B1FA81F1D1F119012B
:104AB00010B50BD40629A8BF0621C9B28C1D01234D
:104AC000A340138000F0BEFA002010BD0021F5E7DE
:104AD000094B0121D3F8EC20996203F18063243360
:104AE00052074FF40051196041BF03F10073C833FE
:104AF00004221A60704700BF0010084038B50C4B04
:104B0000D3F8EC5003F18063EC334FF480641C6005
:104B1000084B0020186002F045FD074B4FF400528F
:104B20001A606A0542BF03F1007398331C6038BDF8
:104B300000100840E82200205410084438B58A7854
:104B4000CB789A4205460C462CD14B78BBB9FFF77F
:104B500009FCA378BBB9144B40F6FF725A62E078A7
:104B6000A8B9114B40F6FF725A6503F1C063A3F672
:104B7000BC7360221A600D4B40221A6038BD184683
:104B8000FFF7C4FBE5E72846FFF7A2FFE7E7084B7E
:104B900060221A602846FFF7B1FF064B40221A60D8
:104BA0000020EBE70120E9E70010084088400844B6
:104BB0004400084488400846F8B5294E00F13407FF
:104BC00005463846746801F0BDFA73682B632846C1
:104BD000FFF7D3FC02F0B8F8224B234A1B6829895F
:104BE000C3F381231370214B1B68C3F381235370DC
:104BF0004FF6FF73994204D01D4B1B680BB128463A
:104C000098472E6BA6421CD00EB3316801B1B16833
:104C1000A5F10C00FBF71AFCDEB13468D4B133699E
:104C2000DBB1D3E900619C68384602F0B4F868B99A
:104C300022463146384602F0AAF838B9384602F022
:104C4000A0F82B7843F002032B700020F8BD31460A
:104C5000DEE7344626462146E6E71C46FAE700BF73
:104C6000EC0F0021A0000840EC220020A400084026
:104C7000F42200201FB500238DF802308DF8033098
:104C80008DF804300E2202238DF800008DF801000B
:104C90008DF805208DF806300B218DF808208DF851
:104CA000093040F609628DF80C3068460A238DF809
:104CB0000710ADF80A208DF80D3002F005FC05B0A4
:104CC0005DF804FB00F08ABF48220021014803F090
:104CD00047BA00BFF82900202DE9FF4100254FF019
:104CE0006413C0E91433C0E916354FF6FF7305624B
:104CF00080F86C50C563C56405668382044600F184
:104D00000C07112088460395FCF77AFA04282BD16A
:104D1000384602F0A1FB3846FFF7D6FF134B60225E
:104D20005A6403A93846FFF709FF226A06464FF086
:104D3000FF313846FFF74AFB4FF0C0520423CDE95C
:104D400000551046194602F0A3F94EB92046FFF768
:104D500095F80646B8F1000F02D008B92046C047C2
:104D6000304604B0BDE8F0810226F9E700000840B3
:104D700010B50C46FFF7A8FF94B1A278082A11D805
:104D8000E17808290ED8084B60685861207883F8CC
:104D90005800607883F8590042EA011283F85B20DA
:104DA000002010BD0120FCE7E4290020012A10B5F5
:104DB00012D8032B10D803EB8202084C0123934036
:104DC00094F85A00DBB221B1034384F85A30002032
:104DD00010BD20EA0303F8E70120F9E7E4290020E9
:104DE00070B50C46054600F134060988443001F0E0
:104DF000ACFF6188208005F14C0001F0A6FFA1887E
:104E0000608005F14A0001F0A0FFE188A08005F173
:104E1000480001F09AFF2189E080304601F0A1FFAF
:104E200061892081304601F0A4FF6081304601F0A5
:104E3000A8FF002070BD01F027B8802102F022BF3A
:104E400010B508490446FEF719FF00212046FFF778
:104E500001FA00224FF4C001204602F001FF0020B9
:104E600010BD00BF78A600007FB5531C8DF814104C
:104E700005AA090A8DF81510029202210022CDE937
:104E80000021DBB2114602F007FF07B05DF804FB1A
:104E90007FB5531C8DF8141005AA090A8DF815105A
:104EA000029204210222CDE90021DBB2002201217D
:104EB00002F0F2FE07B05DF804FB1FB5531C02912F
:104EC00000220821CDE900210122DBB2114602F0C7
:104ED000E3FE05B05DF804FB13B5FF224FF6FF714A
:104EE0000446FFF7C1FF68B9FF224FF6FF71204665
:104EF000FFF7CEFF30B9CDE90000FF22694620461A
:104F0000FFF7DBFF02B010BD08B55B0403F4F0133C
:104F100043EA016343F0B00343EA0242024902F06C
:104F20009FFE002008BD00BFB8011F0113B54FF45C
:104F30000011044602F0A6FE50B14AF21803ADF883
:104F40000430022201A92046FFF71EFC02B010BD6A
:104F500005238DF804300122F4E773B50E78054679
:104F60000C4656B93146FFF7F7FB31462846FFF7A6
:104F700037FC31462846FFF737FC237843BB2279BC
:104F80008DF8042033B323798DF8053001A9284624
:104F9000FEF7C6FE0646C0B92378EBB9A2798DF8B4
:104FA0000420DBB1A3798DF8053001A92846FEF76E
:104FB00099FE064648B923783BB161882846FFF739
:104FC000D7FB01212846FFF7C7FB304602B070BD72
:104FD0000422D5E76379D7E70222E0E7E379E2E745
:104FE000084B09494FF48032C3F8E8200A609A6BF5
:104FF000D1B2C2F3072299679A6704229A67002206
:105000009A67704700100840EC10084638B50C4C01
:10501000226060600D46FCF7C9FBD4F8E0305B0706
:1050200058BF04234FF00002E260A56058BFC4F8E7
:10503000E830FCF7BFFB0DB10223A36238BD00BF0F
:1050400000100840044B1860044B40F6FF721960D2
:1050500058605A62704700BF10230020301008408B
:1050600000EB40002DE9F84F040104F18044042ACC
:1050700004F5012406D8013A032A2DD8DFE802F00E
:1050800044413E3B0B78A3614B78A3618B78A361CD
:10509000CB78A3612768D4F80880D4F804A007F07F
:1050A0000707BB1D01279F4007F1FF3909EA0800E8
:1050B000161FA7EB000B5E4501F104054AF0005AEC
:1050C0000CD829465044324603F026F806EB080275
:1050D00049EA07073A40A260BDE8F88F5A462946D8
:1050E000504403F019F805EB0B01A6EB0B025046F8
:1050F00003F012F8EAE70B78A36101310B78A361A2
:1051000001310B78A36101310B78A361BDE8F88F01
:105110003023584310B500F1804404F501242046A3
:10512000236803F007039A1D01239340226AC2F308
:105130000C028A4284BF6268E06803F1FF339BB2CD
:1051400081BF09180B409B1803F1005394BF4FF027
:10515000FF30187810BD3023584300F1804000F52F
:105160000120006AC0F30C0070470000402910B510
:105170000A464FF001030BD8064C0146C4F8B8307C
:105180000320FFF76DFF0423C4F8B830002010BDE2
:105190001846FCE70010084010B5FCF707FB0F4A63
:1051A0000F49104C01239365C2F8883000230B602F
:1051B0004C6003244C620C490C800C490B804FF46A
:1051C000A021C2F8E81002F1C062EC321160084A76
:1051D000BDE810401360FCF7EDBA00BF00100840B6
:1051E0006010084014230020562300205423002080
:1051F000582300200D4B18600D4B03221A800D4BD5
:1052000000221A800C4B1A604FF4005259605A6207
:105210000A4BF0221A6003F10073A0221A60084BB7
:105220000122C3F8B820FFF7B7BF00BF5C230020FE
:1052300056230020542300209010084040000844CA
:10524000001008402DE9F0410446002873D03B4E81
:10525000FCF7ACFA31883A4BDFF8F8C001F03F02B6
:1052600002F03C07022C05461F4453D1DCF80040F5
:1052700024B9FCF79FFA0320BDE8F08124F0010473
:10528000DCF8000020F00100A04247D10023CCF858
:10529000003023886FEA43436FEA5343BC422380C4
:1052A0002CD1284ADFF8B0C01388ACF14008CF18E1
:1052B000043B9BB2211DF81A614528BF4146042BCF
:1052C00080B204D9B1F900E0BEF1000F31DB1380E8
:1052D0002288A1781C4CC2F30C02E26301F00701A2
:1052E00000F07F02194832800429C260436205D170
:1052F000174B1B6803B1984701F008F8124BD3F81D
:10530000E030DB0301D5FFF76BFE2846FCF752FACD
:105310000020B1E7012C08BF3C46B1E7A21AD31A1E
:10532000084A128848BF4033043A9A42B1DC284602
:105330009FE70C46BCE703209EE700BF54230020F4
:10534000142300205623002000100840601008405D
:105350005C23002058230020542300201E481F4BAC
:1053600002881B881E491344033B03F03C032DE9CC
:10537000F0410432CE1892B20280B57819484262E8
:1053800015F0070088B00A4618D1F77817F0810F9A
:105390001FD1154CEE4604F1200820686168F446E0
:1053A000ACE8030008344445E646F6D108A901EB11
:1053B000970717F8200C134405439D70042803D168
:1053C0000A4A53681B03FCD4094B1E6008B0BDE8B1
:1053D000F0810420EFE700BF562300205423002073
:1053E000142300206010084038AA00000040084044
:1053F0005823002010B5054C206828B1C30701D4FC
:10540000FFF720FF0023236010BD00BF58230020BA
:10541000094B4FF480321A60084BC3F8E420D3F8EC
:105420008020C2F30C023C2A05D8D3F8E030DB031D
:1054300001D5FFF7D5BD7047EC10084400100840B7
:10544000431C08D0044AD2F83C311B0C1B0480B228
:105450000343C2F83C3170470040084038B50D4660
:10546000044600F065FEAC4042F2107164114C43FA
:105470006423B0FBF3F0B4FBF0F038BD30B51F4946
:105480000B78032B34D01E4A49881368B1F5E16FBD
:1054900023F47F538CBF5A24C82423F008038CBF05
:1054A00050257825A0429ABF190A01F47F5143F68E
:1054B000C8710B431E2813608CBF124A124A012385
:1054C00013609361114B1B789BB1A84211D9104A0C
:1054D0004DF60173136093610E4BA0428CBF4FF4E5
:1054E00057404FF4504008221860986143F8702CE0
:1054F00030BD094B08221A60FAE700BF6423002080
:10550000E00F002108410846084108444C030020F0
:10551000044108440441084694400844034B1A6877
:1055200002609B8883800020704700BF64230020B6
:10553000014B1878704700BF4D030020F8B50746AF
:10554000C820FFF79BFF484B484D1978032903D12A
:10555000FF272F703846F8BD454B1A68454B012987
:1055600003EA020314D1072F10D8012F08BF022726
:10557000414A042143EA07631160BFB23C4AFFB2CB
:10558000136038462F70FFF779FFE3E70727EFE74F
:1055900043F47F5646F00806002954D1042F95BFE6
:1055A0000C4601240B460423FF1A344BD3F8882100
:1055B000D24302F4FE1242F40052B2FA82F2C2F175
:1055C0001302C2EB4212FFB2D3B2BB4228BF3B462A
:1055D00003EB84070BB1013BDBB21F20B3FBF0F000
:1055E000C2B2C0EB40101B1A254802F1010C1B0689
:1055F0004FF0FF3202FA0CF203F180730078D243CD
:10560000334343EA823340B31E481F4EB2FA82F25C
:1056100002290CBF01463146C2F11F028A5CAFB1BC
:10562000511EC9B2FD2913D8120642F004021749CF
:10563000C1F858214FF480026CB101F1C06101F54D
:1056400084710A609AE700242346ADE7104AEEE72A
:105650004FF07F42EBE70F49F3E7002F0C4A18BFEA
:105660004FF07F42E3E700BF642300204D0300209A
:10567000E00F00213F00C0E05841084400400E40C8
:105680006A230020B083E00FB883E00F0040084099
:105690000400000B0841084408B501F095F80D4AD4
:1056A00068B1D2F8003123F47F115B0803F4FE13D4
:1056B0000B43C2F800314FF00073D36108BDD2F83C
:1056C000183123F47F115B0803F4FE130B43C2F877
:1056D0001831F0E7004008407047000008B501F0BD
:1056E00073F84FF4001330B1044A1360044B4FF0C9
:1056F00000621A6008BD034AF7E700BF0041084492
:105700002040084418410844014B1868704700BF06
:105710006C2300200C4B70B5DD6E9E6EE8B206F077
:105720000F01FFF79BFEC6F303110446C5F30720E4
:10573000FFF794FEC6F303210444C5F30740FFF7C7
:105740008DFE204470BD00BF006008402DE9F04789
:10575000384E394B394A002808BF012030609B6918
:10576000C3F38213062B0F4613705AD0344B1B78A9
:10577000022B4DD1334B1B78002B14BFC825962527
:105780005FFA85FA08215046FFF768FE4FF00309DB
:105790004FF004080824336883420AD045D94444B2
:1057A000E1B25046FFF75AFEB9F101094FEA580835
:1057B000F1D13368224E98421F4B4FEA0542DA6618
:1057C00003F1806303F1680340F6FF7288BF04F1C0
:1057D000FF341A6003F1007322021A60FFF79AFF88
:1057E000B08000F0A5FC05FA04F44FF4FA75164BEE
:1057F0006C4341F66A05B0FBF5F0B4FBF0F40A2007
:10580000444338461C6001F0BFFAB088BDE8F08719
:10581000012B08D00B4B1B78002B14BFF025B425AF
:10582000AEE70025ACE73225AAE738BFA4EB0804B1
:10583000B6E700BF60230020006008404E03002050
:10584000642300206A2300206C230020030103F45A
:10585000F87300F0070018430B01044A03F4F873CF
:1058600001F007011943906051607047E00F00217B
:1058700008B500F099FF092810D8094B01281B5CD6
:1058800005D1084B1B78012B14BF0423442303F0DC
:105890000F011809BDE80840FFF7D8BFFA23F6E763
:1058A00058AA00006423002070B505460E4600F09B
:1058B0002FFC3E4B3E4C0022C3E900229A602A781E
:1058C0003C4B022AD3F8883132D113F4001F3ED169
:1058D0002B682360AB88A3800020FFF72FFE3146A2
:1058E000A888FFF733FF314B22781B68022A23F088
:1058F000804323F0170331D12F4A4FF4EE4111605A
:1059000002F100724FF48A41116043F0804301219B
:1059100043F0200342F8041C244A00201360FFF7E0
:105920000DFE264B03221A60FFF7A2FF002014E0B1
:10593000012A02D113F4400FC9E742B9204A526A42
:10594000D24302F0010203F480031343BFE70323B1
:1059500023701C4BFF221A70012070BD012A1A4EC1
:105960001A4D1B4C1B481C494FF007020ED13260E8
:1059700003262E60226006220260184A0A60184A36
:1059800043F003034FF440411160C5E73260042641
:105990002E6022600522026043F08043C0220A602C
:1059A00043F014030F4A8121EEE700BFE00F00210E
:1059B0006423002000400E4024410844584108441C
:1059C000B081E00F4D03002000410844004108462B
:1059D0000C4108440C41084608410844C1004000FD
:1059E000044108440841084610B50446FFF740FF4B
:1059F000084B094A9B691278C3F382139A4206D076
:105A0000064B21461868FFF7A1FE012010BD0020BB
:105A1000FCE700BF006008404E0300206023002028
:105A20002DE9F04B2B4F2C4B3B6000F081FB4FF4EA
:105A3000FA634FF47A76DFF8B880B0FBF6F56B4383
:105A40004FEA032B4FEA136C1BEB08004FF00009E1
:105A50004FF00003214A4CEB090102F055F9A0F583
:105A600080730446BB6218B92B21FEF729FA012482
:105A700006FB04F200275608B8194FEA05283B46F2
:105A800048F1000102F040F9154B1960154B27064B
:105A900006461860240A25B928462B21FEF710FA7D
:105AA00001254FF47A73A7FB037803FB04886C0885
:105AB00038194FF000032A4648F1000102F024F99A
:105AC000094B1960094B1860024B013E1E63BDE88B
:105AD000F08B00BF005008400011010040420F0051
