:10000000007C0020412800006D2800006D280000C1
:100010006D2800006D2800006D2800006D2800008C
:100020006D2800006D2800006D2800006D2800007C
:100030006D2800006D2800006D2800006D2800006C
:1000400045100000957100006D2800003D6D000016
:1000500001720000A1710000B971000099710000E7
:10006000A5090000410A000049100000AD2400006D
:100070006D2800006D2800006D2800006D2800002C
:100080006D280000650A00006D2800006D28000042
:100090006D2800006D2800006D2800006D2800000C
:1000A0006D2800006D2800006D280000057200001A
:1000B0009D710000590E0000457200006D2800007F
:1000C000515E00006D28000010B5054C237833B94F
:1000D000044B13B10448AFF300800123237010BD1B
:1000E000F80600200000000054B0000008B5034BE3
:1000F0001BB103490348AFF3008008BD00000000B6
:10010000FC06002054B00000154B002B08BF134B19
:100110009D46A3F5803A00218B460F461348144AAA
:10012000121A07F017FB0F4B002B00D098470E4B0D
:10013000002B00D098470020002104000D000D483E
:10014000002802D00C48AFF3008007F0B3FA20007B
:10015000290000F0ABF807F075FA00BF00000800B6
:10016000007C00200000000000000000F8060020D5
:10017000B8290020000000000000000008B502F0CF
:100180008FF801210248BDE8084000F0F1BF00BF30
:1001900000250A00024B034880221A6007F0D8BEEF
:1001A000FCA00046288F000008B50B4B1B7813B14C
:1001B000012B0BD008BD094807F0CAFE08491B22D5
:1001C0004FF6FF70BDE8084003F064B8054807F03B
:1001D000BFFE1B220449F3E73B280020EF8F0000FD
:1001E00060010020F58F00007B01002013B5084C52
:1001F00000F00EFD204600F0EBFC002300934FF4CE
:100200007A72044B2068012100F060FD02B010BD3D
:1002100030080020A901000073B507F039FA154C29
:10022000154D164E8DF807009DF80700431EDBB2F2
:10023000FD2B01D902B070BD01230A28238001D013
:1002400007F016FE01220DF10701284600F068FABA
:10025000002809DD304607F0F3FD094B1B781BB978
:10026000084B186803F0B2F907F012FA8DF807008E
:10027000DAE700BF8C2000201C080020FA8F000065
:100280008E23002038080020054B1870054B1B7882
:10029000014623B1044B0022186803F0A1B970474E
:1002A0003A280020400800203808002083B54B4B36
:1002B000DC6C01A8240E01F06DFD8E2C1CD8484981
:1002C000D1F8B00040F00403C1F8B030454B4FF016
:1002D00050121A601A631A66C3F89020C3F8C0203F
:1002E000C3F8F020C1F8B0003D4AD36A23F07F0381
:1002F00043F02003D36201E08F2CF5D99DF805303F
:10030000394CDFF82C81012B01BF384A136843F0C8
:1003100004031360364B00251D60FFF72FFF0420F8
:1003200001F06AFF4FF4006602F090FB4FF4805733
:1003300003F04EF81A20FFF7A7FF02F0D9FE26605F
:100340002C48276007F004FE2B492C4807F078FD65
:100350002B4B2C481D7007F0FBFD2B482B4B0068E6
:100360002B4D012242F2107103F022F9294807F0C7
:1003700067FD294807F0ECFD284B294929484FF42F
:10038000807200F0C1F92F602E60FFF72FFF264E1C
:100390003746FFF741FF30784FF4805301280CBFF8
:1003A0002B602360B8F8003001339BB2B3F5FA7FBD
:1003B00004D8A8F8003002F0DDFFEAE71B4A1388F2
:1003C000013300219BB2A8F80010138000B13970EE
:1003D000B3F5C87F84BF00231380ECE7B081E00F42
:1003E00000400E4000A000403CA0004464310E409C
:1003F000B40AC6433D8F0000608F0000708F00007C
:100400008E230020928F0000380800209501000004
:100410003CA00046D48F0000D78F000000000020D1
:10042000190700201C0800201807002016070020CC
:10043000140700200020704770470000B0F5007FCF
:1004400038B517D801F0A8F90C4A00234FF401740D
:1004500004FB03F18D18895831B901222A601C462A
:1004600001F09EF9204638BD01330A2BF0D14FF040
:10047000FF34F5E74FF0FF34F4E700BF44080020F5
:10048000431C10B504460FD009280DD801F084F99B
:100490004FF40173054A6343D4580CB104339C18DC
:1004A00001F07EF9204610BD0024FBE7440800203F
:1004B00038B5044601F070F905462046FFF7E0FF25
:1004C00030B14FF40170054A60431358013B13509B
:1004D0002846BDE8384001F063B900BF4408002059
:1004E00038B5044601F058F905462046FFF7C8FF25
:1004F00030B14FF40170054A604313580133135073
:100500002846BDE8384001F04BB900BF4408002040
:100510000A2938B504460D4609D838B101F03CF92E
:100520000023A580236001F03BF9012038BD0020A5
:10053000FCE7F8B50F460446A0B101F02DF9668836
:10054000A5882388AE420ED2334493FBF5F205FB17
:1005500012339BB20233013644F82370668001F0F7
:100560001FF90120F8BD9A1C013344F8227093FB57
:10057000F5F205FB12332380F1E770B50446B0B104
:1005800001F00AF9638883B12288A688911C0132A0
:1005900054F8215092FBF6F1013B06FB1122228018
:1005A000638001F0FDF8284670BD1D46F9E7054659
:1005B000F9E710B5044648B101F0EEF86488B4FAE2
:1005C00084F4640901F0ECF8204610BD0124FBE737
:1005D00073B504460D461646A2B107F02DF8002269
:1005E000026001A9204607F05FFE07F025F80368C6
:1005F000BBB9204607F0A7FD019B1B1B1B1A5842E5
:1006000058410FE007F018F801A90660324620466D
:1006100007F0DAFEED000121A940013930EA0103BB
:10062000E3D0002002B070BD19B90146064807F0BA
:1006300007BC012902D114210448F8E7022902D19C
:10064000034807F085BC704792930000AF93000009
:10065000DD9300002DE9F8430026044605463746A1
:1006600085B92248224DDFF89880DFF8989007F08E
:100670006FFC204807F06CFC0CB12268A2B9012085
:10068000BDE8F88328680028EBD007F05CFD8046C1
:10069000686808B107F057FD4745B8BF474686422E
:1006A000B8BF06461035DBE7A368E3B179424046A0
:1006B00007F0C6FB6268A2B111780F4B002908BF92
:1006C0001A467142484607F0BBFBE16821B10B783E
:1006D00013B10A4807F0B4FB0A2007F0C9FB103435
:1006E000CAE7054AEDE711462846F3E715940000EE
:1006F00091940000329400000A9600008D9400004E
:10070000899400008894000040B139B10160002153
:10071000C0E9021203610171084670470120704769
:100720002DE9F04F16469FB00446002800F01381D3
:10073000002900F010818568E368A818984280F0CD
:100740000E812068284406F0E1FFA26800233244AD
:10075000A26002930093A268AA420BD8009B2BB11F
:100760002068D21AA260C11806F0DBFF02981FB001
:10077000BDE8F08F23685A195B5D04930A2B01D002
:100780000D2B2AD100231370009B9D4213D02369A7
:1007900005932668009B1E44711E334611F8012FF5
:1007A000EAB91A70784909AA304607F0FEFC81467A
:1007B000002840F0CE80049B0A2B05D123790D2B15
:1007C00002D1009B9D4203D0029B01335BB2029396
:1007D0006B1C00939DF8103023710135BBE7082A8C
:1007E00003D19E42DAD2013BD8E71A700133D5E734
:1007F0004BF82A900AF1010ABAF1140F04D1012131
:100800003046FFF711FFD6E709AA5F49002007F03D
:10081000CCFC81467BE0039B012B00F09880023BDF
:100820000693039A019B13444FF001084FF02E0BDF
:100830000793C24518D1069B9A4540F38880BB6850
:100840000AA9504698474FF001083B681BB9059B21
:10085000002B40F08C80B8F1000FACD1B9F1000F43
:10086000A9D000214846CCE7039B08F1FF329A4209
:1008700010DB079B13F8012C2A2A68D1BBF1750FF6
:1008800026D010D8BBF1620F1FD0BBF1730F5ED121
:1008900001220FE0019B03EB080212F8012C2A2A27
:1008A00018BF9346EAE7BBF1760F05D0BBF1770F8F
:1008B0004DD10022042101E0002202210AAB53F8AD
:1008C0002800FFF785FE002841D008F10108B0E7B5
:1008D00000220121F2E71037002F43D0D7F8008023
:1008E000B8F1000FB1D0BB68002BF4D041464846A8
:1008F00007F0F4FB0028EED10DF1780B09AA22498C
:100900004BF8508D07F051FC4FF0010A8146B9F1C8
:10091000000F7FF46DAF7B680193002B8FD01B49D4
:10092000184607F006FC002889D0019807F00BFC58
:100930002A210390019807F0EFFB039B00283FF466
:100940006FAF019A013B134498423FF464AF022118
:1009500056E7059FC0E74FF0FF33029306E76FF0BD
:100960000103FAE7059B002B3FF47BAFB84608492B
:10097000304607F0B3FB00287FF46DAF0598FFF712
:1009800069FE804667E700BF9D940000A1940000C7
:10099000A39400000022114607F016BD0022114664
:1009A00007F082BC2DE9F843174E326EF36E12EA5F
:1009B000030800D5FEE7154CDFF854900127002509
:1009C00018EA070F16D02368B7669BB1A168626862
:1009D0000131A16028469847637B012B0AD148B9B1
:1009E00009EB4513197B1A7F60F3410160F3410263
:1009F00019731A770135082D4FEA470704F11004DF
:100A0000DED1BDE8F88300BF00200E406C1C002042
:100A1000EC1C002070B5094E0446012504B970BDD8
:100A200094FAA4F0B0FA80F005FA00F324EA030483
:100A300056F82030002BF1D09847EFE7EC1D00204E
:100A4000074BD3F82804D3F81C24104020F42A5074
:100A500020F02A004004400CC3F82404FFF7DABF5A
:100A600000A00040074BD3F82804D3F81C24104002
:100A700020F4AA4020F055000004000CC3F8240420
:100A8000FFF7C8BF00A000402DE9F84F284C4FF0F9
:100A9000000A04F1A00580464FF000094FF0010B59
:100AA000237F84F81DA06BB1D4E90023994508BFCA
:100AB0009045104619460AD2B2EB080063EB0901D3
:100AC000C4E900012834AC42EAD1BDE8F88FE37FE5
:100AD00033B92377A369002BF4D084F81DB0F1E774
:100AE000D4E90267B8EB000069EB010132463B46EE
:100AF00006F004FCB01A67EB030123696269002B5E
:100B0000C4E900010BDD1344F32B6361E2D9461CF9
:100B100041F10007F43BC4E900676361DAE7D31AE7
:100B2000F32B6361D6D910F1FF3641F1FF37F1E7BE
:100B3000401E002038B5074C0025637F1BB1A36918
:100B4000216A284698470135042D04F12804F4D180
:100B500038BD00BF401E0020F0B5194E00214FF0F7
:100B6000FF324FF0FF337418257F3DB1D4E90045C3
:100B70009D4208BF94423CBF22462B462831A02903
:100B8000F1D1104900240C705C1C08BFB2F1FF3F8A
:100B90000C4614D000279F420B496FF0640608BF33
:100BA0009642086038BF32460849042502440D6267
:100BB00001234A6523704B6A43F004034B62F0BD86
:100BC000401E0020341E0020301E00200020044063
:100BD00070B5054600F0E7FD0A490023282606FB0C
:100BE0000312947F14B935B9074C07E00133042B85
:100BF000F5D1064C02E0012191772B6000F0D7FD82
:100C0000204670BD401E0020041000F0011000F0CE
:100C1000204B70B51C78002C3AD1012529461E487E
:100C20001D701E4E00F0A4FA03211D4800F0C2FC06
:100C3000032329461B48337100F09AFA304601F02D
:100C400075F81949284601F057F8184B18485A6AA0
:100C500022F4FF6222F007025A6240F2FF721A6227
:100C6000144A9C604FF00051C2F8801111605A6A1A
:100C70002A435A622146A02206F06CFD0E4B1C70DE
:100C80000E4B1C700E4B1C600E4B1C600E4B1C6000
:100C9000002070BD351E002000050A0096010020CE
:100CA00005002200A00914009F010020002004403C
:100CB000401E002000E100E02C1E0020341E002019
:100CC000381E0020E01E0020E41E002003282DE92D
:100CD000F74F0746894693461E4600F2AA8000F069
:100CE00062FD554A282404FB07248046A17F9246D2
:100CF00029B900F05CFD514803B0BDE8F08FBBF1AD
:100D0000000F08D116B10C993846B047404600F0A4
:100D10004EFD0020F0E74A4A4FF4004C4FF47A6051
:100D200000219568A6614FF4FA520023ECFB0B01F9
:100D300006F0E4FAB9F1010F02460B46C4E90223BA
:100D400009D14FF47A7303FB0BFBF42303FB10B3BD
:100D500023617A236361282303FB07A301304FF04B
:100D6000010241F10001C3E900011A770C9A83F8EE
:100D70001F901A62334B1B78002BC7D1324C23686B
:100D800001331EBF236801332360304B01931A786F
:100D9000E2B92F4B2A4E1D600423336200236FF00B
:100DA00064028B4208BF824238BF104628447065F7
:100DB000736A019A43F0040373620123137023687A
:100DC000002BA3D02368013B23609FE72368012BFE
:100DD000F5D1282303FB07A30026DFF86490DFF892
:100DE00070B01E77D9F8242022F00402C9F824201C
:100DF000DBF80000281AFFF747FEFFF79BFE26B935
:100E0000282202FB07A2012010772846FFF7A4FE44
:100E10000F4BD9F808501868D9F85420019BA5EB5E
:100E2000000C121A187801360028C8D09445D9D879
:100E3000C5E7084860E700BF401E0020031000F02F
:100E4000002004402C1E0020381E0020341E0020EC
:100E5000301E0020021000F02DE9F0471E4C00F07B
:100E6000A2FC656AA269154025F0050222626A07A4
:100E7000804622D5194EA768DFF86890DFF868A091
:100E800001223270636A23F004036362D9F8000020
:100E9000381AFFF7F9FDFFF74DFE3846FFF75CFE05
:100EA000D9F80020A768636DB91A9B1A9AF8002038
:100EB0000AB19942E6D800233370EB0706D5064BFA
:100EC00001221A62064A1368013313604046BDE8E6
:100ED000F04700F06CBC00BF002004402C1E002036
:100EE000E01E0020301E0020341E00202E49F0B5E8
:100EF00000220B682D4D104654592CB11E68AC18B9
:100F0000002E3AD1234601200832302AF4D100B114
:100F10000B600968264B0A68002A35D0DA6922F08E
:100F2000FF02DA61D8690A790243DA611A6B42F08A
:100F3000804220491A63204D0B6800221046545904
:100F400024B11E68AC181EBB234601200832302A8B
:100F5000F5D100B10B600968154B0A68FAB1DA697E
:100F600022F47F42DA61DA69097942EA0122DA6120
:100F70001A6B42F000421A63F0BD1E792779B7421E
:100F800084BF23460120BFE71A6B22F08042D0E7DE
:100F90001E792779B7423CBF23460120D6E71A6B5A
:100FA00022F00042E7E700BFEC1E0020F41E002004
:100FB00000300E40F01E0020241F0020074B186A4E
:100FC000C0B26FF00403C00090FBF3F0044B1B6849
:100FD000184400F3070040B2704700BF00300E40D5
:100FE000E81E002010B5144C226B616A0A4010D52F
:100FF000124B1B681A682AB1002119605960FFF76B
:10100000DDFF90474FF00043E362BDE81040FFF77B
:101010006DBF5300F9D50A4B1B681A6832B1002125
:1010200019605960FFF7CAFF01219047024B4FF04A
:101030008042DA62E9E700BF00300E40F01E002077
:10104000EC1E0020FFF7CEBF044BDA68D20604D5B1
:1010500010225A61024B01221A7070470080014031
:10106000541F00200C4B984210D90C4B984210D9B9
:10107000022201230A490B600A49D1F8003123F00A
:10108000807343EA0263C1F80031704700221346BF
:10109000F0E70122FBE700BF0048E8010090D00321
:1010A0004000C84300400E400A490B4B88425A6832
:1010B0000BD90A4988420AD902F040715A6822F0D5
:1010C000407242EA01625A6070470021F6E701214E
:1010D000F4E700BF40787D0100000E40005A620234
:1010E00038B5064C41F67133256C236400F05EFF81
:1010F000FFF7DAFF0DB10023236438BD00000E4076
:10110000044BD3F84421D20703D4D3F84021104232
:10111000FBD1704700400E400C4AD2F89030516A23
:101120000B4B21F0300141F0100110B55162146BEE
:10113000C0F3C31103310F2903EA040328BF0F21B1
:10114000034343EA0173136310BD00BF00400E4028
:1011500000F8FF0F38B5054C41F67133256C236458
:10116000FFF7A2FF0DB10023236438BD00000E403D
:10117000C0F30322013A38B50546092A13D8DFE83F
:1011800002F023131212051619121C20104C002015
:10119000C5F3043508B1FFF7B3FF04F1047405EBA0
:1011A000C404A400216038BD00200A4CF0E70120EF
:1011B000094CEDE71020094CEAE74FF48030084C69
:1011C000E6E70020074CE3E70020074CE0E700BF1C
:1011D000B0400E40C0400E40E0400E40E8400E409F
:1011E000F0400E4050410E4000400E4000F00F0015
:1011F0000138072848D8DFE800F0040F1947232DED
:101200004735244BD3F8943003F00703023B022BFD
:101210003CD8214AD05C70471E4BD3F8803003F095
:101220000703013B032B33D81C4AF3E7194BD3F8D0
:10123000843003F00703013B032B29D8184AE9E760
:10124000144BD3F8883003F00703013B032B1FD85E
:10125000144ADFE70F4B1B6F13F0010F14BF092077
:10126000072070470B4BD3F85C3103F03003202B81
:1012700006D0302B06D0102B0CBF07200120704762
:1012800004207047082070470020704705207047F1
:101290000120704700400E40A8940000AB9400006D
:1012A000AF940000AB94000008B50146FFF79EFF25
:1012B0001B4B994211D01B4B994212D01A4B9942A9
:1012C00004D11A4BD3F8800000F00700013803283E
:1012D00024D8DFE800F00A0E1612144BD3F884006D
:1012E000F2E7124BD3F88800EEE7BDE8084000F0C3
:1012F000CFBEBDE8084000F0D1BEBDE8084000F018
:10130000CABE00F07BFE094BD3F80031C3F3006383
:101310005A1C01239340B0FBF3F008BD0020FCE70A
:1013200003001E000500220002001C0000400E40C9
:1013300000F47810B0F5801F08B577D016D8B0F556
:10134000802F2DD005D868B1B0F5003F33D00020F4
:1013500008BDB0F5402F34D0B0F5602F52D0B0F5B5
:10136000202FF4D1BDE8084000F024BEB0F5E01F06
:101370002FD00AD8B0F5B01F30D0B0F5C01F38D08C
:10138000B0F5A01FE3D1304824E0B0F5081FFAD033
:10139000B0F5401F3DD0B0F5F01FD8D12B4819E073
:1013A00000F008FE2A4BD3F80C31C3F308230133B5
:1013B000B0FBF3F0CCE700F0FDFD254BD3F808318E
:1013C000F3E700F0F7FD224BD3F81431C3F3042305
:1013D000EDE72048BDE80840FFF766BF1D48FFF76E
:1013E00063FF1B4BD3F8202102F00F02012393402F
:1013F000DEE71648FFF758FF154BD3F8282102F017
:101400000302F3E71448FFF7F1FE07280ED009287E
:10141000A7E71248FFF7EAFE072807D0082808D0F8
:10142000042894D1BDE8084000F0FABD0C4B1868C0
:101430008EE700F0BFFD064BD3F80031C3F3042361
:1014400003FB000084E700BF0500220003001E002C
:1014500000400E4002001C0006000E00B8003000E4
:10146000A80100200E4B5A6A12F0300F04D0202938
:1014700013D0302900D011B94FF4400200E0094ADE
:10148000D3F8901032EA0101FAD1520246BFD3F8E4
:10149000A000C0F38020012070474FF40002EFE766
:1014A00000400E40FF03E10702280AD129B1064B94
:1014B0004FF48060C3F8A800596612B10220FFF70C
:1014C000D1BF0120704700BF00400E40F8B504288E
:1014D0004ED8DFE800F00A0311616600802640253F
:1014E0000623072400294ED046E04FF400764FF43F
:1014F000807508230924F5E7002942D02B4C636A44
:1015000013F0300F35D1636ADB0705D5636A23F02A
:10151000300343F010036362042502230324234EA7
:101520003566234E33449B001F68002FFCD0FAB170
:101530003444A4002368002BFCD0022818D1B9B190
:101540001A4E716A11F0010118D001222021FFF713
:10155000ABFFD6F89C70012200210220FFF7B6FFF6
:10156000C7F30A00FFF7D8FD35662368002BFCD0CF
:10157000F8BD0425022303240021D0E7FFF772FF02
:10158000E7E708260223094A1666094A1A44920028
:101590001368002BFCD1EBE70125022600232C4623
:1015A000A0E720261025042305249BE700400E40D9
:1015B0008004F21000F00F00013810B5072842D85F
:1015C000DFE800F00F043D413B5B4166494C0139C7
:1015D000092938D8DFE801F04F383F373746373729
:1015E0003735023903292ED8DFE801F02402181E0E
:1015F0000120032401221146FFF768FFFFF770FD69
:101600003D4B3E485C67FFF793FEFFF72BFD00F074
:10161000F5FC0021BDE81040FFF79CBD3848FFF7FE
:1016200021FD02200446E5E73548FFF71BFD0124B4
:101630000320DFE700200424DCE7324CC7E7324C0C
:10164000C5E70423236010BD012211460020FFF7E7
:101650003DFF0223F6E7012211461046FFF736FF51
:101660000123EFE700F0CAFCFFF7FCFC274B012247
:101670001A600323E6E70023E4E7072904D00929D9
:10168000E1D11D4B012201E01B4B00221A67DAE772
:1016900001390729D7D801A353F821F0EF1600002C
:1016A0004716000047160000E1160000471600002C
:1016B00047160000D3160000BD16000003220E4995
:1016C000D1F85C3123F0300343EA0213C1F85C31F6
:1016D000B9E7012211460420FFF7F8FE0122EEE7E8
:1016E000012211460220FFF7F1FE0222E7E7002265
:1016F000E5E700BF80400E4000400E4000050A00B4
:101700000148E80188400E4084400E400016C8435E
:1017100010B504461120FFF769FD012200210220C7
:10172000FFF7D4FE1A4A217C536A23F001030229F1
:1017300008BF43F001035362164B21781960936A86
:10174000E17A23F007030B439362A188637A43EAAB
:10175000C123D362136BA07A217A03F07F63034322
:10176000E08843EAC02343EAC11303310F2928BFAD
:101770000F2143EA01731363A37B617B1B0143EADF
:101780000133E17B0B43217B43EA0143536310BDEB
:1017900000400E40A004C843EFF3108072B67047BB
:1017A00000B962B67047EFF3108072B67047FFF76A
:1017B000F7BF00001848194BC26C1B88C2F3032204
:1017C0002833013202EB820103EB5303B3FBF1F345
:1017D000C16C013B072B21F0EE6128BF072341F4C8
:1017E000801141EA0363C3640D4BB3F90030002B51
:1017F00010DB2833510801EB420203EB5303B3FB28
:10180000F2F3026D072B28BF072322F0700242EA91
:1018100003130365704700BF00300E40581F0020BF
:101820005A1F0020134B9A6FD207FCD41B6C13F085
:1018300003031EBF104A01211160834203D108B97E
:101840000D4B1860704723B9012802BF0B4B0222D1
:101850001A70084A1146936FDB07FCD4136C23F00F
:101860000303034313648B6FDB07FCD4003018BF02
:101870000120E5E700300E40B40AC6435C1F00209B
:10188000A0F5E163B3F5966F2DE9F04703D9002188
:101890000846BDE8F0875F4C5F4BD4F86851DB6CBD
:1018A000B0F5E16F1FBF4FEA156AC5F307484FF463
:1018B00096694FF4E16701BFC5F3072A5FFA85F81F
:1018C0004FF416794FF49667B0F5E166C3F3017CE7
:1018D00018BF012646EA0C2E40F201139E455BD04C
:1018E000BEF5817F09D2BEF1010F1BD05DD3BEF5DD
:1018F000807F5DD000252B4619E040F201239E45F4
:1019000050D005D8BEF5007FF4D1D4F870310BE08B
:10191000BEF5407F4FD040F201339E45EAD1D4F866
:1019200078313BE0D4F87431C3F30725DBB2C71B31
:10193000AAEB080E07FB0EFEBEFBF9FEC644D64519
:10194000A5D8A5EB030807FB08F7B7FBF9F73B445D
:10195000AB424FF000079AD882B1DFF8BC80D8F8CC
:101960005C5025F4FE4525F00205B0F5E16F45EA2F
:101970000E2518BF02273D43C8F85C50002946D009
:10198000226DD2B2032A19D8B0F5E16FD4F87C21C8
:101990001FD0C2F307221DE0D4F874311D0EC3F32B
:1019A0000743C4E7D4F87831BEE7D4F86C31BBE71D
:1019B000D4F86C31F2E7D4F87031EFE7BCF1020FE4
:1019C000D4F880211ED0BCF1030F1ED0BCF1010F52
:1019D000DFD0D2B2120312F4702F7FF458AF0E4C46
:1019E000E06E20F470400243E266626E22F4FF7201
:1019F000E72B22F0010228BFE723324342EA4303E8
:101A0000636645E7C2F30742E4E7120EE2E701210D
:101A10003EE700BFB081E00F00300E40194B1A6F57
:101A2000D96CC90702F0070214D5012A12D913286C
:101A300023D9143813288CBF102308231148013BE5
:101A4000C26C190322F47F4241EA03231343C364A7
:101A5000FFF7B0BEDB6CD90706D4012A04D80928E9
:101A60000BD90A380928E6E7064BDB6C13F00103B3
:101A7000E4D0012A03D82728DDE70423DEE700238A
:101A8000DCE700BF00300E40054A064B1B68136FB1
:101A900023F007031843044B10671888FFF7BEBFF5
:101AA00000300E408009C643561F0020534B37B507
:101AB00002229A639B6B03F00F039342054603D007
:101AC0000024204603B030BD4D4BD3F86C310133B8
:101AD0001DD04C4B1A68043B1B681A604A4B1A68AD
:101AE000043B1B681A60494B1A68043B1B681A6068
:101AF000474B1A68043B1B681A60464B1A68043B44
:101B00001B681A60444B1A68043B1B681A60E9881A
:101B1000B5F90C004A2965D9B1F5FA7F64D340F6CE
:101B2000C313994294BF4FF000514FF04051334CD2
:101B3000E36C23F0405323F001030028A8BF43F0D7
:101B400001030B43E364E36E43F08073E366334BBE
:101B5000186800B10420FFF797FF236E23F0C043FD
:101B60002366E36C43F0060301A8E36400F012F976
:101B70009DF80500012812D19DF80430022B0ED8E3
:101B800027490B785BB9274A136843F001031360B8
:101B9000236E254A1A40254B134323660870244BB5
:101BA00029891980234BB5F90C201A80224BA8886B
:101BB0001880FFF733FFAB7BCBB1012B1BD0012289
:101BC00011466888FFF75CFE044600283FF478AFB2
:101BD000AB7A1A4A6878003318BF01231360FFF705
:101BE00021FE6EE70021A2E74FF080519FE7034BF3
:101BF000134A9A65E3E7014B124AFAE700300E40B8
:101C0000B081E00F3C80E00F4480E00F4C80E00F9B
:101C10005480E00F5C80E00F6480E00F8009C643D1
:101C20005C1F002044300E40000F0EF0B4C0400B8B
:101C3000581F00205A1F0020561F00209407C6433B
:101C400077402057372110B7F0B54AB130261E4CE7
:101C5000012546438D4034440BB304F1C064256034
:101C60003024444304F18044072904F5204419D862
:101C700065688E000F27B74025EA070502FA06F6C9
:101C80003543656052B9012202FA01F13022504316
:101C90000D4A0244A3B102F1C0621160F0BD04F12B
:101CA0008064DCE701F18045083DA668AD000F27A0
:101CB000AF4026EA070602FA05F53543A560E1E7DD
:101CC00002F18062E9E700BF0CA00040044B41F63E
:101CD00071321A649A6822F001029A60704700BF5C
:101CE00000000E40034B9A6822F001029A60002225
:101CF0001A64704700000E408B784A789B0143EAD3
:101D000082030A781343CA7843EA02130A7943EA42
:101D1000C2234A7943EA02338A79043043EA4243D0
:101D20000001014A135070470020044042780179B5
:101D30000378002A827870B514BF04260026002A92
:101D4000C27814BF10250025002A42794FEA0232DA
:101D500042EA012242EA0302837914BF20240024CC
:101D6000002BC37942EA034343EA0603027A43EABB
:101D7000050314BF4FF4004100212343002A14BF80
:101D80004FF4003200220B431343014A136070BD2D
:101D9000002004400B4A536911699B0003F03C0387
:101DA000C1F381110B438370136903F03F03437048
:101DB0009369D26903F0F003C2F303121343037073
:101DC000704700BFD0FF0FE070B5054616461C46B1
:101DD00019B91448FFF7ACFA0146202C08D001D8F5
:101DE000ECB170BD402C18D0602CFAD1042200E078
:101DF000082206FB02F35A0802EB4112B2FBF3F28F
:101E0000094B203A03EAC2022B6823F060032B60DF
:101E10002B681C432C606A61E3E70622E9E7102285
:101E2000E7E700BF40410500F8FF7F0038B50546F1
:101E3000144619B90548FFF77BFA014601396400D9
:101E4000B1FBF4F10902696138BD00BF40410500F2
:101E5000CB435B0003F00A03C360C160704700001E
:101E600040F6AA63C36041F20502002303604260AA
:101E70000A4A83604361C3648264094A43679042AB
:101E8000836702F58062C36701D0904200D1036589
:101E90009042836508BFC365704700BFF9FF01002A
:101EA0000000014038B505460C46FFF7D9FF8B7C92
:101EB0001BB1036843F080430360E37C1BB1237DC7
:101EC00043F08003AB65228A637B1343E2891343AB
:101ED0006B60D4E90112237B2846FFF775FF637D11
:101EE0001BB12B6843F480332B60A37DE27D1B077D
:101EF000120502F4E00203F0E04313432B666B6F1C
:101F000023F030036B676A6F237E13436B6723787C
:101F1000EB6038BD38B50C460546FFF7A1FF0A8ACD
:101F2000897B0368002942F0010214BF4FF48061ED
:101F3000002113430B43227D03600368002A14BF72
:101F40004FF00052002213430360A37C1BB1E37CDB
:101F500043F080038365237B43F480536B60D4E9B3
:101F600001122846FFF762FF637B0BB11023EB6081
:101F7000637D1BB12B6843F480332B60A37DE27D2E
:101F80001B07120503F0E04302F4E00213432B6643
:101F90002378EB6038BD03691B06FCD5C069C0B26D
:101FA000704703695B06FCD5416370470048704782
:101FB00000F049020D4AD2F8943003F00703032BD6
:101FC00011D0042B03D0022B0BD1094B00E0094B9D
:101FD0001868D2F80031C3F304230133B0FBF3F0E7
:101FE0007047054BF4E74FF40040F2E700400E4025
:101FF000B0010020B8010020B401002008B5FFF7AF
:10200000D9FF054BD3F80831C3F308230133B0FBE4
:10201000F3F0024B186008BD00400E40AC010020F8
:10202000014B1868704700BFB0010020054B1860D5
:10203000054BD3F8943003F00703022B01D1FFF7CF
:10204000DDBF7047B001002000400E400D4AD2F8BD
:10205000883043F47003C2F888300B4B5A6D42F459
:1020600000525A651A6C22F003021A64074A136878
:1020700023F00103136052F8143C23F0805342F81C
:10208000143C704700ED00E000300E4074300E400C
:102090004FF4004070474FF47A707047014B186856
:1020A000704700BFB80100207FB5094B6A4603F1B5
:1020B0001006154618685968144603C40833B3421D
:1020C0002246F7D12846FFF7F1FC04B070BD00BFEF
:1020D000B494000070B51A4B86B001AA03F1100643
:1020E000154618685968144603C40833B34222469B
:1020F000F7D11B88238028464FF096130293FFF7F1
:1021000007FB1048FFF792FF012211460220FFF75C
:10211000DDF904211120FFF74DFA002211460320BA
:10212000FFF7D4F903210848FFF744FA03210748D1
:10213000FFF740FA03210648FFF73CFA06B070BDEE
:10214000C494000000F0490202001C0003001E00BD
:102150000500220013B51C4BDC6C01A8240EFFF710
:1021600019FE8E2C1CD81949D1F8B00040F0040398
:10217000C1F8B030164B4FF050121A601A631A664D
:10218000C3F89020C3F8C020C3F8F020C1F8B00015
:102190000E4AD36A23F07F0343F02003D36201E0A9
:1021A0008F2CF5D99DF80530012B01BF094A136822
:1021B00043F004031360084B00221A60FFF774FF1A
:1021C000FFF788FF02B010BDB081E00F00400E4065
:1021D00000A0004064310E40B40AC64308B5012196
:1021E0000448FEF7C5FF00F009F8BDE8084000F01C
:1021F00085B900BF00250A000020704708B50121FD
:102200000D48FEF7B5FF01210C48FEF7B1FF04228F
:10221000114600230520FFF717FD0521084600237E
:102220000422FFF711FD0023042206210520FFF7F9
:102230000BFD002008BD00BF4041050000250A003D
:1022400002280DD8084B03EBC00213F83030516858
:1022500001228A4030215943044B00205A507047D4
:102260004FF0FF30704700BFD89400000CA000442E
:1022700002280DD8084B03EBC00213F83030516828
:1022800001228A4030215943044B00205A507047A4
:102290004FF0FF30704700BFD89400000CA00046FC
:1022A00008B500F013F808BD82B000EB4000002133
:1022B000CDE90001DDE9002312F1FF3043F1FF31E8
:1022C0001343CDE90001F5D102B07047F0B58BB0F2
:1022D000FFF740FFFFF782FF14220DEB0200002101
:1022E00005F038FA434B06930125022617220523F1
:1022F00005A94FF0FF308DF814608DF81C208DF883
:102300001D308DF822208DF823308DF8245001F0F7
:10231000C5FB394B0FCB01AC84E80F00204600F021
:10232000B1F9364B3648D3F8903003F48073002B64
:102330000CBF2F460027294614BF34460324FEF75E
:1023400017FF2A4629463846FFF7C0F821462D4890
:102350002D4FFFF72FF921462C48FFF72BF9214687
:102360002B482C4CFFF726F929462B48FEF700FF97
:1023700029462A48FEF7FCFE20462949FFF7CAFDF8
:102380000B23636703F10B23A3673046002304226A
:102390000621FFF759FC3246304600230721FFF79C
:1023A00053FC3046002304220821FFF74DFC042291
:1023B0002B4611460020FFF747FC102542F2107013
:1023C000FFF772FF174E3D60AB212046FFF7E9FD96
:1023D0002046FFF7E0FD35601E20FFF765FFB921BD
:1023E00020463D60FFF7DDFD2046FFF7D4FD356058
:1023F0000BB0F0BD006A1800F094000000400E40E1
:1024000000050A0002001C000CA0004403001E008E
:102410000500220000040140404105000032040094
:10242000A09500000CA0004600207047FEE74FF486
:1024300000534B6000207047012070470120704717
:102440004FF0FF30704700207047F8B50E468F18E8
:102450000D46BD42A5EB060405D1002C08BF4FF088
:10246000FF342046F8BD00F0ADF8431CF5D005F868
:10247000010BEEE7044B1968024609B903491960DC
:10248000186802441A607047601F0020B8290020B5
:1024900070B50E4615460C46A31B9D4201DC28462E
:1024A00070BD14F8010B00F0BFF8F5E70F480369A1
:1024B0001B0670B514D50E4D2B68072B11DC0D4C87
:1024C0002668FFF768FD0C4B98552368013323609D
:1024D0002B6801332B602368082B01D10023236074
:1024E00070BDC36C23F00403C364F9E7000001402E
:1024F000701F0020781F0020661F002030B50121CA
:1025000089B02848284DFEF733FE01212748FEF701
:102510002FFE0123194604220020FFF795FB00231C
:10252000012219461846FFF78FFB0FCD01AC0FC4EF
:1025300095E8070084E8070001211D481D4CFEF7BF
:1025400017FE08A9002501F81C5D2046FFF7AAFC2C
:1025500003236367A26F22F4F85222F01F0242F4B1
:102560008F7242F001020423A267A364124B4FF45E
:102570000061C3F88011E26C42F00402E26420467C
:1025800019600521FFF764FC0C4B186802222B46EA
:102590002946806805F0F4FC094B01221A7009B045
:1025A00030BD00BF40410500B895000000250A007D
:1025B000002204000000014000E100E01C030020B4
:1025C000651F0020134B1B7810B50BB9FFF796FF62
:1025D000FFF7E9F8104B1A68002A18DD0F4A104C73
:1025E0001168645C1168013111601168082904BF29
:1025F000002111601A68013A1A600A4AD36C43F04C
:102600000403E4B2D364FFF7D2F8204610BD4FF0C4
:10261000FF34F8E7651F0020701F0020741F0020A2
:10262000661F00200000014038B50E4B1B780446A1
:102630000BB9FFF763FF0C4D2A782AB10A2C03D19E
:102640000D210A48FFF7ADFC21460848FFF7A9FC19
:102650002B782BB10D2C03D10A210448FFF7A1FCE4
:10266000204638BD651F0020641F00200000014087
:1026700010B9024B18687047014BFBE7801F002020
:10268000881F0020064B027B1A70064B02681A60F6
:10269000054B42681A60054B82681A60002070473B
:1026A0007C1F0020801F0020881F0020841F002026
:1026B00047F6FF739A4270B50D46144658D02D4B1D
:1026C0001B682BB12C4B1B6813B12C4B1B6813B927
:1026D0002A2101F0CBF92846FFF7CAFF012D0ED1C0
:1026E000264B1968062331F91320A24218B202DCE6
:1026F0000130C0B270BD013BF5D11846F8E7B0F922
:102700000010A14203DB1E49A142B8BF2146282286
:10271000A1F1C80393FBF2F31A4A446815785B42AF
:102720001BB29D42DCBF05F1FF331BB24FF47A763A
:1027300004EBC3020133508852681BB211FB002026
:1027400020EAE0709D4200F5FA70B0FBF6F203DD7E
:1027500034F833009042EBD203F10053013B34F8DC
:102760003300904228BF1046002808BF0120C0E770
:10277000FF20BFE7801F0020881F0020841F00204B
:10278000C880FFFF7C1F0020284B1B6870B50D46DA
:1027900014462BB1264B1B6813B1264B1B6813B98B
:1027A0002A2101F063F9012D0BD1072C05D82CB992
:1027B000204B1B6833F9140070BD0724601EC4B29F
:1027C000F6E78CB32846FFF753FF012C02D8B0F987
:1027D0000200F1E7002D14BFF823FC239C4202DB2A
:1027E000B0F90000E8E7144B426819780139C9B222
:1027F0000023A5B2D8B281424FEAC30004D916180B
:1028000001333689AE42F5D213184FF47A705A6804
:10281000B3F902106043801A022291FBF2F21044D5
:1028200090FBF1F000B2C7E70448C5E7801F002025
:10283000881F0020841F00207C1F00200CFEFFFF4B
:10284000064880470649074A074B9A42BEBF51F8DF
:10285000040B42F8040BF8E7FDF756FC4D2000008E
:1028600060B0000000000020F8060020FEE700BF76
:102870002DE9F04F85B0CDE90123002480460E46B6
:102880008A4627464FF07B0B96B90199404805F0E0
:10289000B1FD002C79DA61423E4805F0D1FA029B85
:1028A00013B13D4805F054FB204605B0BDE8F08F5C
:1028B0002C21504605F030FC064690B3A0EB0A09E7
:1028C000334BC7F5807209F103018A4203EB070518
:1028D00055D32A465346002419460134B9F1000F56
:1028E00004D008780A2803F101031FD082F800B051
:1028F00028194A4604F00AFF04EB09035C1C4FF058
:102900007D0905F8039000232B553A21284605F050
:1029100003FC824678B9B8F1000F1FD16FF00B04A9
:10292000B3E7504605F00FFC8146C9E702F8010BFA
:1029300009F1FF39D0E7431C3A211846039305F00B
:10294000EBFBF8B9B8F1010F039B0DD1AAEB05021F
:10295000A41A22461946681C04F0E3FE002C94DBFE
:10296000274406F1010A8FE7B8F1020F01BFAAEB75
:1029700005048AF800908AF801000134EEE76FF050
:102980000A0482E76FF00C047FE7002487E700BFAA
:102990008C1F0020EB9500000596000010B5044642
:1029A0007B2005F065FA1CB12146024805F048FA83
:1029B000012010BD009600000EB433B505AB53F8EE
:1029C000045B0193FFF7EAFF044630B90024204678
:1029D00002B0BDE8304003B070470123019A294698
:1029E0000020FFF745FF0028F1D0EFE70CB473B5E6
:1029F00006AB044653F8046B01937B200D4605F0AB
:102A000037FA1CB121460D4805F01AFA0C4805F0BA
:102A100017FA0199304605F0EDFC7D2005F028FA03
:102A20002946084805F00CFA074805F091FA0120FC
:102A300002B0BDE8704002B0704700BF00960000D1
:102A4000D4950000DC950000059600004FF07E63F1
:102A50004FF6FF729B882F482DE9F0479342DFF82D
:102A6000ECA0DFF8EC902C4D2C4CDFF8E8802C4FDC
:102A70002C4E08BF0023AAF800302B4B14221A80DA
:102A80004FF07E631B7AFF2B08BF032389F80030C9
:102A900028232B70102323704FF07E63DA7AFF2AED
:102AA00008BF032288F800205B7AFF2B08BF282389
:102AB0003B704FF07E639B7AFF2B08BF002333707F
:102AC00005F046FA4FF07E631848196805F0B8F92A
:102AD000BAF80010164805F0B3F999F80010154837
:102AE00005F0AEF92978144805F0AAF921781348C1
:102AF00005F0A6F998F80010114805F0A1F9397809
:102B0000104805F09DF931780F48BDE8F04705F011
:102B100097B900BF07960000362800203A28002009
:102B20003128002037280020382800200B9600008C
:102B300024960000389600004F960000689600002A
:102B40008196000099960000B2960000342800207B
:102B5000322800203028002010B54FF07E64ADF5FB
:102B6000007D23680093184B1B88ADF80430174B89
:102B70001B788DF80630164B1B788DF80730154BF7
:102B80001B788DF80830144B1B788DF80930134BE7
:102B90001B788DF80A30124B1B788DF80B30FFF73D
:102BA00095F8204606F0BCF980226946204606F0DA
:102BB000B3F910B10B4805F043F9FFF793F84FF65E
:102BC000FF700DF5007D10BD342800203628002050
:102BD0003A28002032280020312800203728002001
:102BE00030280020CB960000BFF34F8F0549064BDD
:102BF000CA6802F4E0621343CB60BFF34F8F00BF9B
:102C0000FDE700BF00ED00E00400FA050B46034AB3
:102C1000034912881868FFF7CFBE00BF3428002090
:102C20001B97000010B548680C46FDF7B3FE031E65
:102C300006DA2068064A1121BDE81040FFF7D6BE2B
:102C400000F02AFC21460120BDE81040FFF7DEBF5E
:102C5000829700000B4B10B518680C4600F036FE4A
:102C6000C30706D52068084A1221BDE81040FFF7C7
:102C7000BDBE064B20681A780549BDE81040FFF735
:102C80009BBE00BF38080020E69600003A280020CE
:102C90001097000070B548680C46FDF77BFE0C4BA2
:102CA000054681B2186800F0CBFC38B12B4620688D
:102CB000084A1121BDE87040FFF798BE284600F091
:102CC000F5FB21460120BDE87040FFF7C3BF00BF00
:102CD00038080020539700000B4B10B518680C46BD
:102CE00000F0F4FDC30706D52068084A1221BDE8AC
:102CF0001040FFF77BBE064B20681A780549BDE8F7
:102D00001040FFF759BE00BF3C080020E1960000CC
:102D1000372800200B97000070B548680C46FDF777
:102D200039FE0C4B054681B2186800F089FC38B1B9
:102D30002B462068084A1121BDE87040FFF756BEB7
:102D4000284600F0C9FB21460120BDE87040FFF78E
:102D5000C3BF00BF3C0800206897000070B5084C56
:102D60000D68206800F001FE0646206800F025FE90
:102D70003246034603492846BDE87040FFF71CBEB3
:102D800038080020259700002DE9F0411A4C4F68C3
:102D900026680D465EB938460C68FDF7FBFD174AFC
:102DA000034611212046BDE8F041FFF71FBE02286F
:102DB0001ADD1349A86805F0BCF9A8B93846FDF733
:102DC000E9FDC1B2304600F0CDFD206800F0CDFD38
:102DD0000646206800F0F1FD32460346094928689E
:102DE000BDE8F041FFF7E8BD3846FDF7D7FD01B279
:102DF000304600F0CEFDE8E7380800209797000045
:102E0000C99700002597000070B5084C0D68206830
:102E100000F0ABFD0646206800F0CFFD32460346C9
:102E200003492846BDE87040FFF7C6BD3C080020B6
:102E3000259700002DE9F0411C4C4F6826680D468F
:102E40005EB938460C68FDF7A5FD194A0346112105
:102E50002046BDE8F041FFF7C9BD02281DDD154938
:102E6000A86805F066F9C0B93846FDF793FDC1B210
:102E7000304600F077FD206800F077FD06462068B8
:102E800000F09BFD044600F03DFB234632462868D7
:102E90000949BDE8F041FFF78FBD3846FDF77EFDDB
:102EA00001B2304600F075FDE5E700BF3C080020A8
:102EB000CD970000C9970000259700000B46034AF4
:102EC000034912781868FFF777BD00BF3228002049
:102ED0000598000038B548680D46FDF75BFD0928E8
:102EE000044602DCC0B200F017FB22462868024903
:102EF000BDE83840FFF760BD019800000B46034A6B
:102F0000034912781868FFF757BD00BF302800202A
:102F10002698000038B548680D46FDF73BFD0928A6
:102F2000044602DCC0B200F001FB224628680249D8
:102F3000BDE83840FFF740BD22980000014B002259
:102F40001A7070473B280020014B01221A7070470D
:102F50003B280020014B02221A7070473B280020BA
:102F600038B548680C46FDF715FD064B05460222AC
:102F70001A7000F0E5FA2A4620680349BDE8384097
:102F8000FFF71ABD8E2300203C970000014804F093
:102F9000DFBF00BF0299000070B51B4B06461878D2
:102FA0000130FDF74BFA0446FDF76AFAB8B1204646
:102FB000FDF796FA21461548154DFDF7BAFA154B5F
:102FC0002A781B789A420FD21348144B00680122CA
:102FD00044F6206100F0ECFA2B7801332B70204688
:102FE000BDE87040FDF764BA0D4B1B78022BF6D19B
:102FF0000C4B19680C4B4FF47A7041430122304658
:1030000000F0D6FAEBE700BF3C280020BC280020E7
:103010008F200020302800203C080020992F00003D
:103020008E230020E80200204D32000038B5154BF9
:1030300018780130FDF702FA0446FDF721FAD8B1FD
:103040002046FDF74DFA21460F48104DFDF771FA65
:103050000F4B2A781B78013B9A420DDA0D4B1988E9
:103060000D4B4FF47A7041430C480122006800F088
:103070009FFA2B7801332B702046BDE83840FDF7CE
:1030800017BA00BF3C280020BC2800208E2000205A
:1030900032280020382800202D3000003808002079
:1030A000F8B51646002302F00802134302D00D487B
:1030B00004F04EFF06F400220023134305D0002045
:1030C000FFF7D6F8084B00221A7006F000740025AE
:1030D00054EA050304D00548BDE8F84004F038BFC1
:1030E000F8BD00BFC498000034080020E898000034
:1030F00008B50A210848FDF70BFA00B9FEE70A21D6
:103100000648FDF705FA00B9FEE70A210448FDF775
:10311000FFF900B9FEE708BDBC2800201C290020EB
:10312000EC2800202DE9F74F174683468A463B4896
:103130003B4E114604F084FE07F10E090020FFF714
:103140007FF80022484632700192FDF777F98046F9
:10315000FDF796F90446002849D0412343706FF0EB
:10316000770383701223C3714FF0FF3303722D4B2B
:103170002D491D680988818101351D601968019AF2
:10318000C0F80350B1F1807F28BF1A6007F10D032A
:103190004272A0F80AB03A4600F80E3B514604F0DD
:1031A000B5FA2246002312F8011B4B40111B89453A
:1031B000F9DC45EA03654A462146C4F803501B483A
:1031C00004F0A4FA4046FDF78BF941461848FDF794
:1031D000B0F9184B1B7883B11748184B00680122CF
:1031E00044F6206100F0E4F933780133337040464F
:1031F00003B0BDE8F04FFDF75BB9114B1B78022B14
:10320000F5D1104B1968104B4FF47A7041430A48BE
:103210000122006800F0CCF9E9E700BF3F99000007
:103220008F20002090200020342800203C280020FF
:10323000BC280020302800203C080020992F0000E6
:103240008E230020E80200204D32000010B50E4B06
:103250000E481C680323B4FBF3F303EB4303E41AA7
:1032600096B0214604F0ECFD5122094901A804F072
:103270004DFA1B2201AB02FB04314FF6FF70FFF742
:1032800051FF16B010BD00BF90200020259900000E
:10329000449800002DE9F84F92462C4B2C4D0AF132
:1032A0000C07012281464FF0000B384688461A7001
:1032B00085F800B0FDF7C2F80646FDF7E1F80446D0
:1032C00000283ED0412343706FF07703837075234D
:1032D0000371242343711F4B1F4A186812882281EF
:1032E00001301860E0701A68A4F80690B2F1807F8F
:1032F000204628BFC3F800B00AF10B0300F80A3BD0
:103300005246414604F002FA3A462146134804F078
:10331000FDF93046FDF7E4F831461148FDF709F9AB
:10332000104B1B786BB1104B1988104B4FF47A700F
:1033300041430F480122006800F03AF92B7801332D
:103340002B703046BDE8F84FFDF7B2B834080020C6
:103350008E20002090200020342800203C280020CF
:10336000BC28002032280020382800202D30000002
:103370003808002073B51248FDF71BF90446E0B980
:103380000F48FDF7FAF80646FDF77AF8014670B1E6
:1033900003780C4D01331A46286800F049FB0A4BAC
:1033A000286819780094094B224600F016F9304637
:1033B00002B0BDE87040FDF77BB802B070BD00BF41
:1033C000BC280020380800203A2800209C980000E3
:1033D0001FB52448244C04F0BBFD2449244800F0C8
:1033E000D7F8206000B9FEE74FF0011100F015FB9F
:1033F000206800F0BBFB30B11E4B1F4A40F29131F8
:103400001E4804F0FBF81E49206800F07DFB20B147
:103410001C4B194A40F29231F2E71B4B186802909C
:103420009B882068ADF80C3002A900F0A1FA20B109
:10343000164B114A40F2A931E2E7FC21206800F066
:1034400091FA134A20680023CDE900234FF0FF32A0
:103450004FF0FF3300F076FA0E49206800F0E5FAED
:1034600004B010BD6A990000380800208D2F0000BC
:10347000BC0100208E9900005A990000D5990000E7
:10348000A8980000E899000096980000369A00007D
:103490000A001802389A0000034B80B218804FF0DF
:1034A0007E639880FFF758BB3428002010B54FF09A
:1034B0007E63074CC0B22070D871FFF74DFB054BFF
:1034C000217818680022BDE8104000F089B800BFDC
:1034D0003A2800203808002010B54FF07E63074CD2
:1034E000C0B220709872FFF737FB054B217818683F
:1034F0000022BDE8104000F073B800BF372800205C
:103500003C080020034BC0B218704FF07E63587225
:10351000FFF722BB31280020034B18704FF07E6369
:103520001872FFF719BB00BF32280020034B187038
:103530004FF07E63D872FFF70FBB00BF302800202A
:10354000054B4FF47A71186041430448044B0068FE
:10355000012200F02DB800BFE8020020380800204A
:103560004D32000002207047002070470120704754
:1035700000207047034B1868034B002808BF18460B
:10358000704700BF982000203C9A00000020704740
:1035900038B5064B04460D46186000F037F829464A
:1035A0002046BDE8384000F028B800BF9420002035
:1035B00070B506460D4611461A46FFF7DBFF046854
:1035C00033462846A446BDE87040604710B5FFF773
:1035D000D1FFBDE81040836818470C3000F03ABFB7
:1035E0000C3000F0B2B97047431E012B03D9031F02
:1035F0005842584170470120704710B5044601F009
:10360000FDF800280CBF2046002010BD10B5044670
:1036100000F0F4FB034A236B002B08BF1346024A59
:10362000136010BDE7350000EC02002010B50C4619
:1036300000F0F6FB1CB100F013FC0128FBD110BD1B
:10364000406B70B5C468002318259C4201D101204D
:1036500070BD826805FB0322D6898E4202D8128A89
:103660008A4201D20133F0E70020F1E773B50D4B38
:103670000E4669461D68044600F0C0FDB6F91220EA
:1036800047F6FF739A420BD09DF800102479284624
:10369000FFF70EF8A04234BF0020012002B070BD39
:1036A0000120FBE7942000202DE9F04F6B4F8BB0F9
:1036B0003B680393D0E90A9643880193039B002556
:1036C000B3428DF81E50044688468DF81F5003D132
:1036D00013B1019B994252D0B9F1000F00F0BA80AA
:1036E000D9F80820002A00F0B580D9F80C20002A6B
:1036F00000F0B0805A4A0492136802934FF0000A17
:1037000018224FF0010BD9F80C10514515D9D9F8F2
:10371000085002FB0A55E989414535D8298A4145B7
:1037200032D32946204605928DF81FB0FFF79EFF41
:10373000059A40B38DF81EB02E4608A9204600F029
:103740005DFD204600F060FD9DF81E20A4F10C0BED
:103750008246E2B12179204600F024FD049B1A68DC
:10376000002A5CD04A4533D1396889B3B1422FD1A0
:10377000019B984518D1E662A4F8028000252846EE
:103780000BB0BDE8F08F2E460AF1010ABBE79DF8A9
:103790001F20002A60D09DF82010B6F9122058464C
:1037A000FEF786FF0146D6E7002332464146204613
:1037B00000F02CFD05460028DDD05146204600F0E3
:1037C000F1FC00233A680199204600F01FFDD6E77E
:1037D000116821B3D9F80000884220D151682046F1
:1037E00000F0A6FF0546E8B93168204600F0A0FFCA
:1037F0000546B8B9049BE662C3F80090A4F80280BD
:1038000001233246414620463E6000F0FFFC05465B
:1038100040B9144B31461B6858469847AFE7D9F872
:103820000010DCE7049B1A46029B1360039B3B607D
:10383000029B1BB11968204600F07AFF51462046D2
:1038400000F0B0FC3B68002B99D01968204600F0CE
:103850006FFFB6E7032592E7012590E7A02000203F
:103860009C200020EC020020F8B50F1C18BF012797
:1038700006460D4638461F21002400F001F938465F
:103880001F21B562F46200F0FBF8E86823464FF6AA
:10389000FF711827DAB2824209D30C46094B002285
:1038A000214630461A60FFF7FFFE2046F8BDAC689F
:1038B00007FB0242D4898C4202D2002CEED0214672
:1038C0000133E7E79C20002040887047806A7047FA
:1038D00038B50A78054610460C46FFF785FE88B1D4
:1038E00049780846FFF780FE60B10A43520709D4C1
:1038F00000F0B6FA430707D421462846BDE8384011
:1039000000F02CBC012038BD0220FCE738B505468C
:1039100008780C46FFF768FE80B14A781046FFF73A
:1039200063FE58B1042A09D000F09AFA830707D43D
:1039300021462846BDE8384000F020BC012038BDB3
:103940000220FCE70C3000F02DBA38B504460D46D5
:10395000FFF7AAFE28B929462046BDE8384000F006
:10396000AFBA38BD0C3000F029BC0C3000F04CBCB4
:1039700038B500F10C040D462046002100F01EFC75
:1039800029462046BDE8384000F006BC0C3000F067
:1039900035BC73B504460E46694600F10C05FFF7C9
:1039A000F5FF32469DF800102046FEF781FE0146E5
:1039B000284600F003FC02B070BD37B500F10C05DD
:1039C00069460446FFF7E2FF284600F01DFC9DF81B
:1039D000001002462046FEF7D7FE03B030BD38B5D2
:1039E00004460D46FDF7D8FE00232561E360BDE8DF
:1039F0003840FDF7D5BE38B505460C46FDF7CCFE80
:103A00002969EB680C402343EB60FDF7C9FE0020F9
:103A10000CB9002138BD0421FCE708B501F0011103
:103A20000C30FFF7DCFF002008BD0C3000F042BE78
:103A30000C3000F0D9BD0C3000F0F0BD07B502AA83
:103A40004FF4007322F8023D0749FFF7F4FFBDF879
:103A50000630B3F5007F05D1022808BF002003B06F
:103A60005DF804FB0120FAE7A4200020024B196056
:103A7000024B1860FEE700BFF0020020F4020020B5
:103A800008B528B9034B1960034B1868FFF7EEFF20
:103A900008BD00BFF002002094200020084600F07E
:103AA0005CBF2DE9F0438BB006460D46182200217D
:103AB00004A803F04FFE4FF0FF33CDE90133039329
:103AC00005B901AD002405F10608204605F10C09F1
:103AD000A0B9E7B23A4635F81410304600F056FF68
:103AE00060B93A4638F81410304600F063FF28B940
:103AF0003A4609EBC401304600F071FF0134032C53
:103B0000E6D10BB0BDE8F0837FB500F10C050E46A1
:103B10000B7E4A7E897E284600F088FF06F10C0263
:103B200007CA01AB83E807001946284600F0EAFE01
:103B3000311D284600F0A3FF044670B9284600F066
:103B400087FF044648B90849284600F0A3FE04460A
:103B500018B9284600F052FF044631682846FFF79E
:103B6000A0FF204604B070BD649A00000C3000F045
:103B7000F9BE704738B1044B6FF0FF021A6003F1D1
:103B80000073104018607047187008440378990754
:103B90002DE9304804461AD5C26AC2B16FF3410319
:103BA000037053691B685A1C04D01846BDE830489E
:103BB00001F0D8B9D0E914234FF0000B03F0040C46
:103BC0005BEA0C0305D1037843F002030370BDE800
:103BD00030884FF48031FFF70EFFD4E9142302EA56
:103BE000000B03EA010C5BEA0C03F0D004495A46CF
:103BF000A4F10C0009686346BDE83048084700BFDF
:103C0000F8020020000000002DE9F34781468A46B3
:103C100062A1D1E90001524B17461E6800EA090271
:103C200001EA0A03134367D009F40020002150EA97
:103C300001024C4B18BF4C4AD3F8903018BF1360A8
:103C400009F48010002150EA01021CBF474A1360AA
:103C500009F080520023134309D0454B1B6903F040
:103C60007F43B3F1007F02BF424B02221A6009F08A
:103C7000C0520023134305D03F490868FFF77AFF7D
:103C800000230B6009F001020023134324D04FF0FE
:103C900000080022002300210120CDE9008802F065
:103CA0005FFD012002F060F8414670820120FFF7BD
:103CB000BDFC336A314913F0800F14BF304A314ADA
:103CC0004FF4001313600868FFF754FF00230B60E4
:103CD000337B43F00803337300220AF004031343D9
:103CE0000AD0012106F10C00FFF785FE2AF0040539
:103CF00049EA000945EA010AD6E9172309EA020060
:103D00000AEA03010C46034623438046894614D041
:103D10001D4B0246196830464B468847124A4FF001
:103D2000FF331360114A08F008040025136054EAB9
:103D300005031EBF154B00221A60FB070DD5144961
:103D4000144A0868136800211160134A0121117098
:103D50001BB102B0BDE8F047184702B0BDE8F087DC
:103D6000942000200050084000030020FC020020A6
:103D70005029002000400846BC220020B422002028
:103D80001860084618600844F8020020A4220020A9
:103D9000C8220020C4220020C022002001001818E0
:103DA000040000002DE9F34BDDE90A67D0E914892E
:103DB000044689EA070188EA060001EA030C00EAE2
:103DC000020B8CEA09018BEA0800C4E9140122F015
:103DD000010006EA0008002507EA0309194648F031
:103DE000C05249F00403CDE9005502F0B9FC204669
:103DF000FFF7CCFE284602B0BDE8F08B034A03680B
:103E0000002B08BF1346024A13607047733B000043
:103E1000F8020020014B0020996070477C0F0021C0
:103E200010B5032810D8DFE800F0170210130022A5
:103E300011460124204602F0C7FE2CB1074908684C
:103E4000FFF798FE00230B6010BD00220121F0E770
:103E5000012211461446EDE70022FAE7BC220020B9
:103E60000F4B5B68C3F30363013B0B2B0DD8DFE8FB
:103E700003F014140614140C14080A08080803208C
:103E800070470420704705207047064BDB6813F02D
:103E9000060F14BF0420012070470220704700BFA6
:103EA0000040084000500840044BD3F8883013F01D
:103EB000A00F0CBF01200020704700BF0040084049
:103EC00008B5002002F0C4FD002008BD0138C0B2D2
:103ED00002289CBF0F4B53F820200F4B4FF060512E
:103EE000196003F1007388BF00221A604FF40012BA
:103EF0001A600A4A136F23F0060343F004031367A2
:103F0000074B4FF0805119600423C2F88430002021
:103F1000704700BF6C9A0000186008440000084019
:103F2000944008460E4B06221A600E4B0022C3F83E
:103F300084200D4B4FF080521A60436913F0800FBC
:103F400018BF0A490A4B4FF4001214BF0A601A60E6
:103F50004FF400121A604FF060521A600020704750
:103F60007000084400000840944008441860084667
:103F700018600844022310B1024A13607047024AD5
:103F8000FBE700BF440008464400084438B5144627
:103F9000426982EA04030B4053400A070D4643611D
:103FA00006D514F0080F14BF264A274A08231360C9
:103FB000EB0706D514F0010F14BF224A224A012351
:103FC000136068070CD502F05BFD14F0040F14BFFA
:103FD0001E4A1F4A4FF4007313601E4B04221A60DE
:103FE000A90703D5C4F34000FFF7C4FFEA0606D5CE
:103FF00014F0100F184B14BF00221B22DA642B069A
:104000001AD514F0800F4FF4001317D0134A136021
:10401000FDF7C2FB124B5B68C3F30363032B06D1AE
:10402000104A536823F0F00343F0E00353600A4B57
:1040300001225A62FDF7B4FB002038BD0A4A136022
:10404000FAE700BF44000846440008441C600846E4
:104050001C60084488400844000008401860084676
:10406000004008407C0F002118600844022001F045
:104070004DBB000013B5012300240022CDE900341C
:1040800000231046194602F06BFB022001F0D2FA21
:10409000014B1C6002B010BDC422002002292DE992
:1040A000F74380460E461546994603D1FFF7E2FFD7
:1040B000002026E0154CFDF76FFB226807460AB189
:1040C000AA4221D1124A25600123C2F800900022A1
:1040D000CDE9003300231046194602F041FB0D4B99
:1040E00000221A70B21A18BF01224146022001F0C4
:1040F0002FFB05463846FDF753FB002DD8D1256030
:10410000012003B0BDE8F0830025F3E7C4220020BE
:10411000C8220020C0220020044BDB6D5B055ABF83
:10412000034B1878012000F0010070470050084050
:10413000C0220020022001F08DBA026B12B1136878
:10414000022B02D80C38FCF775B9536A126AD8B240
:104150005043C3F30723B0FBF3F0704710B5064894
:104160000C7803699AB24B781B0643EA0443134365
:104170000361002010BD00BF5029002005480369DD
:104180001A0C0B78120413434A7843EA02230361A2
:1041900000207047502900200B4600F134011846DA
:1041A00001F014B908B590F86830032B04D0084624
:1041B00000F056FF002008BD0220FCE770B590F823
:1041C0006830032B05460E4614D02971C16A99B197
:1041D000FFF74CFA48B9E8622846FFF775FB01463D
:1041E0002846FFF761FA002070BD31462846FFF7E8
:1041F000D9FFF8E70220F7E70846F5E708B50846D3
:1042000000F01EFF002008BD00F024BF2DE9F0479C
:104210009846C369012B07460E46924648D001F0E6
:1042200019FD054601F028FE0446FFF719FE012896
:1042300003D001210846FFF7F9F9BAF80C30DAF893
:104240000490F61A280BDAF80830C0EB8040B0FB77
:10425000F4F4E409A34284BFB3FBF4F40134B6B22E
:1042600083BFB3FBF4F41A1B06FB02991C463F2ED6
:1042700081BFB2099B0103FB029906F03F0601F0E2
:10428000EFFD484506D02146484601F0B3FE90B107
:1042900002200EE001F0EAFDA042F4D1B8F1000FD7
:1042A000F1D13846FFF772FC0121F0B201F024FF92
:1042B0000020BDE8F08701F0EFFD18B1024801F0E1
:1042C0003BFFEEE70148FAE7C0CF6A00E067350040
:1042D0004A0108B5202102F0BDFF003018BF0120BF
:1042E00008BD202102F0C8BF08B5084601F018FA41
:1042F000024B4042D860002008BD00BF502900207A
:1043000070B516460C46FDF747FA104B02221A60AC
:104310000F4B05465868C0F30360C21F022A01D93B
:104320000C2803D1D3F888309B030CD420463146A7
:1043300000F0AEFC0446074B022228461A60FDF747
:104340002FFA204670BD0324F5E700BF88400846D9
:104350000040084088400844CA00082102F07ABFA3
:104360000A024FF4807102F075BF00004FF48073B1
:1043700010B9024A13607047014AFBE788400846BB
:104380008840084470B504461646FFF78DFD0028A6
:104390004AD02046FFF788F90546002842D1244B31
:1043A0004FF440621A6016F0020204D1214B2249F8
:1043B0001B789B020B60214B4FF44061196022B9BE
:1043C0001C4B1F4A5B789B02136002F059FB16F0EE
:1043D000040F14BF1B4A1C4A4FF4806313601B4B2D
:1043E00004221A602046FFF77CFF18B106F0010096
:1043F000FFF7BCFF204600F0B2FA98B12046FFF765
:1044000070FF78B14FF40011204602F035FF00280C
:104410000CBF03210421002000F00CFC431C05D03C
:104420000B4B9860284670BD0225FBE70325F9E792
:10443000A0000844A8220020A0000846A4000844C8
:10444000A40008461C6008461C60084488400844D4
:10445000502900202DE9F04F85B080461D46FFF71A
:1044600091FF0646002877D1574F584BBA691A601A
:10447000574C002D00F0948095F90310E88801F066
:10448000A5FCBB692360AB7895F800B06A78002B77
:1044900066D003F1FF395A455FFA89F938BF5A46A9
:1044A0004FF0010AA88803922F8801F039F9DFF84C
:1044B00028C1484B039A84B24FF60401002F68D1FB
:1044C000DCF8582092B28A4208BF4FF605021A80E3
:1044D0000022B4F5807FD3B202F1010244D8082B48
:1044E0003D4946D1FF23B4F5807F8B653ED14FF423
:1044F0008074394B4FF400025A6508229346364BBC
:104500001CB1013CFF2C28BFFF24DC620023CDE955
:1045100000935946534608F1340001F0ADF91FB934
:104520002E4B4FF480121A602D4BAA681A602D4B47
:1045300020221A60012001F0CFF9FDF72DF9054680
:1045400001F0A2F8264B1C6874BB01F0AFF802F032
:1045500063FA2846FDF724F9304605B0BDE8F08F30
:10456000B346B146B2469DE76408B2E70134A4B24F
:10457000BFE701225BB19A40B4F5807F8A65B6D06F
:1045800080B2013B184100F001000444EFE78A6566
:10459000AFE7188888421CBFCCF858001980AEE7F6
:1045A0002068FFF7E7FAC2E7042001F053F810B1E2
:1045B000042001F03FF801222146042001F0C8F850
:1045C0000028C2D10126C4E700700840BC220020A8
:1045D000B822002004030020005008404C50084638
:1045E000AC22002088400846B3FA83F308461146FF
:1045F000D3F1190210B50FD4062A1346A8BF06231B
:10460000DAB2931D01249C40A4B2A14228BF2146E6
:1046100000F08EFA204610BD0022F2E7084611880D
:10462000B1FA81F1D1F1190110B50BD40629A8BF57
:104630000621C9B28C1D0123A340138000F094FA17
:10464000002010BD0021F5E7094B0121D3F8EC2033
:10465000996203F18063243352074FF400511960CB
:1046600041BF03F10073C83304221A60704700BFD2
:104670000010084038B50C4BD3F8EC5003F18063C0
:10468000EC334FF480641C60084B0020186002F08B
:1046900083FA074B4FF400521A606A0542BF03F1D8
:1046A000007398331C6038BD00100840A42200201D
:1046B0005410084438B58A78CB789A4205460C469F
:1046C0002CD14B78BBB9FFF72DFCA378BBB9144BA9
:1046D00040F6FF725A62E078A8B9114B40F6FF72BB
:1046E0005A6503F1C063A3F6BC7360221A600D4BD8
:1046F00040221A6038BD1846FFF7E8FBE5E7284678
:10470000FFF7A2FFE7E7084B60221A602846FFF791
:10471000B1FF064B40221A600020EBE70120E9E7D9
:104720000010084088400844440008448840084677
:10473000F8B5294E00F1340705463846746801F093
:1047400093FA73682B632846FFF7F7FC01F064FEC9
:10475000224B234A1B682989C3F381231370214B01
:104760001B68C3F3812353704FF6FF73994204D043
:104770001D4B1B680BB1284698472E6BA6421CD0D8
:104780000EB3316801B1B168A5F10C00FBF754FE1E
:10479000DEB13468D4B13369DBB1D3E900619C6820
:1047A000384601F060FE68B922463146384601F0CD
:1047B00056FE38B9384601F04CFE2B7843F0020320
:1047C0002B700020F8BD3146DEE7344626462146F0
:1047D000E6E71C46FAE700BFEC0F0021A000084006
:1047E000A8220020A4000840B02200204822002176
:1047F000014802F0AFBF00BF642900202DE9FF414E
:1048000000254FF06413C0E91433C0E916354FF6A4
:10481000FF73056280F86C50C563C56405668382CA
:10482000044600F10C07112088460395FCF7DEFCD6
:1048300004282BD1384602F077F93846FFF7D6FF27
:10484000134B60225A6403A93846FFF733FF226AEC
:1048500006464FF0FF313846FFF798FB4FF0C05245
:104860000423CDE900551046194601F079FF4EB9F1
:104870002046FFF7E3F80646B8F1000F02D008B96A
:104880002046C047304604B0BDE8F0810226F9E773
:104890000000084010B50C46FFF7A8FF94B1A278BD
:1048A000082A11D8E17808290ED8084B60685861A9
:1048B000207883F85800607883F8590042EA0112A2
:1048C00083F85B20002010BD0120FCE75029002068
:1048D000012A10B512D8032B10D803EB8202084C22
:1048E0000123934094F85A00DBB221B1034384F8CA
:1048F0005A30002010BD20EA0303F8E70120F9E751
:104900005029002070B50C46054600F13406098890
:10491000443001F082FD6188208005F14C0001F0F7
:104920007CFDA188608005F14A0001F076FDE188F8
:10493000A08005F1480001F070FD2189E08030463B
:1049400001F077FD61892081304601F07AFD6081B8
:10495000304601F07EFD002070BD01F027B88021B7
:1049600002F08ABC10B508490446FEF77DFF00211D
:104970002046FFF74FFA00224FF4C001204602F014
:1049800069FC002010BD00BF789A00007FB5531C61
:104990008DF8141005AA090A8DF81510029202214B
:1049A0000022CDE90021DBB2114602F06FFC07B016
:1049B0005DF804FB7FB5531C8DF8141005AA090A95
:1049C0008DF81510029204210222CDE90021DBB2FC
:1049D0000022012102F05AFC07B05DF804FB1FB56C
:1049E000531C029100220821CDE900210122DBB2F3
:1049F000114602F04BFC05B05DF804FB13B5FF2235
:104A00004FF6FF710446FFF7C1FF68B9FF224FF66A
:104A1000FF712046FFF7CEFF30B9CDE90000FF223D
:104A200069462046FFF7DBFF02B010BD08B55B0406
:104A300003F4F01343EA016343F0B00343EA024294
:104A4000024902F007FC002008BD00BFB8011F01A9
:104A500013B54FF40011044602F00EFC50B14AF2B7
:104A60001803ADF80430022201A92046FFF748FCE4
:104A700002B010BD05238DF804300122F4E773B5B0
:104A80000E7805460C4656B93146FFF721FC3146F3
:104A90002846FFF761FC31462846FFF761FC237882
:104AA00043BB22798DF8042033B323798DF8053088
:104AB00001A92846FEF72AFF0646C0B92378EBB9BC
:104AC000A2798DF80420DBB1A3798DF8053001A916
:104AD0002846FEF7FDFE064648B923783BB16188BB
:104AE0002846FFF701FC01212846FFF7F1FB30467D
:104AF00002B070BD0422D5E76379D7E70222E0E770
:104B0000E379E2E7084B09494FF48032C3F8E82023
:104B10000A609A6BD1B2C2F3072299679A6704229E
:104B20009A6700229A67704700100840EC10084608
:104B300038B50C4C226060600D46FCF72DFED4F8B1
:104B4000E0305B0758BF04234FF00002E260A5602D
:104B500058BFC4F8E830FCF723FE0DB10223A3626E
:104B600038BD00BF00100840044B1860044B40F6ED
:104B7000FF72196058605A62704700BFCC22002053
:104B80003010084000EB40002DE9F84F040104F11B
:104B90008044042A04F5012406D8013A032A2DD8BA
:104BA000DFE802F044413E3B0B78A3614B78A36100
:104BB0008B78A361CB78A3612768D4F80880D4F8F8
:104BC00004A007F00707BB1D01279F4007F1FF392D
:104BD00009EA0800161FA7EB000B5E4501F104056A
:104BE0004AF0005A0CD829465044324602F08EFD55
:104BF00006EB080249EA07073A40A260BDE8F88FD1
:104C00005A462946504402F081FD05EB0B01A6EB04
:104C10000B02504602F07AFDEAE70B78A3610131FE
:104C20000B78A36101310B78A36101310B78A3618B
:104C3000BDE8F88F3023584310B500F1804404F5E7
:104C400001242046236803F007039A1D01239340A3
:104C5000226AC2F30C028A4284BF6268E06803F1F0
:104C6000FF339BB281BF09180B409B1803F100531F
:104C700094BF4FF0FF30187810BD3023584300F137
:104C8000804000F50120006AC0F30C00704700006E
:104C9000402910B50A464FF001030BD8064C0146D7
:104CA000C4F8B8300320FFF76DFF0423C4F8B83010
:104CB000002010BD1846FCE70010084010B5FCF7B6
:104CC0006BFD0F4A0F49104C01239365C2F88830E1
:104CD00000230B604C6003244C620C490C800C498F
:104CE0000B804FF4A021C2F8E81002F1C062EC3250
:104CF0001160084ABDE810401360FCF751BD00BFC9
:104D00000010084060100840D0220020122300202C
:104D100010230020142300200D4B18600D4B03229C
:104D20001A800D4B00221A800C4B1A604FF400526F
:104D300059605A620A4BF0221A6003F10073A022F4
:104D40001A60084B0122C3F8B820FFF7B7BF00BFB5
:104D50001823002012230020102300209010084068
:104D600040000844001008402DE9F04104460028A6
:104D700073D03B4EFCF710FD31883A4BDFF8F8C09A
:104D800001F03F0202F03C07022C05461F4453D1BC
:104D9000DCF8004024B9FCF703FD0320BDE8F081F6
:104DA00024F00104DCF8000020F00100A04247D10B
:104DB0000023CCF8003023886FEA43436FEA534363
:104DC000BC4223802CD1284ADFF8B0C01388ACF154
:104DD0004008CF18043B9BB2211DF81A614528BF3B
:104DE0004146042B80B204D9B1F900E0BEF1000FB6
:104DF00031DB13802288A1781C4CC2F30C02E263E1
:104E000001F0070100F07F02194832800429C260D6
:104E1000436205D1174B1B6803B1984701F008F8AE
:104E2000124BD3F8E030DB0301D5FFF76BFE2846C9
:104E3000FCF7B6FC0020B1E7012C08BF3C46B1E707
:104E4000A21AD31A084A128848BF4033043A9A4239
:104E5000B1DC28469FE70C46BCE703209EE700BF75
:104E600010230020D0220020122300200010084030
:104E70006010084018230020142300201023002075
:104E80001E481F4B02881B881E491344033B03F036
:104E90003C032DE9F0410432CE1892B20280B5787D
:104EA0001948426215F0070088B00A4618D1F77811
:104EB00017F0810F1FD1154CEE4604F12008206831
:104EC0006168F446ACE8030008344445E646F6D190
:104ED00008A901EB970717F8200C134405439D70B0
:104EE000042803D10A4A53681B03FCD4094B1E60F3
:104EF00008B0BDE8F0810420EFE700BF12230020D6
:104F000010230020D022002060100840389E0000AE
:104F1000004008401423002010B5054C206828B13B
:104F2000C30701D4FFF720FF0023236010BD00BF9B
:104F300014230020094B4FF480321A60084BC3F849
:104F4000E420D3F88020C2F30C023C2A05D8D3F821
:104F5000E030DB0301D5FFF7D5BD7047EC10084406
:104F600000100840431C08D0044AD2F83C311B0C06
:104F70001B0480B20343C2F83C3170470040084034
:104F800038B50D46044600F065FEAC4042F21071A3
:104F900064114C436423B0FBF3F0B4FBF0F038BD74
:104FA00030B51F490B78032B34D01E4A498813684B
:104FB000B1F5E16F23F47F538CBF5A24C82423F04A
:104FC00008038CBF50257825A0429ABF190A01F426
:104FD0007F5143F6C8710B431E2813608CBF124AE1
:104FE000124A012313609361114B1B789BB1A842B5
:104FF00011D9104A4DF60173136093610E4BA04214
:105000008CBF4FF457404FF450400822186098610D
:1050100043F8702C30BD094B08221A60FAE700BF34
:1050200020230020E00F00210841084608410844E1
:1050300014030020044108440441084694400844F5
:10504000034B1A6802609B8883800020704700BF72
:1050500020230020014B1878704700BF1503002063
:10506000F8B50746C820FFF79BFF484B484D197815
:10507000032903D1FF272F703846F8BD454B1A6826
:10508000454B012903EA020314D1072F10D8012F41
:1050900008BF0227414A042143EA07631160BFB2F7
:1050A0003C4AFFB2136038462F70FFF779FFE3E701
:1050B0000727EFE743F47F5646F00806002954D14E
:1050C000042F95BF0C4601240B460423FF1A344BD2
:1050D000D3F88821D24302F4FE1242F40052B2FA0D
:1050E00082F2C2F11302C2EB4212FFB2D3B2BB4250
:1050F00028BF3B4603EB84070BB1013BDBB21F200B
:10510000B3FBF0F0C2B2C0EB40101B1A254802F10D
:10511000010C1B064FF0FF3202FA0CF203F1807310
:105120000078D243334343EA823340B31E481F4ED4
:10513000B2FA82F202290CBF01463146C2F11F02C7
:105140008A5CAFB1511EC9B2FD2913D8120642F0D4
:1051500004021749C1F858214FF480026CB101F1E3
:10516000C06101F584710A609AE700242346ADE727
:10517000104AEEE74FF07F42EBE70F49F3E7002FCD
:105180000C4A18BF4FF07F42E3E700BF2023002006
:1051900015030020E00F00213F00C0E05841084403
:1051A00000400E4026230020B083E00FB883E00FBC
:1051B000004008400400000B0841084408B500F016
:1051C0006BFE0D4A68B1D2F8003123F47F115B0801
:1051D00003F4FE130B43C2F800314FF00073D361A8
:1051E00008BDD2F8183123F47F115B0803F4FE13D5
:1051F0000B43C2F81831F0E7004008407047000048
:1052000008B500F049FE4FF4001330B1044A1360B2
:10521000044B4FF000621A6008BD034AF7E700BF75
:10522000004108442040084418410844014B1868D4
:10523000704700BF282300200C4B70B5DD6E9E6EBA
:10524000E8B206F00F01FFF79BFEC6F30311044618
:10525000C5F30720FFF794FEC6F303210444C5F30A
:105260000740FFF78DFE204470BD00BF006008407E
:105270002DE9F047384E394B394A002808BF012044
:1052800030609B69C3F38213062B0F4613705AD00C
:10529000344B1B78022B4DD1334B1B78002B14BFA2
:1052A000C82596255FFA85FA08215046FFF768FE63
:1052B0004FF003094FF004080824336883420AD0F2
:1052C00045D94444E1B25046FFF75AFEB9F101090D
:1052D0004FEA5808F1D13368224E98421F4B4FEAEB
:1052E0000542DA6603F1806303F1680340F6FF725A
:1052F00088BF04F1FF341A6003F1007322021A60C0
:10530000FFF79AFFB08000F0A5FC05FA04F44FF413
:10531000FA75164B6C4341F66A05B0FBF5F0B4FB29
:10532000F0F40A20444338461C6001F095F8B08838
:10533000BDE8F087012B08D00B4B1B78002B14BF66
:10534000F025B425AEE70025ACE73225AAE738BF43
:10535000A4EB0804B6E700BF1C230020006008404F
:1053600016030020202300202623002028230020CD
:10537000030103F4F87300F0070018430B01044A1B
:1053800003F4F87301F0070119439060516070470E
:10539000E00F002108B500F06FFD092810D8094B77
:1053A00001281B5C05D1084B1B78012B14BF04237B
:1053B000442303F00F011809BDE80840FFF7D8BFE8
:1053C000FA23F6E7589E00002023002070B505461A
:1053D0000E4600F02FFC3E4B3E4C0022C3E900225B
:1053E0009A602A783C4B022AD3F8883132D113F4E0
:1053F000001F3ED12B682360AB88A3800020FFF7FD
:105400002FFE3146A888FFF733FF314B22781B6807
:10541000022A23F0804323F0170331D12F4A4FF49F
:10542000EE41116002F100724FF48A41116043F0C5
:105430008043012143F0200342F8041C244A002049
:105440001360FFF70DFE264B03221A60FFF7A2FF41
:10545000002014E0012A02D113F4400FC9E742B939
:10546000204A526AD24302F0010203F4800313433C
:10547000BFE7032323701C4BFF221A70012070BD6D
:10548000012A1A4E1A4D1B4C1B481C494FF00702AB
:105490000ED1326003262E60226006220260184A76
:1054A0000A60184A43F003034FF440411160C5E716
:1054B000326004262E6022600522026043F08043A1
:1054C000C0220A6043F014030F4A8121EEE700BFB7
:1054D000E00F00212023002000400E40244108441A
:1054E00058410844B081E00F1503002000410844F2
:1054F000004108460C4108440C4108460841084454
:10550000C1004000044108440841084610B5044663
:10551000FFF740FF084B094A9B691278C3F38213D7
:105520009A4206D0064B21461868FFF7A1FE0120DB
:1055300010BD0020FCE700BF0060084016030020FB
:105540001C2300202DE9F04B2B4F2C4B3B6000F02F
:1055500081FB4FF4FA634FF47A76DFF8B880B0FB42
:10556000F6F56B434FEA032B4FEA136C1BEB080075
:105570004FF000094FF00003214A4CEB090101F004
:10558000BDFEA0F580730446BB6218B92B21FEF75F
:1055900077FA012406FB04F200275608B8194FEAEF
:1055A00005283B4648F1000101F0A8FE154B1960A3
:1055B000154B270606461860240A25B928462B21D4
:1055C000FEF75EFA01254FF47A73A7FB037803FB1D
:1055D00004886C0838194FF000032A4648F100018E
:1055E00001F08CFE094B1960094B1860024B013E1B
:1055F0001E63BDE8F08B00BF0050084000110100A1
:1056000040420F00382300203423002030230020A4
:105610002C23002020A10700044B4FF08052C3F838
:1056200080211A60024B01225A60704700E100E0BD
:1056300000500840054B0201134401221A604FF448
:10564000807303FA00F0024B5866704774500844A8
:1056500000500840024B0001185800F0010070474C
:105660007450084001F460010001024B41F0030155
:105670001950704774500840014B024ADA6670476F
:105680000050084000000101054BDA6B12B9054AD1
:1056900010211160044ADA6641F201421A6770472C
:1056A0000050084000400846011B011808B52120A1
:1056B00000F010FA024B4FF480325A6008BD00BF70
:1056C0000050084008B5222000F004FA024B4FF4C5
:1056D00080225A6008BD00BF00500840064B10B53C
:1056E0001968064B1C684FF000420023E0FB0423BE
:1056F00001FB003010BD00BF302300202C23002010
:10570000014B9869FFF7EABF00500840000100F123
:10571000804000F50520D0F88000FFF7DFBF0000D3
:10572000084B1A6B084B1B6830B54FF0004400253E
:10573000E0FB0345054B1B6803FB0050904228BF6C
:10574000104630BD0050084034230020382300208C
:105750002DE9F843154607460E46FCF71DF880462E
:105760003846FFF767FF022D04D14046FCF718F8D2
:10577000012011E0394CD4F818904846FFF7AEFFED
:10578000012D04BF01363618801BB0F1804F05D2C1
:105790004046FCF705F80020BDE8F8832F4A246F47
:1057A0002F48D26E07F1090324F0E00410401902DB
:1057B000E4041B0622F0E00243F4803341F00101CF
:1057C000E40CD2048C420CBF04240024D20C984276
:1057D00008BF44F00204914208BF44F0010414F0F1
:1057E000010118BF1F4B304618BF1E60FFF798FF1E
:1057F0001A4B03EB07121126C2F88000FA1D03EBC7
:105800000212A0EB090056609A69DE6DA2EB09094D
:105810004845AAD84FF48072BA401642A5D11DB9A6
:105820003846FFF707FFB3E71A6641B10E4B0F4941
:1058300041F61F7240F201101A6008601A60A20758
:1058400006D5094B0949064A09481A6008601A60DA
:10585000630742BF074B01229A6086E70050084069
:1058600000001F1F4C2900206C5008446C50084653
:105870000000010100400840F8B5164C05462068BC
:1058800020F4700040F4A00020609DF81C00002B64
:1058900008BF00211E469DF81830000240EA036050
:1058A00040EA021242EA06421143E164E76AFF2F2E
:1058B0004FF018018CBF00200120FEF7E1F8A7632C
:1058C0003EB1288AFFF72CFF87423ABF0023E363EB
:1058D000E063F8BD0050084038B50446FFF710FFFC
:1058E0000546FFF70DFF401BA042FAD338BD00006C
:1058F00038B50446FBF757FF14F4C00F054647D0F0
:10590000264A91688909C1F3090389052449496830
:10591000906948BF6FEA8353C2B248BF6FEA93539E
:10592000000648BF62F0FF021E4812F1460FC06D2C
:105930002EDB13F5007F2BD0B3EB820F28DC01F0B8
:105940007063B3F1806F02D011F0506F20D1C002AC
:105950001ED4FFF7B7FE134BDA6DD10218D4104AEC
:1059600001219160104ADA664FF4E0025A66A20201
:1059700007D55A6D12F0706F1EBF5A6D02F17F424B
:105980005A6524F4C0042C2044F4801400F0A2F8DA
:105990002846FBF70CFF204638BD00BF00700840CA
:1059A0000040084000500840000001012A4A70B53C
:1059B0000346044600F1100618685968154603C5E9
:1059C0000833B3422A46F7D11868244B28600822CE
:1059D0001A6001212248FBF7CBFB224AF823D36748
:1059E000A37BE17A1B0443EA0123217A0B439367EB
:1059F0002078012818D11C4B207B02211960072335
:105A00005367617B00230422FCF71EF90023042264
:105A1000217CE07BFCF718F9607AA17A012304224B
:105A2000FCF712F9002013E0022805D10E4B0121EA
:105A3000196005235367E9E7032805D10A4B0521BF
:105A4000196001235367E7E718B9074B18605067DF
:105A500070BD0120FCE700BF3C230020C8400E467B
:105A600000250A0000000840502300204FF080432A
:105A700010B1024A13607047014AFBE794400846A0
:105A80009440084470B504460E4DC0B10E4E706887
:105A900040B100F0DFF8736800EB5300B0FBF3F0A7
:105AA000013800024FF603732B60084B1B68184344
:105AB000074B18602046FFF7D9FF002070BD032375
:105AC0002B60F7E77C0008443C2300205023002093
:105AD0007C000846044BD3F89430002BBCBF034B2A
