:10000000007C002095300000C1300000C1300000AD
:10001000C1300000C1300000C1300000C13000001C
:10002000C1300000C1300000C1300000C13000000C
:10003000C1300000C1300000C1300000C1300000FC
:10004000650C000015730000C1300000BD6E00009B
:1000500081730000217300003973000019730000E0
:1000600015080000E9080000E1170000B92D0000A4
:10007000C1300000C1300000C1300000C1300000BC
:10008000C13000000D090000C1300000C130000087
:10009000C1300000C1300000C1300000C13000009C
:1000A000C1300000C1300000C13000008573000085
:1000B0001D730000790A0000C5730000C130000004
:1000C000D15F0000C130000010B5054C237833B972
:1000D000044B13B10448AFF300800123237010BD1B
:1000E000E80200200000000048A4000008B5034B0F
:1000F0001BB103490348AFF3008008BD00000000B6
:10010000EC02002048A40000154B002B08BF134B45
:100110009D46A3F5803A00218B460F461348144AAA
:10012000121A07F0B5FB0F4B002B00D098470E4B6F
:10013000002B00D098470020002104000D000D483E
:10014000002802D00C48AFF3008007F05BFB2000D2
:10015000290000F043F807F02FFB00BF0000080063
:10016000007C00200000000000000000E8020020E9
:10017000D8230020000000000000000008B502F0B5
:1001800015FD01210248BDE8084001F0BDBB00BFDC
:1001900000250A0008B503F05BF803F07FF8044B74
:1001A000044880221A60BDE8084007F05BBF00BF2A
:1001B000FCA00046DC890000054B1870054B1B783D
:1001C000014623B1044B0022186803F00EBB7047B0
:1001D0005A220020100300200C03002083B5484B56
:1001E000DC6C01A8240E02F073FA8E2C1CD8454951
:1001F000D1F8B00040F00403C1F8B030424B4FF0EA
:1002000050121A601A631A66C3F89020C3F8C0200F
:10021000C3F8F020C1F8B0003A4AD36A23F07F0354
:1002200043F02003D36201E08F2CF5D99DF805300F
:10023000364C012B01BF364A136843F004031360A8
:10024000344B00271F60FFF799FF042002F072FC77
:100250004FF4006502F036FF4FF4805602F0F8FFCD
:1002600003F01CF803F026FA1A20FFF7A5FF03F0AD
:100270006FF925602848266007F0F4FE27492848D2
:1002800007F07CFE274B28481F7007F0EBFE27483D
:10029000274B0068274F012242F2107103F094FAB5
:1002A000254807F06BFE254807F0DCFE244B1E6056
:1002B0002646244C1D60B8461D4638784FF48053BE
:1002C00001280CBF2B603360238801339BB2B3F548
:1002D000FA7F05D8238003F007F803F0C5F9ECE7AF
:1002E000194A1388013300219BB22180138008B181
:1002F00088F80010B3F5C87F84BF00231380EAE7B5
:10030000B081E00F00400E4000A000403CA000443F
:1003100064310E40B40AC643F1890000148A00001B
:10032000248A0000AE1D0020468A00000C03002035
:100330009501000008030020888A00008B8A0000D5
:100340003CA0004604030020060300200020704764
:1003500070470000B0F5007F38B517D801F0E8FD10
:100360000C4A00234FF4017404FB03F18D188958E3
:1003700031B901222A601C4601F0DEFD204638BD5D
:1003800001330A2BF0D14FF0FF34F5E74FF0FF3483
:10039000F4E700BF14030020431C10B504460FD03F
:1003A00009280DD801F0C4FD4FF40173054A6343D9
:1003B000D4580CB104339C1801F0BEFD204610BD8A
:1003C0000024FBE71403002038B5044601F0B0FD1B
:1003D00005462046FFF7E0FF30B14FF40170054AB3
:1003E00060431358013B13502846BDE8384001F0E4
:1003F000A3BD00BF1403002038B5044601F098FDEA
:1004000005462046FFF7C8FF30B14FF40170054A9A
:1004100060431358013313502846BDE8384001F0BB
:100420008BBD00BF140300200A2938B504460D46D1
:1004300009D838B101F07CFD0023A580236001F0CC
:100440007BFD012038BD0020FCE7F8B50F460446CF
:10045000A0B101F06DFD6688A5882388AE420ED25A
:10046000334493FBF5F205FB12339BB202330136A2
:1004700044F82370668001F05FFD0120F8BD9A1CEE
:10048000013344F8227093FBF5F205FB123323800D
:10049000F1E770B50446B0B101F04AFD638883B15D
:1004A0002288A688911C013254F8215092FBF6F163
:1004B000013B06FB11222280638001F03DFD2846AE
:1004C00070BD1D46F9E70546F9E700002DE9F04F3C
:1004D0009B46584B85B01B78109F9DF844A0DDF8D3
:1004E0005080064689461546002B00F09280072A68
:1004F00000F291800E9B002B00F08D800F9B002B53
:1005000000F08980129BB3F5006F00F3848001280E
:1005100001D1002F7FD0484B03EB05131B7B002B31
:100520007BD0464C10220021684607F0B1F904EB5D
:1005300045141022B9F1000F5CD14946204607F05E
:10054000A7F9A37843F01003A370E37843F03003D6
:10055000E370BAF1000F03D1DBB243F00303E370A1
:100560003649129BCDF800B06A01013B885A01EB75
:10057000020C63F30E1088520E9BCCF808300F9BD0
:10058000CCF804309DF84C109CF80330012E61F338
:1005900083038CF8033042D11323CCF80C309CE851
:1005A0000F000CF1100E8EE80F00DCF81C20CCF8C8
:1005B00014706FF0030161F39F02B9F1010FCCF8E1
:1005C0001C2004D10F9BCCF81830CCF804701A49C9
:1005D0002A018B1841F802800027159A5A60284694
:1005E0009F605E732246694602F00CF8384605B0FB
:1005F000BDE8F08F0021204607F04AF91023A370D0
:100600000323E370BAF1000FAAD1DBB243F0300349
:10061000A5E70B48EBE70B48E9E70B48E7E7B8F13C
:10062000000FD4D19CF8023068F304138CF8023028
:10063000CDE700BFBC1800203C170020BC170020ED
:10064000028000F0018000F0078000F038B5104B08
:100650001B780546BBB1C0B101F071FC0D49002308
:1006600001EB0312147B3CB92B600123137314605C
:1006700001F069FC204638BD0133082BF0D101F0B0
:1006800062FC0548F7E70548F5E70548F3E700BFD2
:10069000BC1800203C170020048000F0028000F00D
:1006A000018000F013B5164B1868019000238DF8F7
:1006B000043001F044FC134B1C7824B101F043FCDE
:1006C000114802B010BD01221A7001F03CFC0F4B22
:1006D0001C731C7783F82C4083F83C4083F84C4013
:1006E00083F85C4083F86C4083F87C4004230DEB76
:1006F00003008DF8073001F059FF2046E1E700BF05
:10070000A38A0000BC180020038000F03C170020E2
:1007100010B588B00E9C07940D9C06949DF830404F
:1007200005940B9C04949DF8284003940024CDE983
:10073000013400920B46024601212046FFF7C6FE17
:1007400008B010BD08B50A4B1B785BB107280BD861
:10075000084B03EB00131B7B43B1002101F01CFF8E
:10076000002008BD0448FCE70448FAE70448F8E71D
:10077000BC1800203C170020028000F0018000F02F
:10078000078000F008B50A4B1B785BB107280BD82F
:10079000084B03EB00131B7B43B1012101F0FCFE6E
:1007A000002008BD0448FCE70448FAE70448F8E7DD
:1007B000BC1800203C170020028000F0018000F0EF
:1007C000078000F00D4B1B7893B1072812D889B130
:1007D0000B4B03EB00131B7B73B10A4B1A6A01230B
:1007E00003FA00F010401ABF00200B700870704729
:1007F000054870470548704705487047BC180020F9
:100800003C17002000200E40028000F0018000F024
:10081000078000F02DE9F843174E326EF36E12EAAE
:10082000030800D5FEE7154CDFF85490012700259A
:1008300018EA070F16D02368B7669BB1A1686268F3
:100840000131A16028469847637B012B0AD148B942
:1008500009EB4513197B1A7F60F3410160F34102F4
:1008600019731A770135082D4FEA470704F1100470
:10087000DED1BDE8F88300BF00200E403C17002009
:10088000BC17002070B5094E0446012504B970BD9F
:1008900094FAA4F0B0FA80F005FA00F324EA030415
:1008A00056F82030002BF1D09847EFE7C018002011
:1008B000054B4FF40032C3F880211A604FF40072E8
:1008C000C3F880211A60704700E100E038B50446A3
:1008D0000D4601F034FB034B43F82450BDE838408B
:1008E00001F031BBC0180020074BD3F82804D3F81F
:1008F0001C24104020F42A5020F02A004004400C10
:10090000C3F82404FFF7BEBF00A00040074BD3F894
:100910002804D3F81C24104020F4AA4020F05500ED
:100920000004000CC3F82404FFF7ACBF00A0004093
:100930002DE9F84F284C4FF0000A04F1A00580463D
:100940004FF000094FF0010B237F84F81DA06BB11D
:10095000D4E90023994508BF9045104619460AD2AC
:10096000B2EB080063EB0901C4E900012834AC4292
:10097000EAD1BDE8F88FE37F33B92377A369002B71
:10098000F4D084F81DB0F1E7D4E90267B8EB0000B9
:1009900069EB010132463B4606F070FDB01A67EB89
:1009A000030123696269002BC4E900010BDD1344D4
:1009B000F32B6361E2D9461C41F10007F43BC4E923
:1009C00000676361DAE7D31AF32B6361D6D910F1BC
:1009D000FF3641F1FF37F1E71019002038B5074C19
:1009E0000025637F1BB1A369216A2846984701351A
:1009F000042D04F12804F4D138BD00BF10190020E3
:100A0000F0B5194E00214FF0FF324FF0FF3374184C
:100A1000257F3DB1D4E900459D4208BF94423CBFCB
:100A200022462B462831A029F1D1104900240C7010
:100A30005C1C08BFB2F1FF3F0C4614D000279F4258
:100A40000B496FF0640608BF9642086038BF324613
:100A50000849042502440D6201234A6523704B6A4C
:100A600043F004034B62F0BD101900200819002068
:100A700004190020002004402DE9F0471E4C01F02D
:100A80005EFA656AA269154025F0050222626A07CE
:100A9000804622D5194EA768DFF86890DFF868A075
:100AA00001223270636A23F004036362D9F8000004
:100AB000381AFFF73DFFFFF791FF3846FFF7A0FF19
:100AC000D9F80020A768636DB91A9B1A9AF800201C
:100AD0000AB19942E6D800233370EB0706D5064BDE
:100AE00001221A62064A1368013313604046BDE8CA
:100AF000F04701F028BA00BF002004400019002090
:100B0000B019002004190020081900202E49F0B562
:100B100000220B682D4D104654592CB11E68AC189C
:100B2000002E3AD1234601200832302AF4D100B1F8
:100B30000B600968264B0A68002A35D0DA6922F072
:100B4000FF02DA61D8690A790243DA611A6B42F06E
:100B5000804220491A63204D0B68002210465459E8
:100B600024B11E68AC181EBB234601200832302A6F
:100B7000F5D100B10B600968154B0A68FAB1DA6962
:100B800022F47F42DA61DA69097942EA0122DA6104
:100B90001A6B42F000421A63F0BD1E792779B74202
:100BA00084BF23460120BFE71A6B22F08042D0E7C2
:100BB0001E792779B7423CBF23460120D6E71A6B3E
:100BC00022F00042E7E700BFB8190020C01900205A
:100BD00000300E40BC190020F0190020074B186AA5
:100BE000C0B26FF00403C00090FBF3F0044B1B682D
:100BF000184400F3070040B2704700BF00300E40B9
:100C0000B419002010B5144C226B616A0A4010D54B
:100C1000124B1B681A682AB1002119605960FFF74E
:100C2000DDFF90474FF00043E362BDE81040FFF75F
:100C30006DBF5300F9D50A4B1B681A6832B1002109
:100C400019605960FFF7CAFF01219047024B4FF02E
:100C50008042DA62E9E700BF00300E40BC19002094
:100C6000B8190020FFF7CEBF38B141B1013AB2F553
:100C7000006F044838BF00207047034870470148A0
:100C8000704700BF037000F0027000F00D490E4A7B
:100C90000B7810B54BB9C2E90033C2E90233012425
:100CA0000C7042F82300002010BD002352F82310DE
:100CB0000029F6D08142F4D00133042BF6D1034849
:100CC000F2E700BF301A0020201A0020027000F066
:100CD00038B504460D4601F032F9A28892B222B925
:100CE0002A6001F030F9064838BD6388142202FBFF
:100CF000034308332B6001F026F90020F4E700BF1E
:100D00000B7000F038B504460D4601F018F9A388C1
:100D10009BB223B92B6001F016F90C4838BD6388EB
:100D2000E188142202FB034308332B6063885A1CBA
:100D300092FBF1F301FB13239BB26380A388013B79
:100D40009BB2A38001F0FFF80020E7E70B7000F0F2
:100D50007FB5012380F82C3090F8323093B90C4ADB
:100D6000036803920022049002924A6801920122D1
:100D700000920A68016980681C33FFF7C9FC07B05C
:100D80005DF804FB012BEAD0002380F82C30F6E755
:100D900055120000427E30235343044A1A44437FD5
:100DA00003EBC2039B001868C0B270471CA010423E
:100DB00013B51D4A002352F82340617F81420ED0B3
:100DC0000133042BF7D102B010BD0028FBD19DF8F0
:100DD0000730002BF7D06068FFF7B4FCF3E794F816
:100DE0003130022BEFD12046FFF7D4FF637D207511
:100DF000022BE8D194F82E3003F0FF02002BE2D151
:100E000002A9606801F8012DFFF7DCFC237D1BB10E
:100E100094F82F30002BD8D0002384F82F3060684E
:100E2000FFF7B0FCCFE700BF201A002090F8323067
:100E300053B903680122DA601A69D007FCD55A6FEA
:100E400042F001025A677047012B0CD103685A6CBB
:100E50009107FCD401225A609A68D207FCD55A6DDA
:100E600042F001025A65704790F832303BB903688E
:100E70005A6F22F001025A670222DA607047012B92
:100E800009D103685A6C9207FCD45A6D22F0010212
:100E90005A6502225A60704710B50446FFF702FCFB
:100EA0000021201DFFF7D2FB014608B1044810BD08
:100EB00004F10800FFF7CAFB0028F8D0F6E700BFEE
:100EC0000E7000F0F8B5044617460D4601F037F8ED
:100ED000A388E2889A42064605D800233B6001F0C9
:100EE00032F81648F8BD2388142202FB0343083366
:100EF00005F1100C2A4603CA624518605960154670
:100F000003F10803F6D1106818602388E1881422E1
:100F100002FB034308333B6023885A1C92FBF1F326
:100F200001FB13239BB22380A38801339BB230467D
:100F3000A38001F008F80020D4E700BF0A7000F099
:100F400073B504460D46C07DE67E002934D00123EA
:100F50000422314601F0DEFA01230222217F207EA5
:100F600001F0D8FA94F83130022B16D10023012277
:100F7000617F607E01F0CEFA00230422A07EA17F73
:100F800001F0C8FA0123627F607E0193009311464D
:100F900001F074FA002002B070BD032BFAD10023D7
:100FA0000122617F607E01F0B5FA00230422A17F57
:100FB000A07E01F0AFFAEDE70B460A46314601F09C
:100FC000A9FA2B462A46217F207E01F0A3FA94F845
:100FD0003130022B10D12B462A46617F607E01F012
:100FE00099FA2B462A46A07EA17F01F093FA627FF0
:100FF000607E01950123C9E7032BCBD12B462A46FE
:10100000617F607E01F086FA2B462A46CFE72DE904
:10101000F04104460E461746FFF726FE804650BBB9
:10102000082000F0A1FF0546A26A93889BB213B185
:1010300094F82E3013B394F8322022BB23681D6934
:1010400015F0020533D0012384F83030002A3FD157
:101050003744BE42206836D103699E06FCD555B997
:1010600094F83230002B42D123685A6F22F00202EA
:101070005A670822DA604046BDE8F081002DD4D0DE
:10108000FFF7C8FBD0E7012A1BD123689D6815F044
:101090000205D8D1596C8807FCD40421596099689D
:1010A0008907FCD5596D41F002015965CBE7042150
:1010B000D96019698907FCD5596F41F00201596758
:1010C000C1E70025BFE716F8011B01F008FCC0E7E7
:1010D000012AD0D13744B742206803D18368190769
:1010E000FCD5BCE716F8011B01F0E5FAF3E7012B8C
:1010F000C1D123685A6C9207FCD45A6D22F00202C7
:101100005A6508225A60B6E710B50446B0B190F8A7
:101110002E3033B990F83130022B0AD06068FFF7D7
:1011200011FB94F82E300133DBB284F82E3000200E
:1011300010BDFFF72FFE0028F3D1EFE70048F7E7D7
:10114000027000F010B50446D0B190F82E30CBB14B
:1011500090F82E30012B06D190F83130022B0AD0B6
:101160006068FFF70FFB94F82E30013BDBB284F888
:101170002E30002010BDFFF70DFE0028F3D1EFE761
:101180000148F7E70148F5E7027000F0057000F04C
:1011900037B590F83150022D044618D1A37F407D19
:1011A00001229A40A37E30215943134B0B4410B9BE
:1011B00003F1806303E0012805D103F1C0631A60E5
:1011C000002003B030BD217D0029F6D1F0E7012DCC
:1011D000F6D1037D73B911238DF80730FFF794FF23
:1011E0002A460DF107012046FFF711FF2046FFF7C1
:1011F000A9FFE5E71323EFE70CA00040F0B587B0A7
:1012000004461646FFF730FD0546F0B9CDE9011654
:1012100004936A460E4B606A039601A90593FFF793
:1012200051FE054688B994F82C3073B92046FFF773
:10123000FDFD00992046FFF78BFD94F83130032B1C
:1012400003D025752046FFF7A3FF284607B0F0BD61
:10125000017000F073B5506A01A91446FFF738FD1C
:10126000334B98422FD094F83200019B00282DD1A7
:101270002268116C11F4007136D02E491961986002
:101280004FF40073936400F05AFE0199CD6806464E
:1012900035B14A688B682046D31A0A680969A8479D
:1012A00001A9606AFFF72EFD606A8588ADB2002D46
:1012B0002FD001A9FFF70CFD01992046FFF748FD4B
:1012C000304600F040FE012002B070BD01281CD164
:1012D0002268D16A11F080010FD0164919610021EE
:1012E000996080235363CEE7106CC5050DD5124875
:1012F000186199604FF48073C4E7D06A400604D542
:101300000D48186199604023ECE700221A619A6049
:10131000B9E7012323752046FFF73AFF94F83130EF
:1013200084F82C50032BCBD02046FFF79DFDC7E758
:101330000B7000F00D7000F00C7000F02DE9F04122
:10134000094F04460D460FCF88B001AE0FC697E88F
:10135000070086E80700002C00F03A8245B9034EEA
:10136000304608B0BDE8F081B88A0000037000F094
:1013700034220021204606F08BFA2046FFF786FC37
:1013800006460028ECD12B7C84F83130C94A2B6802
:101390002360934284F8320040F08181C64B23627F
:1013A000C64BE3604FF440232361D5E906230026B2
:1013B000626216805680968084F82C60A3621E803C
:1013C0005E809E806B6803936B89ADF81430AB89A7
:1013D000ADF81230AB7B8DF810300121EB7BB848B3
:1013E00084F82D6084F82F6005278DF816308DF86D
:1013F000117000F089FA0121B24800F085FA01214C
:10140000206A00F081FA01A928688DF8046001F0D3
:10141000E7F9D5F800C00320CCF87400DCF87810A8
:101420006A7A2B7A21F4F85121F01F01114341EA25
:101430000321CCF878102168DFF878C2614540F0CC
:101440004981BB4216D9991F042940F25F81A3F15B
:101450000B01B94240F25C81A3F11101062940F26F
:101460005981A3F11801062940F256811F2B14BFA0
:10147000FF263E46042AE67540F25081511F04299A
:1014800040F24E81A2F10A01052940F24B81A2F1FE
:101490001001062940F24881A2F11701072940F204
:1014A00045811F2A14BFFF2100212176002B58D02F
:1014B000012B56D0022B54D0032B52D0042B50D0EA
:1014C000052B4ED0062B00F03B81072B00F03A8114
:1014D000082B00F03981092B00F038810A2B00F02D
:1014E00037810B2B00F042810C2B00F021810D2B5A
:1014F00000F020810E2B00F01F810F2B00F01E81C9
:10150000102B00F01D81112B00F01681122B00F022
:101510001581132B00F01481142B00F01381152B6F
:1015200000F01281162B00F01181172B00F01081B2
:10153000182B00F00F81192B00F00E811A2B00F0F0
:101540000D811B2B00F00C811C2B00F00B811D2B3F
:1015500000F00A811E2B00F009811F2B0CBF07230E
:10156000FF23E376002A00F01581012A00F01481A0
:10157000022A00F01381032A00F01281042A00F0ED
:101580001181052A00F0FA80062A00F0F980072A66
:1015900000F0F880082A00F0F780092A00F0F680B1
:1015A0000A2A00F001810B2A00F000810C2A00F0C9
:1015B000DF800D2A00F0DE800E2A00F0DD800F2A89
:1015C00000F0DC80102A00F0D580112A00F0D480D1
:1015D000122A00F0D380132A00F0D280142A00F0DF
:1015E000D180152A00F0D080162A00F0CF80172A6B
:1015F00000F0CE80182A00F0CD80192A00F0CC80AF
:101600001A2A00F0CB801B2A00F0CA801C2A00F0A6
:10161000C9801D2A00F0C8801E2A00F0C7801F2A3A
:1016200014BFFF23002323776B7C6376AB7C637747
:10163000EB7CA3762B7DA37701212046FFF780FC6E
:10164000064600287FF48CAE00F079FC2F7C032F37
:10165000804640F0AD802B685A6F42F030025A67E6
:101660005A6E42F004025A662A8CDA6728684FF0F4
:10167000FF3383642B7C032B0CBF0521042101F075
:1016800085F82B684FF44062DA60FFF70BF82046CC
:10169000FFF702FC0646404600F055FC60E60A4AA9
:1016A00093427FF45CAE094B2362094BE3604FF435
:1016B000502379E6000001400022040001000C00E4
:1016C0004041050000250A000004014000320400EA
:1016D00001000D00DFF804C161457FF440AE052B29
:1016E0007FF6C8AE991F042910D9A3F10B01052973
:1016F0000ED9A3F1110106290CD9A3F1180106296D
:101700000AD91F2B14BFFF260526B3E60126B1E632
:101710000226AFE60646ADE63E46ABE60021C4E64D
:101720000121C2E60221C0E60321BEE60521BCE696
:10173000072316E7082314E7092312E70A2310E713
:101740000B230EE70C230CE70D230AE70E2308E713
:101750000F2306E7002304E7012302E7022300E743
:101760000323FEE60423FCE60523FAE60623F8E657
:10177000082358E7092356E70A2354E70B2352E7C7
:101780000C2350E70D234EE70E234CE70F234AE7C7
:10179000002348E7012346E7022344E7032342E707
:1017A000042340E705233EE706233CE707233AE707
:1017B000022F7FF45BAFFFF77BF8607F0549FFF7EF
:1017C00085F8A675267567752046FFF7E1FC4DE79D
:1017D000014EC5E5B10D0000027000F000040140AB
:1017E000044BDA68D20604D510225A61024B01225A
:1017F0001A70704700800140311A00200C4B98424B
:1018000010D90C4B984210D9022201230A490B60CF
:101810000A49D1F8003123F0807343EA0263C1F82A
:101820000031704700221346F0E70122FBE700BFBA
:101830000048E8010090D0034000C84300400E403B
:101840000A490B4B88425A680BD90A4988420AD97F
:1018500002F040715A6822F0407242EA01625A6016
:1018600070470021F6E70121F4E700BF40787D01D1
:1018700000000E40005A620238B5064C41F6713342
:10188000256C236401F030F8FFF7DAFF0DB1002377
:10189000236438BD00000E40044BD3F84421D20726
:1018A00003D4D3F840211042FBD1704700400E40D2
:1018B0000C4AD2F89030516A0B4B21F0300141F0C4
:1018C000100110B55162146BC0F3C31103310F291D
:1018D00003EA040328BF0F21034343EA01731363A0
:1018E00010BD00BF00400E4000F8FF0F38B5054C9A
:1018F00041F67133256C2364FFF7A2FF0DB100237D
:10190000236438BD00000E40C0F30322013A38B50D
:101910000546092A13D8DFE802F023131212051630
:1019200019121C20104C0020C5F3043508B1FFF734
:10193000B3FF04F1047405EBC404A400216038BDB6
:1019400000200A4CF0E70120094CEDE71020094C7B
:10195000EAE74FF48030084CE6E70020074CE3E765
:101960000020074CE0E700BFB0400E40C0400E40F2
:10197000E0400E40E8400E40F0400E4050410E4026
:1019800000400E4000F00F000138072848D8DFE87B
:1019900000F0040F1947232D4735244BD3F894301A
:1019A00003F00703023B022B3CD8214AD05C70476E
:1019B0001E4BD3F8803003F00703013B032B33D8D1
:1019C0001C4AF3E7194BD3F8843003F00703013BBB
:1019D000032B29D8184AE9E7144BD3F8883003F0D1
:1019E0000703013B032B1FD8144ADFE70F4B1B6F84
:1019F00013F0010F14BF0920072070470B4BD3F8D9
:101A00005C3103F03003202B06D0302B06D0102B96
:101A10000CBF072001207047042070470820704742
:101A200000207047052070470120704700400E409D
:101A3000D48A0000D78A0000DB8A0000D78A000021
:101A400008B50146FFF79EFF1B4B994211D01B4B77
:101A5000994212D01A4B994204D11A4BD3F8800004
:101A600000F007000138032824D8DFE800F00A0E50
:101A70001612144BD3F88400F2E7124BD3F8880007
:101A8000EEE7BDE8084000F0A1BFBDE8084000F067
:101A9000A3BFBDE8084000F09CBF00F04DFF094B1C
:101AA000D3F80031C3F300635A1C01239340B0FB09
:101AB000F3F008BD0020FCE703001E000500220033
:101AC00002001C0000400E4000F47810B0F5801FAA
:101AD00008B577D016D8B0F5802F2DD005D868B1CD
:101AE000B0F5003F33D0002008BDB0F5402F34D012
:101AF000B0F5602F52D0B0F5202FF4D1BDE80840EA
:101B000000F0F6BEB0F5E01F2FD00AD8B0F5B01F38
:101B100030D0B0F5C01F38D0B0F5A01FE3D13048A9
:101B200024E0B0F5081FFAD0B0F5401F3DD0B0F565
:101B3000F01FD8D12B4819E000F0DAFE2A4BD3F879
:101B40000C31C3F308230133B0FBF3F0CCE700F012
:101B5000CFFE254BD3F80831F3E700F0C9FE224B46
:101B6000D3F81431C3F30423EDE72048BDE808405F
:101B7000FFF766BF1D48FFF763FF1B4BD3F820211B
:101B800002F00F0201239340DEE71648FFF758FFEB
:101B9000154BD3F8282102F00302F3E71448FFF7AE
:101BA000F1FE07280ED00928A7E71248FFF7EAFE42
:101BB000072807D0082808D0042894D1BDE8084099
:101BC00000F0CCBE0C4B18688EE700F091FE064B7F
:101BD000D3F80031C3F3042303FB000084E700BF04
:101BE0000500220003001E0000400E4002001C0001
:101BF00006000E00B8003000000000200E4B5A6AAC
:101C000012F0300F04D0202913D0302900D011B9A0
:101C10004FF4400200E0094AD3F8901032EA010183
:101C2000FAD1520246BFD3F8A000C0F380200120B1
:101C300070474FF40002EFE700400E40FF03E1075A
:101C400002280AD129B1064B4FF48060C3F8A800DE
:101C5000596612B10220FFF7D1BF0120704700BFC3
:101C600000400E40F8B504284ED8DFE800F00A0323
:101C700011616600802640250623072400294ED0E6
:101C800046E04FF400764FF4807508230924F5E709
:101C9000002942D02B4C636A13F0300F35D1636AB0
:101CA000DB0705D5636A23F0300343F0100363625A
:101CB000042502230324234E3566234E33449B0020
:101CC0001F68002FFCD0FAB13444A4002368002B15
:101CD000FCD0022818D1B9B11A4E716A11F0010175
:101CE00018D001222021FFF7ABFFD6F89C7001220B
:101CF00000210220FFF7B6FFC7F30A00FFF7D8FD67
:101D000035662368002BFCD0F8BD0425022303248C
:101D10000021D0E7FFF772FFE7E708260223094A10
:101D20001666094A1A4492001368002BFCD1EBE7AF
:101D30000125022600232C46A0E720261025042397
:101D400005249BE700400E408004F21000F00F00D5
:101D5000013810B5072842D8DFE800F00F043D41F4
:101D60003B5B4166494C0139092938D8DFE801F06D
:101D70004F383F37374637373735023903292ED8A2
:101D8000DFE801F02402181E01200324012211467D
:101D9000FFF768FFFFF770FD3D4B3E485C67FFF7BC
:101DA00093FEFFF72BFD00F0C7FD0021BDE81040BA
:101DB000FFF79CBD3848FFF721FD02200446E5E708
:101DC0003548FFF71BFD01240320DFE70020042432
:101DD000DCE7324CC7E7324CC5E70423236010BD73
:101DE000012211460020FFF73DFF0223F6E7012202
:101DF00011461046FFF736FF0123EFE700F09CFD88
:101E0000FFF7FCFC274B01221A600323E6E70023BF
:101E1000E4E7072904D00929E1D11D4B012201E0A3
:101E20001B4B00221A67DAE701390729D7D801A32B
:101E300053F821F0871E0000DF1D0000DF1D0000A9
:101E4000791E0000DF1D0000DF1D00006B1E00007A
:101E5000551E000003220E49D1F85C3123F03003F7
:101E600043EA0213C1F85C31B9E7012211460420AC
:101E7000FFF7F8FE0122EEE7012211460220FFF7EC
:101E8000F1FE0222E7E70022E5E700BF80400E40B6
:101E900000400E4000050A000148E80188400E405D
:101EA00084400E400016C84310B504461120FFF7C9
:101EB00069FD012200210220FFF7D4FE1A4A217C8D
:101EC000536A23F00103022908BF43F00103536260
:101ED000164B21781960936AE17A23F007030B43CC
:101EE0009362A188637A43EAC123D362136BA07A19
:101EF000217A03F07F630343E08843EAC02343EA87
:101F0000C11303310F2928BF0F2143EA0173136363
:101F1000A37B617B1B0143EA0133E17B0B43217B04
:101F200043EA0143536310BD00400E40A004C84380
:101F3000EFF3108072B6704700B962B67047EFF3E6
:101F4000108072B67047FFF7F7BF00004109054ADD
:101F500000F01F0352F82100D840C04300F00100F8
:101F6000704700BF00E100E010B50446EFF31083B6
:101F7000DB0733D4FFF7EAFF00282ED1002CADBFDA
:101F800004F1604404F00F04154B04F56144B4BF40
:101F90001A5D94F800235209EFF3118313B1B2EBE9
:101FA000531F1BD20F4C6368C3F30803ABB1103B44
:101FB000DBB259B20029BBBF03F00F03043B01F1B0
:101FC00060431B19AABF03F56143187E93F8000311
:101FD0004009824234BF0020012010BD0120FCE7EF
:101FE00014ED00E000ED00E01848194BC26C1B88AE
:101FF000C2F303222833013202EB820103EB5303C5
:10200000B3FBF1F3C16C013B072B21F0EE6128BF5C
:10201000072341F4801141EA0363C3640D4BB3F914
:102020000030002B10DB2833510801EB420203EB98
:102030005303B3FBF2F3026D072B28BF072322F0F3
:10204000700242EA03130365704700BF00300E4080
:10205000341A0020361A0020134B9A6FD207FCD492
:102060001B6C13F003031EBF104A01211160834251
:1020700003D108B90D4B1860704723B9012802BF7E
:102080000B4B02221A70084A1146936FDB07FCD4EF
:10209000136C23F00303034313648B6FDB07FCD43F
:1020A000003018BF0120E5E700300E40B40AC643F7
:1020B000381A0020A0F5E163B3F5966F2DE9F047DB
:1020C00003D900210846BDE8F0875F4C5F4BD4F888
:1020D0006851DB6CB0F5E16F1FBF4FEA156AC5F3BD
:1020E00007484FF496694FF4E16701BFC5F3072A2B
:1020F0005FFA85F84FF416794FF49667B0F5E1660C
:10210000C3F3017C18BF012646EA0C2E40F20113EE
:102110009E455BD0BEF5817F09D2BEF1010F1BD079
:102120005DD3BEF5807F5DD000252B4619E040F2DF
:1021300001239E4550D005D8BEF5007FF4D1D4F8D8
:1021400070310BE0BEF5407F4FD040F201339E4529
:10215000EAD1D4F878313BE0D4F87431C3F30725E1
:10216000DBB2C71BAAEB080E07FB0EFEBEFBF9FE97
:10217000C644D645A5D8A5EB030807FB08F7B7FB6F
:10218000F9F73B44AB424FF000079AD882B1DFF831
:10219000BC80D8F85C5025F4FE4525F00205B0F56A
:1021A000E16F45EA0E2518BF02273D43C8F85C5091
:1021B000002946D0226DD2B2032A19D8B0F5E16FBA
:1021C000D4F87C211FD0C2F307221DE0D4F874316B
:1021D0001D0EC3F30743C4E7D4F87831BEE7D4F843
:1021E0006C31BBE7D4F86C31F2E7D4F87031EFE72B
:1021F000BCF1020FD4F880211ED0BCF1030F1ED019
:10220000BCF1010FDFD0D2B2120312F4702F7FF4B1
:1022100058AF0E4CE06E20F470400243E266626EEE
:1022200022F4FF72E72B22F0010228BFE72332439A
:1022300042EA4303636645E7C2F30742E4E7120E4E
:10224000E2E701213EE700BFB081E00F00300E4021
:10225000194B1A6FD96CC90702F0070214D5012A6D
:1022600012D9132823D9143813288CBF102308231C
:102270001148013BC26C190322F47F4241EA032357
:102280001343C364FFF7B0BEDB6CD90706D4012A41
:1022900004D809280BD90A380928E6E7064BDB6C75
:1022A00013F00103E4D0012A03D82728DDE7042333
:1022B000DEE70023DCE700BF00300E40054A064B96
:1022C0001B68136F23F007031843044B106718882B
:1022D000FFF7BEBF00300E408009C643321A00200F
:1022E000534B37B502229A639B6B03F00F03934263
:1022F000054603D00024204603B030BD4D4BD3F833
:102300006C3101331DD04C4B1A68043B1B681A60BA
:102310004A4B1A68043B1B681A60494B1A68043B15
:102320001B681A60474B1A68043B1B681A60464BCF
:102330001A68043B1B681A60444B1A68043B1B680C
:102340001A60E988B5F90C004A2965D9B1F5FA7F18
:1023500064D340F6C313994294BF4FF000514FF03D
:102360004051334CE36C23F0405323F00103002829
:10237000A8BF43F001030B43E364E36E43F08073B3
:10238000E366334B186800B10420FFF797FF236E14
:1023900023F0C0432366E36C43F0060301A8E36423
:1023A00000F096F99DF80500012812D19DF804303F
:1023B000022B0ED827490B785BB9274A136843F0E4
:1023C00001031360236E254A1A40254B13432366ED
:1023D0000870244B29891980234BB5F90C201A80E9
:1023E000224BA8881880FFF733FFAB7BCBB1012BC2
:1023F0001BD0012211466888FFF75CFE04460028C6
:102400003FF478AFAB7A1A4A6878003318BF0123DB
:102410001360FFF721FE6EE70021A2E74FF0805125
:102420009FE7034B134A9A65E3E7014B124AFAE729
:1024300000300E40B081E00F3C80E00F4480E00FA0
:102440004C80E00F5480E00F5C80E00F6480E00F70
:102450008009C643381A002044300E40000F0EF0A9
:10246000B4C0400B341A0020361A0020321A002063
:102470009407C64377402057372110B7072A70B515
:1024800001F003014FF00F0523D896001A4CB54018
:10249000256004F10074B04020600320B04001FAD0
:1024A00006F61649086001F100710E6014491144E6
:1024B00089000B609DF81030C1F88030012303FAC9
:1024C00002F2104BC3F824249DF81430C1F80033F5
:1024D00070BDA2F10804A4000B4EA54035600B4D61
:1024E000A04028600320A04001FA04F408490860D5
:1024F00001F100710C60D9E700A4004408A4004475
:102500008020851000A0004004A4004404A40046DC
:102510000CA40044F0B54AB130261E4C01254643B8
:102520008D4034440BB304F1C0642560302444432F
:1025300004F18044072904F5204419D865688E0009
:102540000F27B74025EA070502FA06F6354365600E
:1025500052B9012202FA01F1302250430D4A0244DD
:10256000A3B102F1C0621160F0BD04F18064DCE748
:1025700001F18045083DA668AD000F27AF4026EA6F
:10258000070602FA05F53543A560E1E702F180622E
:10259000E9E700BF0CA00040034B03449B0081F01F
:1025A00001011960704700BFA001F11010B5044689
:1025B00001211148FFF7A8F9637822781B0243EA4A
:1025C0000263A27813430D4A136000231362D3629F
:1025D00053634FF00043D3664FF0FF339366084ACE
:1025E0004FF48071C2F88011E3785B01DBB282F8AE
:1025F0000833116010BD00BF00450A0000200E40E6
:1026000000E100E02DE9F041C3B2254D91F80AC088
:102610000F7B01260C469E404FF03008CB7A497B59
:1026200008FB00504FEA035E2368C0F880304EEA92
:102630000C4343EA475322F00302C0F88810C0F865
:102640008430C0F89820AE66FFF779FCEB6E334318
:10265000EB66237A13B16B6B33436B63637A13B10D
:10266000EB6A3343EB6222792B6822B1D243120228
:1026700062F47F42134062790AB143EA0223A279ED
:102680000AB123EA0203E27902B11343044A136058
:10269000044B1E60D663BDE8F041FFF754BC00BF99
:1026A00000200E4028200E44036CDB0702D4436C4C
:1026B0000B42FCD1704710B502460C469368DB060E
:1026C000FCD540211046FFF7EFFF946210BD0000DB
:1026D0000B4A536911699B0003F03C03C1F381115C
:1026E0000B438370136903F03F0343709369D2690E
:1026F00003F0F003C2F3031213430370704700BFEB
:10270000D0FF0FE070B5054616461C4619B91448AF
:10271000FFF7DAF90146202C08D001D8ECB170BDE2
:10272000402C18D0602CFAD1042200E0082206FBCD
:1027300002F35A0802EB4112B2FBF3F2094B203AC2
:1027400003EAC2022B6823F060032B602B681C4352
:102750002C606A61E3E70622E9E71022E7E700BFA1
:1027600040410500F8FF7F0038B50546144619B909
:102770000548FFF7A9F9014601396400B1FBF4F1FE
:102780000902696138BD00BF40410500CB435B00D1
:1027900003F00A03C360C1607047000040F6AA63FB
:1027A000C36041F205020023036042600A4A83606D
:1027B0004361C3648264094A43679042836702F5B8
:1027C0008062C36701D0904200D103659042836567
:1027D00008BFC365704700BFF9FF0100000001405A
:1027E00038B505460C46FFF7D9FF8B7C1BB1036853
:1027F00043F080430360E37C1BB1237D43F08003FF
:10280000AB65228A637B1343E28913436B60D4E98F
:102810000112237B2846FFF775FF637D1BB12B68F0
:1028200043F480332B60A37DE27D1B07120502F485
:10283000E00203F0E04313432B666B6F23F0300399
:102840006B676A6F237E13436B672378EB6038BD39
:1028500038B50C460546FFF7A1FF0A8A897B036855
:10286000002942F0010214BF4FF48061002113439C
:102870000B43227D03600368002A14BF4FF000520F
:10288000002213430360A37C1BB1E37C43F080036D
:102890008365237B43F480536B60D4E9011228469F
:1028A000FFF762FF637B0BB11023EB60637D1BB10D
:1028B0002B6843F480332B60A37DE27D1B07120558
:1028C00003F0E04302F4E00213432B662378EB604D
:1028D00038BD03691B06FCD5C069C0B270470369E7
:1028E0005B06FCD5416370470048704700F0490221
:1028F0000D4AD2F8943003F00703032B11D0042BB8
:1029000003D0022B0BD1094B00E0094B1868D2F819
:102910000031C3F304230133B0FBF3F07047054BE0
:10292000F4E74FF40040F2E700400E4008000020BA
:10293000100000200C00002008B5FFF7D9FF054B60
:10294000D3F80831C3F308230133B0FBF3F0024B93
:10295000186008BD00400E4004000020014B1868BC
:10296000704700BF08000020054B1860054BD3F8E6
:10297000943003F00703022B01D1FFF7DDBF70474E
:102980000800002000400E400D4AD2F8883043F481
:102990007003C2F888300B4B5A6D42F400525A65EE
:1029A0001A6C22F003021A64074A136823F0010329
:1029B000136052F8143C23F0805342F8143C7047E3
:1029C00000ED00E000300E4074300E404FF4004047
:1029D00070474FF47A707047014B1868704700BF1A
:1029E000100000207FB5094B6A4603F1100615461A
:1029F00018685968144603C40833B3422246F7D115
:102A00002846FFF76DFC04B070BD00BFE08A0000EF
:102A100070B51A4B86B001AA03F110061546186866
:102A20005968144603C40833B3422246F7D11B88C1
:102A3000238028464FF096130293FFF735FA10488B
:102A4000FFF792FF012211460220FFF70BF9042144
:102A50001120FFF77BF9002211460320FFF702F94E
:102A600003210848FFF772F903210748FFF76EF9C1
:102A700003210648FFF76AF906B070BDF08A00002E
:102A800000F0490202001C0003001E0005002200A5
:102A900013B51C4BDC6C01A8240EFFF719FE8E2C1D
:102AA0001CD81949D1F8B00040F00403C1F8B03087
:102AB000164B4FF050121A601A631A66C3F8902032
:102AC000C3F8C020C3F8F020C1F8B0000E4AD36AA2
:102AD00023F07F0343F02003D36201E08F2CF5D96C
:102AE0009DF80530012B01BF094A136843F0040328
:102AF0001360084B00221A60FFF774FFFFF788FF8E
:102B000002B010BDB081E00F00400E4000A00040B8
:102B100064310E40B40AC64308B501210448FEF7EB
:102B2000F3FE00F009F8BDE8084000F06DB900BF01
:102B300000250A000020704708B501210D48FEF766
:102B4000E3FE01210C48FEF7DFFE042211460023BC
:102B50000520FFF7DFFC0521084600230422FFF7CC
:102B6000D9FC0023042206210520FFF7D3FC002016
:102B700008BD00BF4041050000250A0002280DD80D
:102B8000084B03EBC00213F83030516801228A4031
:102B900030215943044B00205A5070474FF0FF300A
:102BA000704700BF048B00000CA0004608B500F081
:102BB00013F808BD82B000EB40000021CDE9000110
:102BC000DDE9002312F1FF3043F1FF311343CDE97A
:102BD0000001F5D102B07047F0B58BB0FFF758FF98
:102BE000FFF79AFF14220DEB0200002104F050FEC3
:102BF000434B0693012502261722052305A94FF012
:102C0000FF308DF814608DF81C208DF81D308DF884
:102C100022208DF823308DF8245001F001F8394B33
:102C20000FCB01AC84E80F00204600F0B1F9364B21
:102C30003648D3F8903003F48073002B0CBF2F4636
:102C40000027294614BF34460324FEF75DFE2A46BA
:102C500029463846FFF706F821462D482D4FFFF745
:102C600075F821462C48FFF771F821462B482C4C6B
:102C7000FFF76CF829462B48FEF746FE29462A48FE
:102C8000FEF742FE20462949FFF7E2FD0B2363676A
:102C900003F10B23A3673046002304220621FFF72C
:102CA00039FC3246304600230721FFF733FC30461B
:102CB000002304220821FFF72DFC04222B46114695
:102CC0000020FFF727FC102542F21070FFF772FF7B
:102CD000174E3D60AB212046FFF701FE2046FFF76F
:102CE000F8FD35601E20FFF765FFB92120463D60E5
:102CF000FFF7F5FD2046FFF7ECFD35600BB0F0BDAA
:102D0000006A18001C8B000000400E4000050A00FD
:102D100002001C000CA0004403001E00050022005D
:102D2000000401404041050000320400CC8B00004B
:102D30000CA0004600207047FEE74FF400534B60A4
:102D40000020704701207047012070474FF0FF308E
:102D5000704700207047F8B50E468F180D46BD42EB
:102D6000A5EB060405D1002C08BF4FF0FF34204628
:102D7000F8BD00F0ADF8431CF5D005F8010BEEE707
:102D8000044B1968024609B90349196018680244DE
:102D90001A6070473C1A0020D823002070B50E46F8
:102DA00015460C46A31B9D4201DC284670BD14F855
:102DB000010B00F0BFF8F5E70F4803691B0670B57B
:102DC00014D50E4D2B68072B11DC0D4C2668FFF730
:102DD00080FD0C4B98552368013323602B68013329
:102DE0002B602368082B01D10023236070BDC36CC6
:102DF00023F00403C364F9E7000001404C1A0020EB
:102E0000541A0020421A002030B5012189B0284808
:102E1000284DFEF779FD01212748FEF775FD0123B6
:102E2000194604220020FFF775FB002301221946F2
:102E30001846FFF76FFB0FCD01AC0FC495E80700F4
:102E400084E8070001211D481D4CFEF75DFD08A91F
:102E5000002501F81C5D2046FFF7C2FC03236367D1
:102E6000A26F22F4F85222F01F0242F48F7242F055
:102E700001020423A267A364124B4FF40061C3F85C
:102E80008011E26C42F00402E264204619600521E0
:102E9000FFF77CFC0C4B186802222B462946806801
:102EA00005F0F8F8094B01221A7009B030BD00BFD7
:102EB00040410500E48B000000250A0000220400C8
:102EC0000000014000E100E078020020411A0020EB
:102ED000134B1B7810B50BB9FFF796FFFFF72FF8D0
:102EE000104B1A68002A18DD0F4A104C1168645CF8
:102EF0001168013111601168082904BF00211160B7
:102F00001A68013A1A600A4AD36C43F00403E4B227
:102F1000D364FFF718F8204610BD4FF0FF34F8E7F0
:102F2000411A00204C1A0020501A0020421A00209A
:102F30000000014038B50E4B1B7804460BB9FFF773
:102F400063FF0C4D2A782AB10A2C03D10D210A48BF
:102F5000FFF7C5FC21460848FFF7C1FC2B782BB1D1
:102F60000D2C03D10A210448FFF7B9FC204638BDD7
:102F7000411A0020401A00200000014010B9024B05
:102F800018687047014BFBE75C1A0020641A0020A8
:102F9000064B027B1A70064B02681A60054B4268AA
:102FA0001A60054B82681A6000207047581A00208A
:102FB0005C1A0020641A0020601A002047F6FF7394
:102FC0009A4270B50D46144658D02D4B1B682BB154
:102FD0002C4B1B6813B12C4B1B6813B92A2100F032
:102FE00007FE2846FFF7CAFF012D0ED1264B1968B0
:102FF000062331F91320A24218B202DC0130C0B21C
:1030000070BD013BF5D11846F8E7B0F90010A142B8
:1030100003DB1E49A142B8BF21462822A1F1C80303
:1030200093FBF2F31A4A446815785B421BB29D4247
:10303000DCBF05F1FF331BB24FF47A7604EBC30219
:103040000133508852681BB211FB002020EAE07067
:103050009D4200F5FA70B0FBF6F203DD34F8330060
:103060009042EBD203F10053013B34F8330090421D
:1030700028BF1046002808BF0120C0E7FF20BFE797
:103080005C1A0020641A0020601A0020C880FFFF2C
:10309000581A0020064880470649074A074B9A42BB
:1030A000BEBF51F8040B42F8040BF8E7FDF72CF80B
:1030B0008929000054A4000000000020E402002040
:1030C000FEE700BF4FF07E634FF6FF729B882F48EC
:1030D0002DE9F0479342DFF8ECA0DFF8EC902C4D9F
:1030E0002C4CDFF8E8802C4F2C4E08BF0023AAF8A8
:1030F00000302B4B14221A804FF07E631B7AFF2B7B
:1031000008BF032389F8003028232B701023237075
:103110004FF07E63DA7AFF2A08BF032288F8002086
:103120005B7AFF2B08BF28233B704FF07E639B7AAE
:10313000FF2B08BF0023337004F094FF4FF07E6331
:103140001848196804F01AFFBAF80010164804F07D
:1031500015FF99F80010154804F010FF297814485D
:1031600004F00CFF2178134804F008FF98F80010D1
:10317000114804F003FF3978104804F0FFFE31785D
:103180000F48BDE8F04704F0F9BE00BF008C000016
:10319000562200205A2200205122002057220020CF
:1031A00058220020048C00001D8C0000318C00008F
:1031B000488C0000618C00007A8C0000928C00002A
:1031C000AB8C00005422002052220020502200200C
:1031D00030B499B90A4B1C88A4B2651CADB21D80ED
:1031E0001578084A15551A88B2F57A7F28BF1980D4
:1031F0000122054B054930BCFEF700B830BC7047D2
:10320000A81A0020E81D0020D1310000AD1D0020CB
:1032100030B499B90A4B1C88A4B2651CADB21D80AC
:103220001578084A15551A88B2F57A7F28BF198093
:103230000122054B054930BCFDF7E0BF30BC7047AB
:10324000A81A0020E81D002011320000AD1D00204A
:1032500030B50D4D0FCD8BB001AC0FC40FCD0FC4E9
:103260002B682360094C01A92068FEF767F8014626
:10327000074804F083FE074B074920680122FDF749
:10328000BDFF0BB030BD00BFC48C00001400002097
:103290000C8D0000D1310000AD1D002030B50D4D6A
:1032A0000FCD8BB001AC0FC40FCD0FC42B682360C2
:1032B000094C01A92068FEF741F80146074804F0CF
:1032C0005DFE074B074920680122FDF797FF0BB011
:1032D00030BD00BFE88C0000180000200C8D0000FD
:1032E00011320000AD1D00202DE9F84F5C4E5D4D00
:1032F00032882B889BB2934200F0AF8032882B88B3
:10330000298892B28A429BB238BF2B882C8836BF5C
:1033100002F57A71D31ACB1A0B2BA4B269DDDFF850
:10332000688108F1010108F1080008F109079442D9
:1033300007D100232B80002C5BD0013CA4B22C8051
:1033400057E014F808C0BCF1690F7DD114F801C032
:10335000BCF1BF0F78D1082B76DD14F800C0BCF1AA
:10336000990F71D114F807C0BCF1790F6CD13E4AA6
:103370003E49A75C0F80501C8946205C002861D123
:10338000063B9F4235DC931CE35C782B22D1033251
:10339000A35C872B1ED1364A36480123137004F1F3
:1033A0000B0B354A08EB0B0A053F137051463A46A2
:1033B00004F054FA002833D0304B03221A703A46F6
:1033C00051462C4804F059FAFAB251464FF6FF70B4
:1033D00000F0D8F8B9F8003006331C44A4B22C80B1
:1033E0002B88B3F57A7F04D32B88A3F57A739BB22D
:1033F0002B8034882B88328829889142A4B288BFD8
:1034000034889BB284BF2B8804F57A74E41A24BBF9
:10341000FEF78EFD34802C80BDE8F84FFEF78CBDA2
:1034200018F80B30722BD5D1154B14491A5D013A9F
:103430000A709A1C0133125D1B5D43EA0223114A94
:103440001380BCE70634C9E70134A4B2B4F57A7F2F
:1034500003F1FF3328BF002469E7BDE8F88F00BF00
:10346000A81A0020AA1A0020EA1D0020AC1A002089
:1034700008030020681A00200903002052220020BF
:10348000F61D002058220020E81D0020014804F00D
:10349000E9BD00BFE68D000038B5134B1878013048
:1034A000FCF758FF0446FCF777FFB8B12046FCF75D
:1034B000A3FF21460D480E4DFCF7C7FF0D4B2A78A0
:1034C0001B789A420AD20C480C4B0068012244F641
:1034D000206100F079F92B7801332B702046BDE88C
:1034E0003840FCF771BF00BF5C220020DC220020C6
:1034F000AE1A0020522200200C0300209934000054
:10350000F8B51646002302F00802134302D00D4816
:1035100004F0A8FD06F400220023134305D0002088
:10352000FFF72CFB084B00221A7006F000740025F0
:1035300054EA050304D00548BDE8F84004F092BD04
:10354000F8BD00BFA88D00000A030020CC8D00004C
:1035500008B50A210848FCF767FF00B9FEE70A2111
:103560000648FCF761FF00B9FEE70A210448FCF7B2
:103570005BFF00B9FEE708BDDC2200203C230020F1
:103580000C2300202DE9F84F92462D4B2D4D0AF1CA
:103590000C07012281464FF0000B384688461A700E
:1035A00085F800B0FCF7D6FE0646FCF7F5FE0446AB
:1035B00000283FD0412343706FF077038370752359
:1035C000037124234371204B204A186812882281FA
:1035D00001301860E0701A68A4F80690B2F1807F9C
:1035E000204628BFC3F800B00AF10B0300F80A3BDD
:1035F0005246414604F041F93A462146144804F047
:103600003CF93046FCF7F8FE31461248FCF71DFF46
:10361000114B1B7873B1114B1988114B4FF47A7011
:103620000F3141430F480122006800F0CDF82B789C
:1036300001332B703046BDE8F84FFCF7C5BE00BF24
:103640000A030020AE1A0020B01A002054220020E5
:103650005C220020DC220020522200205822002080
:10366000993400000C03002037B50E48FCF711FF19
:103670000546FCF791FE014670B103780A4C013310
:103680001A46206800F096FA084B20681978084B13
:103690000022009200F0A6F8284603B0BDE83040B2
:1036A000FCF792BEDC2200200C0300205A220020EE
:1036B000808D00001FB52448244C04F0D3FC24491D
:1036C000244800F071F8206000B9FEE74FF00111C6
:1036D00000F065FA206800F00BFB30B11E4B1F4A6A
:1036E00040F28A311E4804F049F81E49206800F073
:1036F000CDFA20B11C4B194A40F28B31F2E71B4B3B
:10370000186802909B882068ADF80C3002A900F080
:103710001AFA20B1164B114A40F2A231E2E7FC211D
:10372000206800F00DFA134A20680023CDE9002339
:103730004FF0FF324FF0FF3300F0F2F90E492068EE
:1037400000F035FA04B010BD198E00000C03002003
:103750008D3400001C0100203D8E0000098E000009
:10376000848E00008C8D0000978E00007A8D000002
:10377000E58E00000A001802E78E00000220704764
:10378000002070470120704700207047034B1868E5
:10379000034B002808BF1846704700BFB81A002026
:1037A000EC8E00000020704738B5064B04460D46ED
:1037B000186000F031F829462046BDE8384000F096
:1037C00021B800BFB41A002070B506460D46114658
:1037D0001A46FFF7DBFF046833462846A446BDE8D7
:1037E000704060470C3000F0F5BE0C3000F09BB923
:1037F0007047431E012B03D9031F5842584170479D
:103800000120704710B5044601F0B8F800280CBF3D
:103810002046002010BD000010B5044600F0AEFBAD
:10382000034A236B002B08BF1346024A136010BDE6
:10383000F13700004802002010B50C4600F0B0FB44
:103840001CB100F0CDFB0128FBD110BD73B50D4BB1
:103850000E4669461D68044600F090FDB6F9122038
:1038600047F6FF739A420BD09DF800102479284642
:10387000FFF7A4FBA04234BF0020012002B070BDBE
:103880000120FBE7B41A00202DE9F04F6B4F8BB0FD
:103890003B680393D0E90A9643880193039B002574
:1038A000B3428DF81E50044688468DF81F5003D150
:1038B00013B1019B994252D0B9F1000F00F0BA80C8
:1038C000D9F80820002A00F0B580D9F80C20002A89
:1038D00000F0B0805A4A0492136802934FF0000A35
:1038E00018224FF0010BD9F80C10514515D9D9F811
:1038F000085002FB0A55E989414535D8298A4145D6
:1039000032D32946204605928DF81FB0FFF79EFF5F
:10391000059A40B38DF81EB02E4608A9204600F047
:103920002DFD204600F030FD9DF81E20A4F10C0B6B
:103930008246E2B12179204600F0F4FC049B1A682B
:10394000002A5CD04A4533D1396889B3B1422FD1BE
:10395000019B984518D1E662A4F80280002528460C
:103960000BB0BDE8F08F2E460AF1010ABBE79DF8C7
:103970001F20002A60D09DF82010B6F9122058466A
:10398000FFF71CFB0146D6E700233246414620469E
:1039900000F0FCFC05460028DDD05146204600F032
:1039A000C1FC00233A680199204600F0EFFCD6E7FD
:1039B000116821B3D9F80000884220D1516820460F
:1039C00000F076FF0546E8B93168204600F070FF48
:1039D0000546B8B9049BE662C3F80090A4F80280DB
:1039E00001233246414620463E6000F0CFFC0546AA
:1039F00040B9144B31461B6858469847AFE7D9F891
:103A00000010DCE7049B1A46029B1360039B3B609B
:103A1000029B1BB11968204600F04AFF5146204620
:103A200000F080FC3B68002B99D01968204600F01C
:103A30003FFFB6E7032592E7012590E7C01A002073
:103A4000BC1A002048020020F8B50F1C18BF01273F
:103A500006460D4638461F21002400F0D3F83846AC
:103A60001F21B562F46200F0CDF8E86823464FF6F6
:103A7000FF711827DAB2824209D30C46094B0022A3
:103A8000214630461A60FFF7FFFE2046F8BDAC68BD
:103A900007FB0242D4898C4202D2002CEED0214690
:103AA0000133E7E7BC1A00204088704738B50A7830
:103AB000054610460C46FFF79CFE88B1497808463B
:103AC000FFF797FE60B10A43520709D400F088FA65
:103AD000430707D421462846BDE8384000F0FEBB26
:103AE000012038BD0220FCE738B5054608780C46B1
:103AF000FFF77FFE80B14A781046FFF77AFE58B193
:103B0000042A09D000F06CFA830707D4214628461E
:103B1000BDE8384000F0F2BB012038BD0220FCE7D0
:103B20000C3000F0FFB938B504460D46FFF7ACFE87
:103B300028B929462046BDE8384000F081BA38BD92
:103B40000C3000F0FBBB38B500F10C040D462046EC
:103B5000002100F0F3FB29462046BDE8384000F084
:103B6000DBBB38B504460D46FEF7E2F900232561BC
:103B7000E360BDE83840FEF7DFB938B505460C46CE
:103B8000FEF7D6F92969EB680C402343EB60FEF79A
:103B9000D3F900200CB9002138BD0421FCE708B599
:103BA00001F001110C30FFF7DCFF002008BD0C30E4
:103BB00000F040BE0C3000F0D7BD0C3000F0EEBD80
:103BC00007B502AA4FF4007322F8023D0749FFF738
:103BD000F4FFBDF80630B3F5007F05D1022808BF19
:103BE000002003B05DF804FB0120FAE7C41A0020AE
:103BF000024B1960024B1860FEE700BF4C02002028
:103C00005002002008B528B9034B1960034B18680F
:103C1000FFF7EEFF08BD00BF4C020020B41A0020E1
:103C2000084600F05ABF2DE9F0438BB006460D461A
:103C30001822002104A803F02BFE4FF0FF33CDE93A
:103C40000133039305B901AD002405F106082046B0
:103C500005F10C09A0B9E7B23A4635F81410304620
:103C600000F054FF60B93A4638F81410304600F0BE
:103C700061FF28B93A4609EBC401304600F06FFFF6
:103C80000134032CE6D10BB0BDE8F0837FB500F121
:103C90000C050E460B7E4A7E897E284600F086FF84
:103CA00006F10C0207CA01AB83E807001946284653
:103CB00000F0E8FE311D284600F0A1FF044670B96F
:103CC000284600F085FF044648B90849284600F018
:103CD000A1FE044618B9284600F050FF044631689A
:103CE0002846FFF7A0FF204604B070BD148F0000E7
:103CF0000C3000F0F7BE704738B1044B6FF0FF0294
:103D00001A6003F10073104018607047187008447F
:103D1000037899072DE9304804461AD5C26AC2B122
:103D20006FF34103037053691B685A1C04D0184693
:103D3000BDE8304801F0D6B9D0E914234FF0000BAC
:103D400003F0040C5BEA0C0305D1037843F0020393
:103D50000370BDE830884FF48031FFF70EFFD4E9DF
:103D6000142302EA000B03EA010C5BEA0C03F0D017
:103D700004495A46A4F10C0009686346BDE830487E
:103D8000084700BF540200202DE9F34781468A46C8
:103D900062A1D1E90001524B17461E6800EA0902F0
:103DA00001EA0A03134367D009F40020002150EA16
:103DB00001024C4B18BF4C4AD3F8903018BF136027
:103DC00009F48010002150EA01021CBF474A136029
:103DD00009F080520023134309D0454B1B6903F0BF
:103DE0007F43B3F1007F02BF424B02221A6009F009
:103DF000C0520023134305D03F490868FFF77CFFFA
:103E000000230B6009F001020023134324D04FF07C
:103E100000080022002300210120CDE9008802F0E3
:103E20005FFD012002F060F8414670820120FFF73B
:103E300003FD336A314913F0800F14BF304A314A11
:103E40004FF4001313600868FFF756FF00230B6060
:103E5000337B43F00803337300220AF00403134357
:103E60000AD0012106F10C00FFF787FE2AF00405B5
:103E700049EA000945EA010AD6E9172309EA0200DE
:103E80000AEA03010C46034623438046894614D0C0
:103E90001D4B0246196830464B468847124A4FF080
:103EA000FF331360114A08F008040025136054EA38
:103EB00005031EBF154B00221A60FB070DD51449E0
:103EC000144A0868136800211160134A0121117017
:103ED0001BB102B0BDE8F047184702B0BDE8F0875B
:103EE000B41A0020005008405C0200205802002054
:103EF0007023002000400846DC1C0020D41C002059
:103F0000186008461860084454020020C41C0020B1
:103F1000E81C0020E41C0020E01C00200100181810
:103F2000040000002DE9F34BDDE90A67D0E91489AC
:103F3000044689EA070188EA060001EA030C00EA60
:103F4000020B8CEA09018BEA0800C4E9140122F093
:103F5000010006EA0008002507EA0309194648F0AF
:103F6000C05249F00403CDE9005502F0B9FC2046E7
:103F7000FFF7CEFE284602B0BDE8F08B034A036887
:103F8000002B08BF1346024A13607047F73C00003D
:103F900054020020014B0020996070477C0F0021E3
:103FA00010B5032810D8DFE800F017021013002224
:103FB00011460124204602F0C7FE2CB107490868CB
:103FC000FFF79AFE00230B6010BD00220121F0E7ED
:103FD000012211461446EDE70022FAE7DC1C00201E
:103FE0000F4B5B68C3F30363013B0B2B0DD8DFE87A
:103FF00003F014140614140C14080A08080803200B
:1040000070470420704705207047064BDB6813F0AB
:10401000060F14BF0420012070470220704700BF24
:104020000040084000500840044BD3F8883013F09B
:10403000A00F0CBF01200020704700BF00400840C7
:1040400008B5002002F0C4FD002008BD0138C0B250
:1040500002289CBF0F4B53F820200F4B4FF06051AC
:10406000196003F1007388BF00221A604FF4001238
:104070001A600A4A136F23F0060343F00403136720
:10408000074B4FF0805119600423C2F884300020A0
:10409000704700BF1C8F00001860084400000840F3
:1040A000944008460E4B06221A600E4B0022C3F8BD
:1040B00084200D4B4FF080521A60436913F0800F3B
:1040C00018BF0A490A4B4FF4001214BF0A601A6065
:1040D0004FF400121A604FF060521A6000207047CF
:1040E00070000844000008409440084418600846E6
:1040F00018600844022310B1024A13607047024A54
:10410000FBE700BF440008464400084438B51446A5
:10411000426982EA04030B4053400A070D4643619B
:1041200006D514F0080F14BF264A274A0823136047
:10413000EB0706D514F0010F14BF224A224A0123CF
:10414000136068070CD502F05BFD14F0040F14BF78
:104150001E4A1F4A4FF4007313601E4B04221A605C
:10416000A90703D5C4F34000FFF7C4FFEA0606D54C
:1041700014F0100F184B14BF00221B22DA642B0618
:104180001AD514F0800F4FF4001317D0134A1360A0
:10419000FDF7CEFE124B5B68C3F30363032B06D11E
:1041A000104A536823F0F00343F0E00353600A4BD6
:1041B00001225A62FDF7C0FE002038BD0A4A136092
:1041C000FAE700BF44000846440008441C60084663
:1041D0001C600844884008440000084018600846F5
:1041E000004008407C0F002118600844022001F0C4
:1041F0004DBB000013B5012300240022CDE900349B
:1042000000231046194602F06BFB022001F0D2FA9F
:10421000014B1C6002B010BDE41C002002292DE9F6
:10422000F74380460E461546994603D1FFF7E2FF55
:10423000002026E0154CFDF77BFE226807460AB1F8
:10424000AA4221D1124A25600123C2F8009000221F
:10425000CDE9003300231046194602F041FB0D4B17
:1042600000221A70B21A18BF01224146022001F042
:104270002FFB05463846FDF75FFE002DD8D125609F
:10428000012003B0BDE8F0830025F3E7E41C002023
:10429000E81C0020E01C0020044BDB6D5B055ABFCE
:1042A000034B1878012000F00100704700500840CF
:1042B000E01C0020022001F08DBA026B12B11368DD
:1042C000022B02D80C38FCF741B8536A126AD8B2F4
:1042D0005043C3F30723B0FBF3F0704710B5064813
:1042E0000C7803699AB24B781B0643EA04431343E4
:1042F0000361002010BD00BF702300200548036942
:104300001A0C0B78120413434A7843EA0223036120
:1043100000207047702300200B4600F1340118463E
:1043200001F014B908B590F86830032B04D00846A2
:1043300000F056FF002008BD0220FCE770B590F8A1
:104340006830032B05460E4614D02971C16A99B115
:10435000FFF77CFA48B9E8622846FFF7A5FB01465B
:104360002846FFF791FA002070BD31462846FFF736
:10437000D9FFF8E70220F7E70846F5E708B5084651
:1043800000F01EFF002008BD00F024BF2DE9F0471B
:104390009846C369012B07460E46924648D001F065
:1043A00019FD054601F028FE0446FFF719FE012815
:1043B00003D001210846FFF73FFABAF80C30DAF8CB
:1043C0000490F61A280BDAF80830C0EB8040B0FBF6
:1043D000F4F4E409A34284BFB3FBF4F40134B6B2AD
:1043E00083BFB3FBF4F41A1B06FB02991C463F2E55
:1043F00081BFB2099B0103FB029906F03F0601F061
:10440000EFFD484506D02146484601F0B3FE90B185
:1044100002200EE001F0EAFDA042F4D1B8F1000F55
:10442000F1D13846FFF774FC0121F0B201F024FF0E
:104430000020BDE8F08701F0EFFD18B1024801F05F
:104440003BFFEEE70148FAE7C0CF6A00E0673500BE
:104450004A0108B5202102F0BDFF003018BF01203D
:1044600008BD202102F0C8BF08B5084601F018FABF
:10447000024B4042D860002008BD00BF70230020DE
:1044800070B516460C46FDF753FD104B02221A601C
:104490000F4B05465868C0F30360C21F022A01D9BA
:1044A0000C2803D1D3F888309B030CD42046314626
:1044B00000F0AEFC0446074B022228461A60FDF7C6
:1044C0003BFD204670BD0324F5E700BF8840084649
:1044D0000040084088400844CA00082102F07ABF22
:1044E0000A024FF4807102F075BF00004FF4807330
:1044F00010B9024A13607047014AFBE7884008463A
:104500008840084470B504461646FFF78DFD002824
:104510004AD02046FFF7B8F90546002842D1244B7F
:104520004FF440621A6016F0020204D1214B224976
:104530001B789B020B60214B4FF44061196022B93C
:104540001C4B1F4A5B789B02136002F059FB16F06C
:10455000040F14BF1B4A1C4A4FF4806313601B4BAB
:1045600004221A602046FFF77CFF18B106F0010014
:10457000FFF7BCFF204600F0B2FA98B12046FFF7E3
:1045800070FF78B14FF40011204602F035FF00288B
:104590000CBF03210421002000F00CFC431C05D0BB
:1045A0000B4B9860284670BD0225FBE70325F9E711
:1045B000A0000844C81C0020A0000846A40008442D
:1045C000A40008461C6008461C6008448840084453
:1045D000702300202DE9F04F85B080461D46FFF77F
:1045E00091FF0646002877D1574F584BBA691A6099
:1045F000574C002D00F0948095F90310E88801F0E5
:10460000A5FCBB692360AB7895F800B06A78002BF5
:1046100066D003F1FF395A455FFA89F938BF5A4627
:104620004FF0010AA88803922F8801F039F9DFF8CA
:1046300028C1484B039A84B24FF60401002F68D179
:10464000DCF8582092B28A4208BF4FF605021A8061
:104650000022B4F5807FD3B202F1010244D8082BC6
:104660003D4946D1FF23B4F5807F8B653ED14FF4A1
:104670008074394B4FF400025A6508229346364B3A
:104680001CB1013CFF2C28BFFF24DC620023CDE9D4
:1046900000935946534608F1340001F0ADF91FB9B3
:1046A0002E4B4FF480121A602D4BAA681A602D4BC6
:1046B00020221A60012001F0CFF9FDF739FC0546F0
:1046C00001F0A2F8264B1C6874BB01F0AFF802F0B1
:1046D00063FA2846FDF730FC304605B0BDE8F08FA0
:1046E000B346B146B2469DE76408B2E70134A4B2CE
:1046F000BFE701225BB19A40B4F5807F8A65B6D0EE
:1047000080B2013B184100F001000444EFE78A65E4
:10471000AFE7188888421CBFCCF858001980AEE774
:104720002068FFF7E9FAC2E7042001F053F810B15E
:10473000042001F03FF801222146042001F0C8F8CE
:104740000028C2D10126C4E700700840DC1C00200C
:10475000D81C002060020020005008404C50084641
:10476000CC1C002088400846B3FA83F30846114663
:10477000D3F1190210B50FD4062A1346A8BF062399
:10478000DAB2931D01249C40A4B2A14228BF214665
:1047900000F08EFA204610BD0022F2E7084611888C
:1047A000B1FA81F1D1F1190110B50BD40629A8BFD6
:1047B0000621C9B28C1D0123A340138000F094FA96
:1047C000002010BD0021F5E7094B0121D3F8EC20B2
:1047D000996203F18063243352074FF4005119604A
:1047E00041BF03F10073C83304221A60704700BF51
:1047F0000010084038B50C4BD3F8EC5003F180633F
:10480000EC334FF480641C60084B0020186002F009
:1048100083FA074B4FF400521A606A0542BF03F156
:10482000007398331C6038BD00100840C41C002081
:104830005410084438B58A78CB789A4205460C461D
:104840002CD14B78BBB9FFF72DFCA378BBB9144B27
:1048500040F6FF725A62E078A8B9114B40F6FF7239
:104860005A6503F1C063A3F6BC7360221A600D4B56
:1048700040221A6038BD1846FFF7E8FBE5E72846F6
:10488000FFF7A2FFE7E7084B60221A602846FFF710
:10489000B1FF064B40221A600020EBE70120E9E758
:1048A00000100840884008444400084488400846F6
:1048B000F8B5294E00F1340705463846746801F012
:1048C00093FA73682B632846FFF7F7FC01F064FE48
:1048D000224B234A1B682989C3F381231370214B80
:1048E0001B68C3F3812353704FF6FF73994204D0C2
:1048F0001D4B1B680BB1284698472E6BA6421CD057
:104900000EB3316801B1B168A5F10C00FBF720FDD1
:10491000DEB13468D4B13369DBB1D3E900619C689E
:10492000384601F060FE68B922463146384601F04B
:1049300056FE38B9384601F04CFE2B7843F002039E
:104940002B700020F8BD3146DEE73446264621466E
:10495000E6E71C46FAE700BFEC0F0021A000084084
:10496000C81C0020A4000840D01C002048220021C0
:10497000014802F08DBF00BF842300202DE9FF41D4
:1049800000254FF06413C0E91433C0E916354FF623
:10499000FF73056280F86C50C563C5640566838249
:1049A000044600F10C07112088460395FCF7EAFF46
:1049B00004282BD1384602F077F93846FFF7D6FFA6
:1049C000134B60225A6403A93846FFF733FF226A6B
:1049D00006464FF0FF313846FFF798FB4FF0C052C4
:1049E0000423CDE900551046194601F079FF4EB970
:1049F0002046FFF7E5F80646B8F1000F02D008B9E7
:104A00002046C047304604B0BDE8F0810226F9E7F1
:104A10000000084010B50C46FFF7A8FF94B1A2783B
:104A2000082A11D8E17808290ED8084B6068586127
:104A3000207883F85800607883F8590042EA011220
:104A400083F85B20002010BD0120FCE770230020CC
:104A5000012A10B512D8032B10D803EB8202084CA0
:104A60000123934094F85A00DBB221B1034384F848
:104A70005A30002010BD20EA0303F8E70120F9E7CF
:104A80007023002070B50C46054600F134060988F5
:104A9000443001F082FD6188208005F14C0001F076
:104AA0007CFDA188608005F14A0001F076FDE18877
:104AB000A08005F1480001F070FD2189E0803046BA
:104AC00001F077FD61892081304601F07AFD608137
:104AD000304601F07EFD002070BD01F027B8802136
:104AE00002F08ABC10B508490446FEF7ADFF00216C
:104AF0002046FFF74FFA00224FF4C001204602F093
:104B000069FC002010BD00BF288F00007FB5531C3A
:104B10008DF8141005AA090A8DF8151002920221C9
:104B20000022CDE90021DBB2114602F06FFC07B094
:104B30005DF804FB7FB5531C8DF8141005AA090A13
:104B40008DF81510029204210222CDE90021DBB27A
:104B50000022012102F05AFC07B05DF804FB1FB5EA
:104B6000531C029100220821CDE900210122DBB271
:104B7000114602F04BFC05B05DF804FB13B5FF22B3
:104B80004FF6FF710446FFF7C1FF68B9FF224FF6E9
:104B9000FF712046FFF7CEFF30B9CDE90000FF22BC
:104BA00069462046FFF7DBFF02B010BD08B55B0485
:104BB00003F4F01343EA016343F0B00343EA024213
:104BC000024902F007FC002008BD00BFB8011F0128
:104BD00013B54FF40011044602F00EFC50B14AF236
:104BE0001803ADF80430022201A92046FFF748FC63
:104BF00002B010BD05238DF804300122F4E773B52F
:104C00000E7805460C4656B93146FFF721FC314671
:104C10002846FFF761FC31462846FFF761FC237800
:104C200043BB22798DF8042033B323798DF8053006
:104C300001A92846FEF758FF0646C0B92378EBB90C
:104C4000A2798DF80420DBB1A3798DF8053001A994
:104C50002846FEF72BFF064648B923783BB161880A
:104C60002846FFF701FC01212846FFF7F1FB3046FB
:104C700002B070BD0422D5E76379D7E70222E0E7EE
:104C8000E379E2E7084B09494FF48032C3F8E820A2
:104C90000A609A6BD1B2C2F3072299679A6704221D
:104CA0009A6700229A67704700100840EC10084687
:104CB00038B50C4C226060600D46FDF739F9D4F828
:104CC000E0305B0758BF04234FF00002E260A560AC
:104CD00058BFC4F8E830FDF72FF90DB10223A362E5
:104CE00038BD00BF00100840044B1860044B40F66C
:104CF000FF72196058605A62704700BFEC1C0020B8
:104D00003010084000EB40002DE9F84F040104F199
:104D10008044042A04F5012406D8013A032A2DD838
:104D2000DFE802F044413E3B0B78A3614B78A3617E
:104D30008B78A361CB78A3612768D4F80880D4F876
:104D400004A007F00707BB1D01279F4007F1FF39AB
:104D500009EA0800161FA7EB000B5E4501F10405E8
:104D60004AF0005A0CD829465044324602F085FDDC
:104D700006EB080249EA07073A40A260BDE8F88F4F
:104D80005A462946504402F078FD05EB0B01A6EB8C
:104D90000B02504602F071FDEAE70B78A361013186
:104DA0000B78A36101310B78A36101310B78A3610A
:104DB000BDE8F88F3023584310B500F1804404F566
:104DC00001242046236803F007039A1D0123934022
:104DD000226AC2F30C028A4284BF6268E06803F16F
:104DE000FF339BB281BF09180B409B1803F100539E
:104DF00094BF4FF0FF30187810BD3023584300F1B6
:104E0000804000F50120006AC0F30C0070470000EC
:104E1000402910B50A464FF001030BD8064C014655
:104E2000C4F8B8300320FFF76DFF0423C4F8B8308E
:104E3000002010BD1846FCE70010084010B5FDF733
:104E400077F80F4A0F49104C01239365C2F8883058
:104E500000230B604C6003244C620C490C800C490D
:104E60000B804FF4A021C2F8E81002F1C062EC32CE
:104E70001160084ABDE810401360FDF75DB800BF3F
:104E80000010084060100840F01C0020321D002077
:104E9000301D0020341D00200D4B18600D4B0322E7
:104EA0001A800D4B00221A800C4B1A604FF40052EE
:104EB00059605A620A4BF0221A6003F10073A02273
:104EC0001A60084B0122C3F8B820FFF7B7BF00BF34
:104ED000381D0020321D0020301D00209010084099
:104EE00040000844001008402DE9F0410446002825
:104EF00073D03B4EFDF71CF831883A4BDFF8F8C011
:104F000001F03F0202F03C07022C05461F4453D13A
:104F1000DCF8004024B9FDF70FF80320BDE8F0816C
:104F200024F00104DCF8000020F00100A04247D189
:104F30000023CCF8003023886FEA43436FEA5343E1
:104F4000BC4223802CD1284ADFF8B0C01388ACF1D2
:104F50004008CF18043B9BB2211DF81A614528BFB9
:104F60004146042B80B204D9B1F900E0BEF1000F34
:104F700031DB13802288A1781C4CC2F30C02E2635F
:104F800001F0070100F07F02194832800429C26055
:104F9000436205D1174B1B6803B1984701F008F82D
:104FA000124BD3F8E030DB0301D5FFF76BFE284648
:104FB000FCF7C2FF0020B1E7012C08BF3C46B1E777
:104FC000A21AD31A084A128848BF4033043A9A42B8
:104FD000B1DC28469FE70C46BCE703209EE700BFF4
:104FE000301D0020F01C0020321D00200010084061
:104FF00060100840381D0020341D0020301D0020A6
:105000001E481F4B02881B881E491344033B03F0B4
:105010003C032DE9F0410432CE1892B20280B578FB
:105020001948426215F0070088B00A4618D1F7788F
:1050300017F0810F1FD1154CEE4604F120082068AF
:105040006168F446ACE8030008344445E646F6D10E
:1050500008A901EB970717F8200C134405439D702E
:10506000042803D10A4A53681B03FCD4094B1E6071
:1050700008B0BDE8F0810420EFE700BF321D00203A
:10508000301D0020F01C002060100840E892000055
:1050900000400840341D002010B5054C206828B1A0
:1050A000C30701D4FFF720FF0023236010BD00BF1A
:1050B000341D0020094B4FF480321A60084BC3F8AE
:1050C000E420D3F88020C2F30C023C2A05D8D3F8A0
:1050D000E030DB0301D5FFF7D5BD7047EC10084485
:1050E00000100840431C08D0044AD2F83C311B0C85
:1050F0001B0480B20343C2F83C31704700400840B3
:1051000038B50D46044600F065FEAC4042F2107121
:1051100064114C436423B0FBF3F0B4FBF0F038BDF2
:1051200030B51F490B78032B34D01E4A49881368C9
:10513000B1F5E16F23F47F538CBF5A24C82423F0C8
:1051400008038CBF50257825A0429ABF190A01F4A4
:105150007F5143F6C8710B431E2813608CBF124A5F
:10516000124A012313609361114B1B789BB1A84233
:1051700011D9104A4DF60173136093610E4BA04292
:105180008CBF4FF457404FF450400822186098618C
:1051900043F8702C30BD094B08221A60FAE700BFB3
:1051A000401D0020E00F0021084108460841084446
:1051B0007002002004410844044108469440084419
:1051C000034B1A6802609B8883800020704700BFF1
:1051D000401D0020014B1878704700BF710200206D
:1051E000F8B50746C820FFF79BFF484B484D197894
:1051F000032903D1FF272F703846F8BD454B1A68A5
:10520000454B012903EA020314D1072F10D8012FBF
:1052100008BF0227414A042143EA07631160BFB275
:105220003C4AFFB2136038462F70FFF779FFE3E77F
:105230000727EFE743F47F5646F00806002954D1CC
:10524000042F95BF0C4601240B460423FF1A344B50
:10525000D3F88821D24302F4FE1242F40052B2FA8B
:1052600082F2C2F11302C2EB4212FFB2D3B2BB42CE
:1052700028BF3B4603EB84070BB1013BDBB21F2089
:10528000B3FBF0F0C2B2C0EB40101B1A254802F18C
:10529000010C1B064FF0FF3202FA0CF203F180738F
:1052A0000078D243334343EA823340B31E481F4E53
:1052B000B2FA82F202290CBF01463146C2F11F0246
:1052C0008A5CAFB1511EC9B2FD2913D8120642F053
:1052D00004021749C1F858214FF480026CB101F162
:1052E000C06101F584710A609AE700242346ADE7A6
:1052F000104AEEE74FF07F42EBE70F49F3E7002F4C
:105300000C4A18BF4FF07F42E3E700BF401D00206A
:1053100071020020E00F00213F00C0E05841084426
:1053200000400E40461D0020B083E00FB883E00F20
:10533000004008400400000B0841084408B500F094
:105340006BFE0D4A68B1D2F8003123F47F115B087F
:1053500003F4FE130B43C2F800314FF00073D36126
:1053600008BDD2F8183123F47F115B0803F4FE1353
:105370000B43C2F81831F0E70040084070470000C6
:1053800008B500F049FE4FF4001330B1044A136031
:10539000044B4FF000621A6008BD034AF7E700BFF4
:1053A000004108442040084418410844014B186853
:1053B000704700BF481D00200C4B70B5DD6E9E6E1F
:1053C000E8B206F00F01FFF79BFEC6F30311044697
:1053D000C5F30720FFF794FEC6F303210444C5F389
:1053E0000740FFF78DFE204470BD00BF00600840FD
:1053F0002DE9F047384E394B394A002808BF0120C3
:1054000030609B69C3F38213062B0F4613705AD08A
:10541000344B1B78022B4DD1334B1B78002B14BF20
:10542000C82596255FFA85FA08215046FFF768FEE1
:105430004FF003094FF004080824336883420AD070
:1054400045D94444E1B25046FFF75AFEB9F101098B
:105450004FEA5808F1D13368224E98421F4B4FEA69
:105460000542DA6603F1806303F1680340F6FF72D8
:1054700088BF04F1FF341A6003F1007322021A603E
:10548000FFF79AFFB08000F0A5FC05FA04F44FF492
:10549000FA75164B6C4341F66A05B0FBF5F0B4FBA8
:1054A000F0F40A20444338461C6001F095F8B088B7
:1054B000BDE8F087012B08D00B4B1B78002B14BFE5
:1054C000F025B425AEE70025ACE73225AAE738BFC2
:1054D000A4EB0804B6E700BF3C1D002000600840B4
:1054E00072020020401D0020461D0020481D0020A3
:1054F000030103F4F87300F0070018430B01044A9A
:1055000003F4F87301F0070119439060516070478C
:10551000E00F002108B500F06FFD092810D8094BF5
:1055200001281B5C05D1084B1B78012B14BF0423F9
:10553000442303F00F011809BDE80840FFF7D8BF66
:10554000FA23F6E708930000401D002070B50546D9
:105550000E4600F02FFC3E4B3E4C0022C3E90022D9
:105560009A602A783C4B022AD3F8883132D113F45E
:10557000001F3ED12B682360AB88A3800020FFF77B
:105580002FFE3146A888FFF733FF314B22781B6886
:10559000022A23F0804323F0170331D12F4A4FF41E
:1055A000EE41116002F100724FF48A41116043F044
:1055B0008043012143F0200342F8041C244A0020C8
:1055C0001360FFF70DFE264B03221A60FFF7A2FFC0
:1055D000002014E0012A02D113F4400FC9E742B9B8
:1055E000204A526AD24302F0010203F480031343BB
:1055F000BFE7032323701C4BFF221A70012070BDEC
:10560000012A1A4E1A4D1B4C1B481C494FF0070229
:105610000ED1326003262E60226006220260184AF4
:105620000A60184A43F003034FF440411160C5E794
:10563000326004262E6022600522026043F080431F
:10564000C0220A6043F014030F4A8121EEE700BF35
:10565000E00F0021401D002000400E40244108447E
:1056600058410844B081E00F710200200041084415
:10567000004108460C4108440C41084608410844D2
:10568000C1004000044108440841084610B50446E2
:10569000FFF740FF084B094A9B691278C3F3821356
:1056A0009A4206D0064B21461868FFF7A1FE01205A
:1056B00010BD0020FCE700BF00600840720200201F
:1056C0003C1D00202DE9F04B2B4F2C4B3B6000F094
:1056D00081FB4FF4FA634FF47A76DFF8B880B0FBC1
:1056E000F6F56B434FEA032B4FEA136C1BEB0800F4
:1056F0004FF000094FF00003214A4CEB090101F083
:10570000BDFEA0F580730446BB6218B92B21FEF7DD
:1057100079FA012406FB04F200275608B8194FEA6B
:1057200005283B4648F1000101F0A8FE154B196021
:10573000154B270606461860240A25B928462B2152
:10574000FEF760FA01254FF47A73A7FB037803FB99
:1057500004886C0838194FF000032A4648F100010C
:1057600001F08CFE094B1960094B1860024B013E99
:105770001E63BDE8F08B00BF00500840001101001F
:1057800040420F00581D0020541D0020501D0020D5
:105790004C1D002020A10700044B4FF08052C3F89D
:1057A00080211A60024B01225A60704700E100E03C
:1057B00000500840054B0201134401221A604FF4C7
:1057C000807303FA00F0024B586670477450084427
:1057D00000500840024B0001185800F001007047CB
:1057E0007450084001F460010001024B41F00301D4
:1057F0001950704774500840014B024ADA667047EE
:105800000050084000000101054BDA6B12B9054A4F
:1058100010211160044ADA6641F201421A677047AA
:105820000050084000400846011B011808B521201F
:1058300000F010FA024B4FF480325A6008BD00BFEE
:105840000050084008B5222000F004FA024B4FF443
:1058500080225A6008BD00BF00500840064B10B5BA
:105860001968064B1C684FF000420023E0FB04233C
:1058700001FB003010BD00BF501D00204C1D00205A
:10588000014B9869FFF7EABF00500840000100F1A2
:10589000804000F50520D0F88000FFF7DFBF000052
:1058A000084B1A6B084B1B6830B54FF000440025BD
:1058B000E0FB0345054B1B6803FB0050904228BFEB
:1058C000104630BD00500840541D0020581D0020D7
:1058D0002DE9F843154607460E46FCF729FB80469E
:1058E0003846FFF767FF022D04D14046FCF724FB42
:1058F000012011E0394CD4F818904846FFF7AEFF6C
:10590000012D04BF01363618801BB0F1804F05D23F
:105910004046FCF711FB0020BDE8F8832F4A246FB6
:105920002F48D26E07F1090324F0E0041040190259
:10593000E4041B0622F0E00243F4803341F001014D
:10594000E40CD2048C420CBF04240024D20C9842F4
:1059500008BF44F00204914208BF44F0010414F06F
:10596000010118BF1F4B304618BF1E60FFF798FF9C
:105970001A4B03EB07121126C2F88000FA1D03EB45
:105980000212A0EB090056609A69DE6DA2EB0909CC
:105990004845AAD84FF48072BA401642A5D11DB925
:1059A0003846FFF707FFB3E71A6641B10E4B0F49C0
:1059B00041F61F7240F201101A6008601A60A207D7
:1059C00006D5094B0949064A09481A6008601A6059
:1059D000630742BF074B01229A6086E700500840E8
:1059E00000001F1F6C2300206C5008446C500846B8
:1059F0000000010100400840F8B5164C054620683B
:105A000020F4700040F4A00020609DF81C00002BE2
:105A100008BF00211E469DF81830000240EA0360CE
:105A200040EA021242EA06421143E164E76AFF2FAC
:105A30004FF018018CBF00200120FEF7E3F8A763A8
:105A40003EB1288AFFF72CFF87423ABF0023E36369
:105A5000E063F8BD0050084038B50446FFF710FF7A
:105A60000546FFF70DFF401BA042FAD338BD0000EA
:105A700038B50446FCF763FA14F4C00F054647D066
:105A8000264A91688909C1F30903890524494968AF
:105A9000906948BF6FEA8353C2B248BF6FEA93531D
:105AA000000648BF62F0FF021E4812F1460FC06DAB
:105AB0002EDB13F5007F2BD0B3EB820F28DC01F037
:105AC0007063B3F1806F02D011F0506F20D1C0022B
:105AD0001ED4FFF7B7FE134BDA6DD10218D4104A6B
